{
  "contractName": "HealthChain",
  "abi": [
    {
      "inputs": [],
      "stateMutability": "nonpayable",
      "type": "constructor"
    },
    {
      "anonymous": false,
      "inputs": [
        {
          "indexed": false,
          "internalType": "string",
          "name": "fullName",
          "type": "string"
        },
        {
          "indexed": false,
          "internalType": "string",
          "name": "hospitalName",
          "type": "string"
        },
        {
          "indexed": false,
          "internalType": "string",
          "name": "specialization",
          "type": "string"
        }
      ],
      "name": "DoctorRegistered",
      "type": "event"
    },
    {
      "anonymous": false,
      "inputs": [
        {
          "indexed": false,
          "internalType": "string",
          "name": "fullName",
          "type": "string"
        },
        {
          "indexed": false,
          "internalType": "uint256",
          "name": "age",
          "type": "uint256"
        },
        {
          "indexed": false,
          "internalType": "string",
          "name": "sex",
          "type": "string"
        }
      ],
      "name": "PatientRegistered",
      "type": "event"
    },
    {
      "inputs": [
        {
          "internalType": "address",
          "name": "",
          "type": "address"
        }
      ],
      "name": "doctorDataOf",
      "outputs": [
        {
          "internalType": "address payable",
          "name": "doctorId",
          "type": "address"
        },
        {
          "internalType": "string",
          "name": "fullName",
          "type": "string"
        },
        {
          "internalType": "string",
          "name": "hospitalName",
          "type": "string"
        },
        {
          "internalType": "string",
          "name": "specialization",
          "type": "string"
        },
        {
          "internalType": "uint256",
          "name": "createdDate",
          "type": "uint256"
        }
      ],
      "stateMutability": "view",
      "type": "function",
      "constant": true
    },
    {
      "inputs": [],
      "name": "name",
      "outputs": [
        {
          "internalType": "string",
          "name": "",
          "type": "string"
        }
      ],
      "stateMutability": "view",
      "type": "function",
      "constant": true
    },
    {
      "inputs": [],
      "name": "version",
      "outputs": [
        {
          "internalType": "string",
          "name": "",
          "type": "string"
        }
      ],
      "stateMutability": "view",
      "type": "function",
      "constant": true
    },
    {
      "inputs": [
        {
          "internalType": "string",
          "name": "_fullName",
          "type": "string"
        },
        {
          "internalType": "uint256",
          "name": "_age",
          "type": "uint256"
        },
        {
          "internalType": "string",
          "name": "_sex",
          "type": "string"
        }
      ],
      "name": "registerPatient",
      "outputs": [
        {
          "internalType": "bool",
          "name": "success",
          "type": "bool"
        }
      ],
      "stateMutability": "nonpayable",
      "type": "function"
    },
    {
      "inputs": [
        {
          "internalType": "address",
          "name": "_patientId",
          "type": "address"
        }
      ],
      "name": "getPatientData",
      "outputs": [
        {
          "internalType": "string",
          "name": "fullName",
          "type": "string"
        },
        {
          "internalType": "uint256",
          "name": "age",
          "type": "uint256"
        },
        {
          "internalType": "string",
          "name": "sex",
          "type": "string"
        }
      ],
      "stateMutability": "view",
      "type": "function",
      "constant": true
    },
    {
      "inputs": [
        {
          "internalType": "string",
          "name": "_fullName",
          "type": "string"
        },
        {
          "internalType": "string",
          "name": "_hospitalName",
          "type": "string"
        },
        {
          "internalType": "string",
          "name": "_specialization",
          "type": "string"
        }
      ],
      "name": "registerDoctor",
      "outputs": [
        {
          "internalType": "bool",
          "name": "success",
          "type": "bool"
        }
      ],
      "stateMutability": "nonpayable",
      "type": "function"
    },
    {
      "inputs": [
        {
          "internalType": "address",
          "name": "_patientId",
          "type": "address"
        }
      ],
      "name": "requestForPatientAccess",
      "outputs": [
        {
          "internalType": "bool",
          "name": "success",
          "type": "bool"
        }
      ],
      "stateMutability": "nonpayable",
      "type": "function"
    },
    {
      "inputs": [],
      "name": "getDoctorRequests",
      "outputs": [
        {
          "internalType": "address[]",
          "name": "requestedDoctors",
          "type": "address[]"
        }
      ],
      "stateMutability": "view",
      "type": "function",
      "constant": true
    },
    {
      "inputs": [
        {
          "internalType": "address",
          "name": "_doctorId",
          "type": "address"
        },
        {
          "internalType": "bool",
          "name": "_isAllowed",
          "type": "bool"
        }
      ],
      "name": "reviewDoctorRequest",
      "outputs": [
        {
          "internalType": "bool",
          "name": "success",
          "type": "bool"
        }
      ],
      "stateMutability": "nonpayable",
      "type": "function"
    },
    {
      "inputs": [
        {
          "internalType": "address",
          "name": "_doctorId",
          "type": "address"
        }
      ],
      "name": "revokePermission",
      "outputs": [
        {
          "internalType": "bool",
          "name": "success",
          "type": "bool"
        }
      ],
      "stateMutability": "nonpayable",
      "type": "function"
    },
    {
      "inputs": [
        {
          "internalType": "address",
          "name": "_patientId",
          "type": "address"
        }
      ],
      "name": "getPatientHealth",
      "outputs": [
        {
          "internalType": "string",
          "name": "fullName",
          "type": "string"
        },
        {
          "internalType": "uint256",
          "name": "age",
          "type": "uint256"
        },
        {
          "internalType": "string",
          "name": "sex",
          "type": "string"
        },
        {
          "internalType": "uint256",
          "name": "createdDate",
          "type": "uint256"
        },
        {
          "components": [
            {
              "internalType": "string",
              "name": "note",
              "type": "string"
            },
            {
              "internalType": "uint256",
              "name": "timestamp",
              "type": "uint256"
            },
            {
              "internalType": "address payable",
              "name": "createdBy",
              "type": "address"
            }
          ],
          "internalType": "struct HealthChain.Prescription[]",
          "name": "prescriptionNotes",
          "type": "tuple[]"
        }
      ],
      "stateMutability": "view",
      "type": "function",
      "constant": true
    },
    {
      "inputs": [
        {
          "internalType": "address",
          "name": "_patientId",
          "type": "address"
        },
        {
          "internalType": "string",
          "name": "_note",
          "type": "string"
        }
      ],
      "name": "addPrescription",
      "outputs": [
        {
          "internalType": "bool",
          "name": "success",
          "type": "bool"
        }
      ],
      "stateMutability": "nonpayable",
      "type": "function"
    }
  ],
  "bytecode": "0x60806040526040518060400160405280600b81526020017f4865616c7468436861696e0000000000000000000000000000000000000000008152506000908051906020019062000051929190620000b4565b506040518060400160405280600381526020017f302e310000000000000000000000000000000000000000000000000000000000815250600190805190602001906200009f929190620000b4565b50348015620000ad57600080fd5b50620001c9565b828054620000c29062000193565b90600052602060002090601f016020900481019282620000e6576000855562000132565b82601f106200010157805160ff191683800117855562000132565b8280016001018555821562000132579182015b828111156200013157825182559160200191906001019062000114565b5b50905062000141919062000145565b5090565b5b808211156200016057600081600090555060010162000146565b5090565b7f4e487b7100000000000000000000000000000000000000000000000000000000600052602260045260246000fd5b60006002820490506001821680620001ac57607f821691505b60208210811415620001c357620001c262000164565b5b50919050565b6133f180620001d96000396000f3fe608060405234801561001057600080fd5b50600436106100d1576000357c01000000000000000000000000000000000000000000000000000000009004806350c7a9121161008e57806350c7a912146101d857806354fd4d5014610208578063a3bf5b9a14610226578063a3e12bc014610256578063b567754d14610286578063c10c8925146102b6576100d1565b806305b1c356146100d657806306fdde03146100f45780631d14c36e146101125780633734416c1461014257806346deb2fe1461017657806348e81852146101a6575b600080fd5b6100de6102ea565b6040516100eb91906123b6565b60405180910390f35b6100fc61044f565b6040516101099190612471565b60405180910390f35b61012c60048036038101906101279190612612565b6104dd565b60405161013991906126b8565b60405180910390f35b61015c600480360381019061015791906126ff565b610709565b60405161016d9594939291906128c7565b60405180910390f35b610190600480360381019061018b91906126ff565b610af6565b60405161019d91906126b8565b60405180910390f35b6101c060048036038101906101bb91906126ff565b610ee9565b6040516101cf9392919061292f565b60405180910390f35b6101f260048036038101906101ed9190612974565b611356565b6040516101ff91906126b8565b60405180910390f35b610210611593565b60405161021d9190612471565b60405180910390f35b610240600480360381019061023b91906126ff565b611621565b60405161024d91906126b8565b60405180910390f35b610270600480360381019061026b9190612a1b565b611942565b60405161027d91906126b8565b60405180910390f35b6102a0600480360381019061029b9190612aa3565b611bbc565b6040516102ad91906126b8565b60405180910390f35b6102d060048036038101906102cb91906126ff565b611f8f565b6040516102e1959493929190612af2565b60405180910390f35b60606000600260003373ffffffffffffffffffffffffffffffffffffffff1673ffffffffffffffffffffffffffffffffffffffff168152602001908152602001600020600101805461033b90612b89565b90501161037d576040517f08c379a000000000000000000000000000000000000000000000000000000000815260040161037490612c07565b60405180910390fd5b6000600260003373ffffffffffffffffffffffffffffffffffffffff1673ffffffffffffffffffffffffffffffffffffffff16815260200190815260200160002090508060050180548060200260200160405190810160405280929190818152602001828054801561044457602002820191906000526020600020905b8160009054906101000a900473ffffffffffffffffffffffffffffffffffffffff1673ffffffffffffffffffffffffffffffffffffffff16815260200190600101908083116103fa575b505050505091505090565b6000805461045c90612b89565b80601f016020809104026020016040519081016040528092919081815260200182805461048890612b89565b80156104d55780601f106104aa576101008083540402835291602001916104d5565b820191906000526020600020905b8154815290600101906020018083116104b857829003601f168201915b505050505081565b600080600260003373ffffffffffffffffffffffffffffffffffffffff1673ffffffffffffffffffffffffffffffffffffffff168152602001908152602001600020600101805461052d90612b89565b90501115610570576040517f08c379a000000000000000000000000000000000000000000000000000000000815260040161056790612c73565b60405180910390fd5b60008451116105b4576040517f08c379a00000000000000000000000000000000000000000000000000000000081526004016105ab90612cdf565b60405180910390fd5b600083116105f7576040517f08c379a00000000000000000000000000000000000000000000000000000000081526004016105ee90612d4b565b60405180910390fd5b600082511161063b576040517f08c379a000000000000000000000000000000000000000000000000000000000815260040161063290612db7565b60405180910390fd5b6000600260003373ffffffffffffffffffffffffffffffffffffffff1673ffffffffffffffffffffffffffffffffffffffff168152602001908152602001600020905084816001019080519060200190610696929190612223565b50838160020181905550828160030190805190602001906106b8929190612223565b504281600401819055507fb36df68004bfda39fb94d7b871103e2b4b5797c46e2e023f1e428145414b67818585856040516106f59392919061292f565b60405180910390a160019150509392505050565b6060600060606000606060006107e5600260008973ffffffffffffffffffffffffffffffffffffffff1673ffffffffffffffffffffffffffffffffffffffff1681526020019081526020016000206006018054806020026020016040519081016040528092919081815260200182805480156107da57602002820191906000526020600020905b8160009054906101000a900473ffffffffffffffffffffffffffffffffffffffff1673ffffffffffffffffffffffffffffffffffffffff1681526020019060010190808311610790575b50505050503361217d565b1215610826576040517f08c379a000000000000000000000000000000000000000000000000000000000815260040161081d90612e23565b60405180910390fd5b6000600260008873ffffffffffffffffffffffffffffffffffffffff1673ffffffffffffffffffffffffffffffffffffffff16815260200190815260200160002090508060010181600201548260030183600401548460070184805461088b90612b89565b80601f01602080910402602001604051908101604052809291908181526020018280546108b790612b89565b80156109045780601f106108d957610100808354040283529160200191610904565b820191906000526020600020905b8154815290600101906020018083116108e757829003601f168201915b5050505050945082805461091790612b89565b80601f016020809104026020016040519081016040528092919081815260200182805461094390612b89565b80156109905780601f1061096557610100808354040283529160200191610990565b820191906000526020600020905b81548152906001019060200180831161097357829003601f168201915b5050505050925080805480602002602001604051908101604052809291908181526020016000905b82821015610adc57838290600052602060002090600302016040518060600160405290816000820180546109eb90612b89565b80601f0160208091040260200160405190810160405280929190818152602001828054610a1790612b89565b8015610a645780601f10610a3957610100808354040283529160200191610a64565b820191906000526020600020905b815481529060010190602001808311610a4757829003601f168201915b50505050508152602001600182015481526020016002820160009054906101000a900473ffffffffffffffffffffffffffffffffffffffff1673ffffffffffffffffffffffffffffffffffffffff1673ffffffffffffffffffffffffffffffffffffffff1681525050815260200190600101906109b8565b505050509050955095509550955095505091939590929450565b600080600360003373ffffffffffffffffffffffffffffffffffffffff1673ffffffffffffffffffffffffffffffffffffffff1681526020019081526020016000206001018054610b4690612b89565b905011610b88576040517f08c379a0000000000000000000000000000000000000000000000000000000008152600401610b7f90612e8f565b60405180910390fd5b6000600260008473ffffffffffffffffffffffffffffffffffffffff1673ffffffffffffffffffffffffffffffffffffffff1681526020019081526020016000206001018054610bd790612b89565b905011610c19576040517f08c379a0000000000000000000000000000000000000000000000000000000008152600401610c1090612efb565b60405180910390fd5b6000610ceb600260008573ffffffffffffffffffffffffffffffffffffffff1673ffffffffffffffffffffffffffffffffffffffff168152602001908152602001600020600601805480602002602001604051908101604052809291908181526020018280548015610ce057602002820191906000526020600020905b8160009054906101000a900473ffffffffffffffffffffffffffffffffffffffff1673ffffffffffffffffffffffffffffffffffffffff1681526020019060010190808311610c96575b50505050503361217d565b12610d2b576040517f08c379a0000000000000000000000000000000000000000000000000000000008152600401610d2290612f67565b60405180910390fd5b6000610dfd600260008573ffffffffffffffffffffffffffffffffffffffff1673ffffffffffffffffffffffffffffffffffffffff168152602001908152602001600020600501805480602002602001604051908101604052809291908181526020018280548015610df257602002820191906000526020600020905b8160009054906101000a900473ffffffffffffffffffffffffffffffffffffffff1673ffffffffffffffffffffffffffffffffffffffff1681526020019060010190808311610da8575b50505050503361217d565b12610e3d576040517f08c379a0000000000000000000000000000000000000000000000000000000008152600401610e3490612fd3565b60405180910390fd5b600260008373ffffffffffffffffffffffffffffffffffffffff1673ffffffffffffffffffffffffffffffffffffffff168152602001908152602001600020600501339080600181540180825580915050600190039060005260206000200160009091909190916101000a81548173ffffffffffffffffffffffffffffffffffffffff021916908373ffffffffffffffffffffffffffffffffffffffff16021790555060019050919050565b6060600060606000600260008673ffffffffffffffffffffffffffffffffffffffff1673ffffffffffffffffffffffffffffffffffffffff168152602001908152602001600020604051806101000160405290816000820160009054906101000a900473ffffffffffffffffffffffffffffffffffffffff1673ffffffffffffffffffffffffffffffffffffffff1673ffffffffffffffffffffffffffffffffffffffff168152602001600182018054610fa290612b89565b80601f0160208091040260200160405190810160405280929190818152602001828054610fce90612b89565b801561101b5780601f10610ff05761010080835404028352916020019161101b565b820191906000526020600020905b815481529060010190602001808311610ffe57829003601f168201915b505050505081526020016002820154815260200160038201805461103e90612b89565b80601f016020809104026020016040519081016040528092919081815260200182805461106a90612b89565b80156110b75780601f1061108c576101008083540402835291602001916110b7565b820191906000526020600020905b81548152906001019060200180831161109a57829003601f168201915b50505050508152602001600482015481526020016005820180548060200260200160405190810160405280929190818152602001828054801561114f57602002820191906000526020600020905b8160009054906101000a900473ffffffffffffffffffffffffffffffffffffffff1673ffffffffffffffffffffffffffffffffffffffff1681526020019060010190808311611105575b50505050508152602001600682018054806020026020016040519081016040528092919081815260200182805480156111dd57602002820191906000526020600020905b8160009054906101000a900473ffffffffffffffffffffffffffffffffffffffff1673ffffffffffffffffffffffffffffffffffffffff1681526020019060010190808311611193575b5050505050815260200160078201805480602002602001604051908101604052809291908181526020016000905b8282101561132f578382906000526020600020906003020160405180606001604052908160008201805461123e90612b89565b80601f016020809104026020016040519081016040528092919081815260200182805461126a90612b89565b80156112b75780601f1061128c576101008083540402835291602001916112b7565b820191906000526020600020905b81548152906001019060200180831161129a57829003601f168201915b50505050508152602001600182015481526020016002820160009054906101000a900473ffffffffffffffffffffffffffffffffffffffff1673ffffffffffffffffffffffffffffffffffffffff1673ffffffffffffffffffffffffffffffffffffffff16815250508152602001906001019061120b565b50505050815250509050806020015181604001518260600151935093509350509193909250565b600080600360003373ffffffffffffffffffffffffffffffffffffffff1673ffffffffffffffffffffffffffffffffffffffff16815260200190815260200160002060010180546113a690612b89565b905011156113e9576040517f08c379a00000000000000000000000000000000000000000000000000000000081526004016113e090612c73565b60405180910390fd5b600084511161142d576040517f08c379a000000000000000000000000000000000000000000000000000000000815260040161142490612cdf565b60405180910390fd5b6000835111611471576040517f08c379a00000000000000000000000000000000000000000000000000000000081526004016114689061303f565b60405180910390fd5b60008251116114b5576040517f08c379a00000000000000000000000000000000000000000000000000000000081526004016114ac906130ab565b60405180910390fd5b6000600360003373ffffffffffffffffffffffffffffffffffffffff1673ffffffffffffffffffffffffffffffffffffffff168152602001908152602001600020905084816001019080519060200190611510929190612223565b5083816002019080519060200190611529929190612223565b5082816003019080519060200190611542929190612223565b504281600401819055507f1187c17101d2ad9d5a17b4990710f2be353a26783d7627f24824dd75475ddea285858560405161157f939291906130cb565b60405180910390a160019150509392505050565b600180546115a090612b89565b80601f01602080910402602001604051908101604052809291908181526020018280546115cc90612b89565b80156116195780601f106115ee57610100808354040283529160200191611619565b820191906000526020600020905b8154815290600101906020018083116115fc57829003601f168201915b505050505081565b600080600260003373ffffffffffffffffffffffffffffffffffffffff1673ffffffffffffffffffffffffffffffffffffffff168152602001908152602001600020600101805461167190612b89565b9050116116b3576040517f08c379a00000000000000000000000000000000000000000000000000000000081526004016116aa90612c07565b60405180910390fd5b6000611785600260003373ffffffffffffffffffffffffffffffffffffffff1673ffffffffffffffffffffffffffffffffffffffff16815260200190815260200160002060060180548060200260200160405190810160405280929190818152602001828054801561177a57602002820191906000526020600020905b8160009054906101000a900473ffffffffffffffffffffffffffffffffffffffff1673ffffffffffffffffffffffffffffffffffffffff1681526020019060010190808311611730575b50505050508461217d565b905060008112156117cb576040517f08c379a00000000000000000000000000000000000000000000000000000000081526004016117c290613163565b60405180910390fd5b6000600260003373ffffffffffffffffffffffffffffffffffffffff1673ffffffffffffffffffffffffffffffffffffffff168152602001908152602001600020905060008290505b6001826006018054905061182891906131b2565b8110156118ed578160060160018261184091906131e6565b815481106118515761185061323c565b5b9060005260206000200160009054906101000a900473ffffffffffffffffffffffffffffffffffffffff168260060182815481106118925761189161323c565b5b9060005260206000200160006101000a81548173ffffffffffffffffffffffffffffffffffffffff021916908373ffffffffffffffffffffffffffffffffffffffff16021790555080806118e59061326b565b915050611814565b5080600601805480611902576119016132b4565b5b6001900381819060005260206000200160006101000a81549073ffffffffffffffffffffffffffffffffffffffff02191690559055600192505050919050565b600080825111611987576040517f08c379a000000000000000000000000000000000000000000000000000000000815260040161197e9061332f565b60405180910390fd5b6000611a59600260008673ffffffffffffffffffffffffffffffffffffffff1673ffffffffffffffffffffffffffffffffffffffff168152602001908152602001600020600601805480602002602001604051908101604052809291908181526020018280548015611a4e57602002820191906000526020600020905b8160009054906101000a900473ffffffffffffffffffffffffffffffffffffffff1673ffffffffffffffffffffffffffffffffffffffff1681526020019060010190808311611a04575b50505050503361217d565b1215611a9a576040517f08c379a0000000000000000000000000000000000000000000000000000000008152600401611a9190612e23565b60405180910390fd5b600060405180606001604052808481526020014281526020013373ffffffffffffffffffffffffffffffffffffffff1681525090506000600260008673ffffffffffffffffffffffffffffffffffffffff1673ffffffffffffffffffffffffffffffffffffffff1681526020019081526020016000209050806007018290806001815401808255809150506001900390600052602060002090600302016000909190919091506000820151816000019080519060200190611b5c929190612223565b506020820151816001015560408201518160020160006101000a81548173ffffffffffffffffffffffffffffffffffffffff021916908373ffffffffffffffffffffffffffffffffffffffff160217905550505060019250505092915050565b600080600260003373ffffffffffffffffffffffffffffffffffffffff1673ffffffffffffffffffffffffffffffffffffffff1681526020019081526020016000206001018054611c0c90612b89565b905011611c4e576040517f08c379a0000000000000000000000000000000000000000000000000000000008152600401611c4590612c07565b60405180910390fd5b6000611d20600260003373ffffffffffffffffffffffffffffffffffffffff1673ffffffffffffffffffffffffffffffffffffffff168152602001908152602001600020600501805480602002602001604051908101604052809291908181526020018280548015611d1557602002820191906000526020600020905b8160009054906101000a900473ffffffffffffffffffffffffffffffffffffffff1673ffffffffffffffffffffffffffffffffffffffff1681526020019060010190808311611ccb575b50505050508561217d565b90506000811215611d66576040517f08c379a0000000000000000000000000000000000000000000000000000000008152600401611d5d9061339b565b60405180910390fd5b600115158315151415611e1757600260003373ffffffffffffffffffffffffffffffffffffffff1673ffffffffffffffffffffffffffffffffffffffff168152602001908152602001600020600601849080600181540180825580915050600190039060005260206000200160009091909190916101000a81548173ffffffffffffffffffffffffffffffffffffffff021916908373ffffffffffffffffffffffffffffffffffffffff1602179055505b6000600260003373ffffffffffffffffffffffffffffffffffffffff1673ffffffffffffffffffffffffffffffffffffffff168152602001908152602001600020905060008290505b60018260050180549050611e7491906131b2565b811015611f395781600501600182611e8c91906131e6565b81548110611e9d57611e9c61323c565b5b9060005260206000200160009054906101000a900473ffffffffffffffffffffffffffffffffffffffff16826005018281548110611ede57611edd61323c565b5b9060005260206000200160006101000a81548173ffffffffffffffffffffffffffffffffffffffff021916908373ffffffffffffffffffffffffffffffffffffffff1602179055508080611f319061326b565b915050611e60565b5080600501805480611f4e57611f4d6132b4565b5b6001900381819060005260206000200160006101000a81549073ffffffffffffffffffffffffffffffffffffffff0219169055905560019250505092915050565b60036020528060005260406000206000915090508060000160009054906101000a900473ffffffffffffffffffffffffffffffffffffffff1690806001018054611fd890612b89565b80601f016020809104026020016040519081016040528092919081815260200182805461200490612b89565b80156120515780601f1061202657610100808354040283529160200191612051565b820191906000526020600020905b81548152906001019060200180831161203457829003601f168201915b50505050509080600201805461206690612b89565b80601f016020809104026020016040519081016040528092919081815260200182805461209290612b89565b80156120df5780601f106120b4576101008083540402835291602001916120df565b820191906000526020600020905b8154815290600101906020018083116120c257829003601f168201915b5050505050908060030180546120f490612b89565b80601f016020809104026020016040519081016040528092919081815260200182805461212090612b89565b801561216d5780601f106121425761010080835404028352916020019161216d565b820191906000526020600020905b81548152906001019060200180831161215057829003601f168201915b5050505050908060040154905085565b6000807fffffffffffffffffffffffffffffffffffffffffffffffffffffffffffffffff905060005b8451811015612218578481815181106121c2576121c161323c565b5b602002602001015173ffffffffffffffffffffffffffffffffffffffff168473ffffffffffffffffffffffffffffffffffffffff16141561220557809150612218565b80806122109061326b565b9150506121a6565b508091505092915050565b82805461222f90612b89565b90600052602060002090601f0160209004810192826122515760008555612298565b82601f1061226a57805160ff1916838001178555612298565b82800160010185558215612298579182015b8281111561229757825182559160200191906001019061227c565b5b5090506122a591906122a9565b5090565b5b808211156122c25760008160009055506001016122aa565b5090565b600081519050919050565b600082825260208201905092915050565b6000819050602082019050919050565b600073ffffffffffffffffffffffffffffffffffffffff82169050919050565b600061231d826122f2565b9050919050565b61232d81612312565b82525050565b600061233f8383612324565b60208301905092915050565b6000602082019050919050565b6000612363826122c6565b61236d81856122d1565b9350612378836122e2565b8060005b838110156123a95781516123908882612333565b975061239b8361234b565b92505060018101905061237c565b5085935050505092915050565b600060208201905081810360008301526123d08184612358565b905092915050565b600081519050919050565b600082825260208201905092915050565b60005b838110156124125780820151818401526020810190506123f7565b83811115612421576000848401525b50505050565b6000601f19601f8301169050919050565b6000612443826123d8565b61244d81856123e3565b935061245d8185602086016123f4565b61246681612427565b840191505092915050565b6000602082019050818103600083015261248b8184612438565b905092915050565b6000604051905090565b600080fd5b600080fd5b600080fd5b600080fd5b7f4e487b7100000000000000000000000000000000000000000000000000000000600052604160045260246000fd5b6124e982612427565b810181811067ffffffffffffffff82111715612508576125076124b1565b5b80604052505050565b600061251b612493565b905061252782826124e0565b919050565b600067ffffffffffffffff821115612547576125466124b1565b5b61255082612427565b9050602081019050919050565b82818337600083830152505050565b600061257f61257a8461252c565b612511565b90508281526020810184848401111561259b5761259a6124ac565b5b6125a684828561255d565b509392505050565b600082601f8301126125c3576125c26124a7565b5b81356125d384826020860161256c565b91505092915050565b6000819050919050565b6125ef816125dc565b81146125fa57600080fd5b50565b60008135905061260c816125e6565b92915050565b60008060006060848603121561262b5761262a61249d565b5b600084013567ffffffffffffffff811115612649576126486124a2565b5b612655868287016125ae565b9350506020612666868287016125fd565b925050604084013567ffffffffffffffff811115612687576126866124a2565b5b612693868287016125ae565b9150509250925092565b60008115159050919050565b6126b28161269d565b82525050565b60006020820190506126cd60008301846126a9565b92915050565b6126dc81612312565b81146126e757600080fd5b50565b6000813590506126f9816126d3565b92915050565b6000602082840312156127155761271461249d565b5b6000612723848285016126ea565b91505092915050565b612735816125dc565b82525050565b600081519050919050565b600082825260208201905092915050565b6000819050602082019050919050565b600082825260208201905092915050565b6000612783826123d8565b61278d8185612767565b935061279d8185602086016123f4565b6127a681612427565b840191505092915050565b6127ba816125dc565b82525050565b60006127cb826122f2565b9050919050565b6127db816127c0565b82525050565b600060608301600083015184820360008601526127fe8282612778565b915050602083015161281360208601826127b1565b50604083015161282660408601826127d2565b508091505092915050565b600061283d83836127e1565b905092915050565b6000602082019050919050565b600061285d8261273b565b6128678185612746565b93508360208202850161287985612757565b8060005b858110156128b557848403895281516128968582612831565b94506128a183612845565b925060208a0199505060018101905061287d565b50829750879550505050505092915050565b600060a08201905081810360008301526128e18188612438565b90506128f0602083018761272c565b81810360408301526129028186612438565b9050612911606083018561272c565b81810360808301526129238184612852565b90509695505050505050565b600060608201905081810360008301526129498186612438565b9050612958602083018561272c565b818103604083015261296a8184612438565b9050949350505050565b60008060006060848603121561298d5761298c61249d565b5b600084013567ffffffffffffffff8111156129ab576129aa6124a2565b5b6129b7868287016125ae565b935050602084013567ffffffffffffffff8111156129d8576129d76124a2565b5b6129e4868287016125ae565b925050604084013567ffffffffffffffff811115612a0557612a046124a2565b5b612a11868287016125ae565b9150509250925092565b60008060408385031215612a3257612a3161249d565b5b6000612a40858286016126ea565b925050602083013567ffffffffffffffff811115612a6157612a606124a2565b5b612a6d858286016125ae565b9150509250929050565b612a808161269d565b8114612a8b57600080fd5b50565b600081359050612a9d81612a77565b92915050565b60008060408385031215612aba57612ab961249d565b5b6000612ac8858286016126ea565b9250506020612ad985828601612a8e565b9150509250929050565b612aec816127c0565b82525050565b600060a082019050612b076000830188612ae3565b8181036020830152612b198187612438565b90508181036040830152612b2d8186612438565b90508181036060830152612b418185612438565b9050612b50608083018461272c565b9695505050505050565b7f4e487b7100000000000000000000000000000000000000000000000000000000600052602260045260246000fd5b60006002820490506001821680612ba157607f821691505b60208210811415612bb557612bb4612b5a565b5b50919050565b7f596f7520617265206e6f7420612070617469656e740000000000000000000000600082015250565b6000612bf16015836123e3565b9150612bfc82612bbb565b602082019050919050565b60006020820190508181036000830152612c2081612be4565b9050919050565b7f526567697374726174696f6e20616c7265616479206578697374730000000000600082015250565b6000612c5d601b836123e3565b9150612c6882612c27565b602082019050919050565b60006020820190508181036000830152612c8c81612c50565b9050919050565b7f4e616d652073686f756c64206e6f7420656d7074790000000000000000000000600082015250565b6000612cc96015836123e3565b9150612cd482612c93565b602082019050919050565b60006020820190508181036000830152612cf881612cbc565b9050919050565b7f4167652073686f756c64206e6f7420656d707479000000000000000000000000600082015250565b6000612d356014836123e3565b9150612d4082612cff565b602082019050919050565b60006020820190508181036000830152612d6481612d28565b9050919050565b7f5365782073686f756c64206e6f7420656d707479000000000000000000000000600082015250565b6000612da16014836123e3565b9150612dac82612d6b565b602082019050919050565b60006020820190508181036000830152612dd081612d94565b9050919050565b7f596f7520617265206e6f7420616c6c6f77656420746f20616363657373000000600082015250565b6000612e0d601d836123e3565b9150612e1882612dd7565b602082019050919050565b60006020820190508181036000830152612e3c81612e00565b9050919050565b7f596f752073686f756c64206265206120646f63746f7200000000000000000000600082015250565b6000612e796016836123e3565b9150612e8482612e43565b602082019050919050565b60006020820190508181036000830152612ea881612e6c565b9050919050565b7f4e6f2070617469656e7420666f756e6420776974682074686973206964000000600082015250565b6000612ee5601d836123e3565b9150612ef082612eaf565b602082019050919050565b60006020820190508181036000830152612f1481612ed8565b9050919050565b7f417070726f76616c20616c726561647920657869737473000000000000000000600082015250565b6000612f516017836123e3565b9150612f5c82612f1b565b602082019050919050565b60006020820190508181036000830152612f8081612f44565b9050919050565b7f5265717565737420616c72656164792065786973747300000000000000000000600082015250565b6000612fbd6016836123e3565b9150612fc882612f87565b602082019050919050565b60006020820190508181036000830152612fec81612fb0565b9050919050565b7f486f73706974616c204e616d652073686f756c64206e6f7420656d7074790000600082015250565b6000613029601e836123e3565b915061303482612ff3565b602082019050919050565b600060208201905081810360008301526130588161301c565b9050919050565b7f5370656369616c697a6174696f6e2073686f756c64206e6f7420656d70747900600082015250565b6000613095601f836123e3565b91506130a08261305f565b602082019050919050565b600060208201905081810360008301526130c481613088565b9050919050565b600060608201905081810360008301526130e58186612438565b905081810360208301526130f98185612438565b9050818103604083015261310d8184612438565b9050949350505050565b7f546865207065726d697373696f6e20646f6573206e6f74206578697374730000600082015250565b600061314d601e836123e3565b915061315882613117565b602082019050919050565b6000602082019050818103600083015261317c81613140565b9050919050565b7f4e487b7100000000000000000000000000000000000000000000000000000000600052601160045260246000fd5b60006131bd826125dc565b91506131c8836125dc565b9250828210156131db576131da613183565b5b828203905092915050565b60006131f1826125dc565b91506131fc836125dc565b9250827fffffffffffffffffffffffffffffffffffffffffffffffffffffffffffffffff0382111561323157613230613183565b5b828201905092915050565b7f4e487b7100000000000000000000000000000000000000000000000000000000600052603260045260246000fd5b6000613276826125dc565b91507fffffffffffffffffffffffffffffffffffffffffffffffffffffffffffffffff8214156132a9576132a8613183565b5b600182019050919050565b7f4e487b7100000000000000000000000000000000000000000000000000000000600052603160045260246000fd5b7f4e6f7465732053686f756c64206e6f7420656d70747900000000000000000000600082015250565b60006133196016836123e3565b9150613324826132e3565b602082019050919050565b600060208201905081810360008301526133488161330c565b9050919050565b7f546865207265717565737420646f6573206e6f74206578697374730000000000600082015250565b6000613385601b836123e3565b91506133908261334f565b602082019050919050565b600060208201905081810360008301526133b481613378565b905091905056fea26469706673582212204a54ea8b4d54340c174f3a5bc861e3272af90aced6166c569f8ac036f0e8178964736f6c63430008090033",
  "immutableReferences": {},
  "source": "// SPDX-License-Identifier: MIT\npragma solidity >=0.4.22 <0.9.0;\n\ncontract HealthChain {\n    string public name = \"HealthChain\";\n    string public version = \"0.1\";\n\n    struct Prescription {\n        string note;\n        uint256 timestamp;\n        address payable createdBy;\n    }\n\n    struct Patient {\n        address payable patientId;\n        string fullName;\n        uint256 age;\n        string sex;\n        uint256 createdDate;\n        address[] requestedDoctors;\n        address[] allowedDoctors;\n        Prescription[] prescriptionNotes;\n    }\n\n    struct Doctor {\n        address payable doctorId;\n        string fullName;\n        string hospitalName;\n        string specialization;\n        uint256 createdDate;\n    }\n\n    mapping(address => Patient) private patientDataOf;\n    mapping(address => Doctor) public doctorDataOf;\n\n    event PatientRegistered(string fullName, uint256 age, string sex);\n    event DoctorRegistered(\n        string fullName,\n        string hospitalName,\n        string specialization\n    );\n\n    constructor() {}\n\n    modifier onlyPatient() {\n        require(\n            bytes(patientDataOf[msg.sender].fullName).length > 0,\n            \"You are not a patient\"\n        );\n        _;\n    }\n    modifier onlyDoctor() {\n        require(\n            bytes(doctorDataOf[msg.sender].fullName).length > 0,\n            \"You should be a doctor\"\n        );\n        _;\n    }\n\n    function registerPatient(\n        string memory _fullName,\n        uint256 _age,\n        string memory _sex\n    ) public returns (bool success) {\n        require(\n            bytes(patientDataOf[msg.sender].fullName).length <= 0,\n            \"Registration already exists\"\n        );\n        require(bytes(_fullName).length > 0, \"Name should not empty\");\n        require(_age > 0, \"Age should not empty\");\n        require(bytes(_sex).length > 0, \"Sex should not empty\");\n\n        Patient storage newPatient = patientDataOf[msg.sender];\n        newPatient.fullName = _fullName;\n        newPatient.age = _age;\n        newPatient.sex = _sex;\n        newPatient.createdDate = block.timestamp;\n\n        emit PatientRegistered(_fullName, _age, _sex);\n        return true;\n    }\n\n    function getPatientData(address _patientId)\n        public\n        view\n        returns (\n            string memory fullName,\n            uint256 age,\n            string memory sex\n        )\n    {\n        Patient memory patientData = patientDataOf[_patientId];\n\n        return (patientData.fullName, patientData.age, patientData.sex);\n    }\n\n    function registerDoctor(\n        string memory _fullName,\n        string memory _hospitalName,\n        string memory _specialization\n    ) public returns (bool success) {\n        require(\n            bytes(doctorDataOf[msg.sender].fullName).length <= 0,\n            \"Registration already exists\"\n        );\n        require(bytes(_fullName).length > 0, \"Name should not empty\");\n        require(\n            bytes(_hospitalName).length > 0,\n            \"Hospital Name should not empty\"\n        );\n        require(\n            bytes(_specialization).length > 0,\n            \"Specialization should not empty\"\n        );\n\n        Doctor storage newDoctor = doctorDataOf[msg.sender];\n        newDoctor.fullName = _fullName;\n        newDoctor.hospitalName = _hospitalName;\n        newDoctor.specialization = _specialization;\n        newDoctor.createdDate = block.timestamp;\n\n        emit DoctorRegistered(_fullName, _hospitalName, _specialization);\n\n        return true;\n    }\n\n    function requestForPatientAccess(address _patientId)\n        public\n        onlyDoctor\n        returns (bool success)\n    {\n        require(\n            bytes(patientDataOf[_patientId].fullName).length > 0,\n            \"No patient found with this id\"\n        );\n        require(\n            checkItemInsideAddress(\n                patientDataOf[_patientId].allowedDoctors,\n                msg.sender\n            ) < 0,\n            \"Approval already exists\"\n        );\n        require(\n            checkItemInsideAddress(\n                patientDataOf[_patientId].requestedDoctors,\n                msg.sender\n            ) < 0,\n            \"Request already exists\"\n        );\n\n        patientDataOf[_patientId].requestedDoctors.push(msg.sender);\n\n        return true;\n    }\n\n    function getDoctorRequests()\n        public\n        view\n        onlyPatient\n        returns (address[] memory requestedDoctors)\n    {\n        Patient storage patientData = patientDataOf[msg.sender];\n\n        return patientData.requestedDoctors;\n    }\n\n    // TODO: Accept request from Doctor\n    function reviewDoctorRequest(address _doctorId, bool _isAllowed)\n        public\n        onlyPatient\n        returns (bool success)\n    {\n        int256 pos = checkItemInsideAddress(\n            patientDataOf[msg.sender].requestedDoctors,\n            _doctorId\n        );\n        require(pos >= 0, \"The request does not exists\");\n\n        if (_isAllowed == true) {\n            patientDataOf[msg.sender].allowedDoctors.push(_doctorId);\n        }\n\n        // Deleting this request from array\n        Patient storage patientData = patientDataOf[msg.sender];\n        for (\n            uint256 i = uint256(pos);\n            i < patientData.requestedDoctors.length - 1;\n            i++\n        ) {\n            patientData.requestedDoctors[i] = patientData.requestedDoctors[\n                i + 1\n            ];\n        }\n        patientData.requestedDoctors.pop();\n\n        return true;\n    }\n\n    function revokePermission(address _doctorId)\n        public\n        onlyPatient\n        returns (bool success)\n    {\n        int256 pos = checkItemInsideAddress(\n            patientDataOf[msg.sender].allowedDoctors,\n            _doctorId\n        );\n        require(pos >= 0, \"The permission does not exists\");\n\n        // Deleting this permission from array\n        Patient storage patientData = patientDataOf[msg.sender];\n        for (\n            uint256 i = uint256(pos);\n            i < patientData.allowedDoctors.length - 1;\n            i++\n        ) {\n            patientData.allowedDoctors[i] = patientData.allowedDoctors[i + 1];\n        }\n        patientData.allowedDoctors.pop();\n\n        return true;\n    }\n\n    function getPatientHealth(address _patientId)\n        public\n        view\n        returns (\n            string memory fullName,\n            uint256 age,\n            string memory sex,\n            uint256 createdDate,\n            Prescription[] memory prescriptionNotes\n        )\n    {\n        require(\n            checkItemInsideAddress(\n                patientDataOf[_patientId].allowedDoctors,\n                msg.sender\n            ) >= 0,\n            \"You are not allowed to access\"\n        );\n\n        Patient storage patientData = patientDataOf[_patientId];\n\n        return (\n            patientData.fullName,\n            patientData.age,\n            patientData.sex,\n            patientData.createdDate,\n            patientData.prescriptionNotes\n        );\n    }\n\n    function addPrescription(address _patientId, string memory _note)\n        public\n        returns (bool success)\n    {\n        require(bytes(_note).length > 0, \"Notes Should not empty\");\n        require(\n            checkItemInsideAddress(\n                patientDataOf[_patientId].allowedDoctors,\n                msg.sender\n            ) >= 0,\n            \"You are not allowed to access\"\n        );\n        Prescription memory newPrescription = Prescription(\n            _note,\n            block.timestamp,\n            payable(msg.sender)\n        );\n        Patient storage patientData = patientDataOf[_patientId];\n        patientData.prescriptionNotes.push(newPrescription);\n\n        return true;\n    }\n}\n\nfunction checkItemInsideAddress(address[] memory _addressList, address _element)\n    pure\n    returns (int256 pos)\n{\n    int256 _pos = -1;\n\n    for (uint256 i = 0; i < _addressList.length; i++) {\n        if (_element == _addressList[i]) {\n            _pos = int256(i);\n            break;\n        }\n    }\n\n    return _pos;\n}\n",
  "sourcePath": "/Users/z3r0c00l-2k/Documents/Projects/Hobbies/health-chain/smartcontracts/contracts/HealthChain.sol",
  "compiler": {
    "name": "solc",
    "version": "0.8.9+commit.e5eed63a.Emscripten.clang"
  },
  "schemaVersion": "3.4.3",
  "updatedAt": "2021-11-22T07:51:44.755Z",
  "networkType": "ethereum",
  "devdoc": {
    "kind": "dev",
    "methods": {},
    "version": 1
  },
  "userdoc": {
    "kind": "user",
    "methods": {},
    "version": 1
  }
}