{
  "contractName": "HealthChain",
  "abi": [
    {
      "inputs": [],
      "stateMutability": "nonpayable",
      "type": "constructor"
    },
    {
      "anonymous": false,
      "inputs": [
        {
          "indexed": false,
          "internalType": "string",
          "name": "fullName",
          "type": "string"
        },
        {
          "indexed": false,
          "internalType": "string",
          "name": "hospitalName",
          "type": "string"
        },
        {
          "indexed": false,
          "internalType": "string",
          "name": "specialization",
          "type": "string"
        }
      ],
      "name": "DoctorRegistered",
      "type": "event"
    },
    {
      "anonymous": false,
      "inputs": [
        {
          "indexed": false,
          "internalType": "string",
          "name": "fullName",
          "type": "string"
        },
        {
          "indexed": false,
          "internalType": "uint256",
          "name": "age",
          "type": "uint256"
        },
        {
          "indexed": false,
          "internalType": "string",
          "name": "sex",
          "type": "string"
        }
      ],
      "name": "PatientRegistered",
      "type": "event"
    },
    {
      "inputs": [
        {
          "internalType": "address",
          "name": "",
          "type": "address"
        }
      ],
      "name": "doctorDataOf",
      "outputs": [
        {
          "internalType": "address payable",
          "name": "doctorId",
          "type": "address"
        },
        {
          "internalType": "string",
          "name": "fullName",
          "type": "string"
        },
        {
          "internalType": "string",
          "name": "hospitalName",
          "type": "string"
        },
        {
          "internalType": "string",
          "name": "specialization",
          "type": "string"
        },
        {
          "internalType": "uint256",
          "name": "createdDate",
          "type": "uint256"
        }
      ],
      "stateMutability": "view",
      "type": "function",
      "constant": true
    },
    {
      "inputs": [],
      "name": "name",
      "outputs": [
        {
          "internalType": "string",
          "name": "",
          "type": "string"
        }
      ],
      "stateMutability": "view",
      "type": "function",
      "constant": true
    },
    {
      "inputs": [],
      "name": "version",
      "outputs": [
        {
          "internalType": "string",
          "name": "",
          "type": "string"
        }
      ],
      "stateMutability": "view",
      "type": "function",
      "constant": true
    },
    {
      "inputs": [
        {
          "internalType": "string",
          "name": "_fullName",
          "type": "string"
        },
        {
          "internalType": "uint256",
          "name": "_age",
          "type": "uint256"
        },
        {
          "internalType": "string",
          "name": "_sex",
          "type": "string"
        }
      ],
      "name": "registerPatient",
      "outputs": [
        {
          "internalType": "bool",
          "name": "success",
          "type": "bool"
        }
      ],
      "stateMutability": "nonpayable",
      "type": "function"
    },
    {
      "inputs": [
        {
          "internalType": "address",
          "name": "_patientId",
          "type": "address"
        }
      ],
      "name": "getPatientData",
      "outputs": [
        {
          "internalType": "string",
          "name": "fullName",
          "type": "string"
        },
        {
          "internalType": "uint256",
          "name": "age",
          "type": "uint256"
        },
        {
          "internalType": "string",
          "name": "sex",
          "type": "string"
        }
      ],
      "stateMutability": "view",
      "type": "function",
      "constant": true
    },
    {
      "inputs": [],
      "name": "getUserData",
      "outputs": [
        {
          "internalType": "string",
          "name": "fullName",
          "type": "string"
        },
        {
          "internalType": "bool",
          "name": "isDoctor",
          "type": "bool"
        },
        {
          "internalType": "string",
          "name": "hospitalName",
          "type": "string"
        },
        {
          "internalType": "string",
          "name": "specialization",
          "type": "string"
        }
      ],
      "stateMutability": "view",
      "type": "function",
      "constant": true
    },
    {
      "inputs": [
        {
          "internalType": "string",
          "name": "_fullName",
          "type": "string"
        },
        {
          "internalType": "string",
          "name": "_hospitalName",
          "type": "string"
        },
        {
          "internalType": "string",
          "name": "_specialization",
          "type": "string"
        }
      ],
      "name": "registerDoctor",
      "outputs": [
        {
          "internalType": "bool",
          "name": "success",
          "type": "bool"
        }
      ],
      "stateMutability": "nonpayable",
      "type": "function"
    },
    {
      "inputs": [
        {
          "internalType": "address",
          "name": "_patientId",
          "type": "address"
        }
      ],
      "name": "requestForPatientAccess",
      "outputs": [
        {
          "internalType": "bool",
          "name": "success",
          "type": "bool"
        }
      ],
      "stateMutability": "nonpayable",
      "type": "function"
    },
    {
      "inputs": [],
      "name": "getDoctorRequests",
      "outputs": [
        {
          "internalType": "address[]",
          "name": "requestedDoctors",
          "type": "address[]"
        }
      ],
      "stateMutability": "view",
      "type": "function",
      "constant": true
    },
    {
      "inputs": [
        {
          "internalType": "address",
          "name": "_doctorId",
          "type": "address"
        },
        {
          "internalType": "bool",
          "name": "_isAllowed",
          "type": "bool"
        }
      ],
      "name": "reviewDoctorRequest",
      "outputs": [
        {
          "internalType": "bool",
          "name": "success",
          "type": "bool"
        }
      ],
      "stateMutability": "nonpayable",
      "type": "function"
    },
    {
      "inputs": [
        {
          "internalType": "address",
          "name": "_doctorId",
          "type": "address"
        }
      ],
      "name": "revokePermission",
      "outputs": [
        {
          "internalType": "bool",
          "name": "success",
          "type": "bool"
        }
      ],
      "stateMutability": "nonpayable",
      "type": "function"
    },
    {
      "inputs": [
        {
          "internalType": "address",
          "name": "_patientId",
          "type": "address"
        }
      ],
      "name": "getPatientHealth",
      "outputs": [
        {
          "internalType": "string",
          "name": "fullName",
          "type": "string"
        },
        {
          "internalType": "uint256",
          "name": "age",
          "type": "uint256"
        },
        {
          "internalType": "string",
          "name": "sex",
          "type": "string"
        },
        {
          "internalType": "uint256",
          "name": "createdDate",
          "type": "uint256"
        },
        {
          "components": [
            {
              "internalType": "string",
              "name": "note",
              "type": "string"
            },
            {
              "internalType": "uint256",
              "name": "timestamp",
              "type": "uint256"
            },
            {
              "internalType": "address payable",
              "name": "createdBy",
              "type": "address"
            }
          ],
          "internalType": "struct HealthChain.Prescription[]",
          "name": "prescriptionNotes",
          "type": "tuple[]"
        }
      ],
      "stateMutability": "view",
      "type": "function",
      "constant": true
    },
    {
      "inputs": [
        {
          "internalType": "address",
          "name": "_patientId",
          "type": "address"
        },
        {
          "internalType": "string",
          "name": "_note",
          "type": "string"
        }
      ],
      "name": "addPrescription",
      "outputs": [
        {
          "internalType": "bool",
          "name": "success",
          "type": "bool"
        }
      ],
      "stateMutability": "nonpayable",
      "type": "function"
    }
  ],
  "bytecode": "0x60806040526040518060400160405280600b81526020017f4865616c7468436861696e0000000000000000000000000000000000000000008152506000908051906020019062000051929190620000b4565b506040518060400160405280600381526020017f302e310000000000000000000000000000000000000000000000000000000000815250600190805190602001906200009f929190620000b4565b50348015620000ad57600080fd5b50620001c9565b828054620000c29062000193565b90600052602060002090601f016020900481019282620000e6576000855562000132565b82601f106200010157805160ff191683800117855562000132565b8280016001018555821562000132579182015b828111156200013157825182559160200191906001019062000114565b5b50905062000141919062000145565b5090565b5b808211156200016057600081600090555060010162000146565b5090565b7f4e487b7100000000000000000000000000000000000000000000000000000000600052602260045260246000fd5b60006002820490506001821680620001ac57607f821691505b60208210811415620001c357620001c262000164565b5b50919050565b613bf280620001d96000396000f3fe608060405234801561001057600080fd5b50600436106100ec576000357c01000000000000000000000000000000000000000000000000000000009004806348e81852116100a9578063a3bf5b9a11610083578063a3bf5b9a14610262578063a3e12bc014610292578063b567754d146102c2578063c10c8925146102f2576100ec565b806348e81852146101e257806350c7a9121461021457806354fd4d5014610244576100ec565b806305b1c356146100f157806306fdde031461010f5780631d14c36e1461012d57806322e8c87d1461015d5780633734416c1461017e57806346deb2fe146101b2575b600080fd5b6100f9610326565b6040516101069190612b5d565b60405180910390f35b61011761048b565b6040516101249190612c18565b60405180910390f35b61014760048036038101906101429190612db9565b610519565b6040516101549190612e5f565b60405180910390f35b610165610745565b6040516101759493929190612e7a565b60405180910390f35b61019860048036038101906101939190612f00565b610eb0565b6040516101a99594939291906130c8565b60405180910390f35b6101cc60048036038101906101c79190612f00565b61129d565b6040516101d99190612e5f565b60405180910390f35b6101fc60048036038101906101f79190612f00565b611690565b60405161020b93929190613130565b60405180910390f35b61022e60048036038101906102299190613175565b611afd565b60405161023b9190612e5f565b60405180910390f35b61024c611d3a565b6040516102599190612c18565b60405180910390f35b61027c60048036038101906102779190612f00565b611dc8565b6040516102899190612e5f565b60405180910390f35b6102ac60048036038101906102a7919061321c565b6120e9565b6040516102b99190612e5f565b60405180910390f35b6102dc60048036038101906102d791906132a4565b612363565b6040516102e99190612e5f565b60405180910390f35b61030c60048036038101906103079190612f00565b612736565b60405161031d9594939291906132f3565b60405180910390f35b60606000600260003373ffffffffffffffffffffffffffffffffffffffff1673ffffffffffffffffffffffffffffffffffffffff16815260200190815260200160002060010180546103779061338a565b9050116103b9576040517f08c379a00000000000000000000000000000000000000000000000000000000081526004016103b090613408565b60405180910390fd5b6000600260003373ffffffffffffffffffffffffffffffffffffffff1673ffffffffffffffffffffffffffffffffffffffff16815260200190815260200160002090508060050180548060200260200160405190810160405280929190818152602001828054801561048057602002820191906000526020600020905b8160009054906101000a900473ffffffffffffffffffffffffffffffffffffffff1673ffffffffffffffffffffffffffffffffffffffff1681526020019060010190808311610436575b505050505091505090565b600080546104989061338a565b80601f01602080910402602001604051908101604052809291908181526020018280546104c49061338a565b80156105115780601f106104e657610100808354040283529160200191610511565b820191906000526020600020905b8154815290600101906020018083116104f457829003601f168201915b505050505081565b600080600260003373ffffffffffffffffffffffffffffffffffffffff1673ffffffffffffffffffffffffffffffffffffffff16815260200190815260200160002060010180546105699061338a565b905011156105ac576040517f08c379a00000000000000000000000000000000000000000000000000000000081526004016105a390613474565b60405180910390fd5b60008451116105f0576040517f08c379a00000000000000000000000000000000000000000000000000000000081526004016105e7906134e0565b60405180910390fd5b60008311610633576040517f08c379a000000000000000000000000000000000000000000000000000000000815260040161062a9061354c565b60405180910390fd5b6000825111610677576040517f08c379a000000000000000000000000000000000000000000000000000000000815260040161066e906135b8565b60405180910390fd5b6000600260003373ffffffffffffffffffffffffffffffffffffffff1673ffffffffffffffffffffffffffffffffffffffff1681526020019081526020016000209050848160010190805190602001906106d29291906129ca565b50838160020181905550828160030190805190602001906106f49291906129ca565b504281600401819055507fb36df68004bfda39fb94d7b871103e2b4b5797c46e2e023f1e428145414b678185858560405161073193929190613130565b60405180910390a160019150509392505050565b606060006060806000600260003373ffffffffffffffffffffffffffffffffffffffff1673ffffffffffffffffffffffffffffffffffffffff168152602001908152602001600020604051806101000160405290816000820160009054906101000a900473ffffffffffffffffffffffffffffffffffffffff1673ffffffffffffffffffffffffffffffffffffffff1673ffffffffffffffffffffffffffffffffffffffff1681526020016001820180546107ff9061338a565b80601f016020809104026020016040519081016040528092919081815260200182805461082b9061338a565b80156108785780601f1061084d57610100808354040283529160200191610878565b820191906000526020600020905b81548152906001019060200180831161085b57829003601f168201915b505050505081526020016002820154815260200160038201805461089b9061338a565b80601f01602080910402602001604051908101604052809291908181526020018280546108c79061338a565b80156109145780601f106108e957610100808354040283529160200191610914565b820191906000526020600020905b8154815290600101906020018083116108f757829003601f168201915b5050505050815260200160048201548152602001600582018054806020026020016040519081016040528092919081815260200182805480156109ac57602002820191906000526020600020905b8160009054906101000a900473ffffffffffffffffffffffffffffffffffffffff1673ffffffffffffffffffffffffffffffffffffffff1681526020019060010190808311610962575b5050505050815260200160068201805480602002602001604051908101604052809291908181526020018280548015610a3a57602002820191906000526020600020905b8160009054906101000a900473ffffffffffffffffffffffffffffffffffffffff1673ffffffffffffffffffffffffffffffffffffffff16815260200190600101908083116109f0575b5050505050815260200160078201805480602002602001604051908101604052809291908181526020016000905b82821015610b8c5783829060005260206000209060030201604051806060016040529081600082018054610a9b9061338a565b80601f0160208091040260200160405190810160405280929190818152602001828054610ac79061338a565b8015610b145780601f10610ae957610100808354040283529160200191610b14565b820191906000526020600020905b815481529060010190602001808311610af757829003601f168201915b50505050508152602001600182015481526020016002820160009054906101000a900473ffffffffffffffffffffffffffffffffffffffff1673ffffffffffffffffffffffffffffffffffffffff1673ffffffffffffffffffffffffffffffffffffffff168152505081526020019060010190610a68565b505050508152505090506000600360003373ffffffffffffffffffffffffffffffffffffffff1673ffffffffffffffffffffffffffffffffffffffff1681526020019081526020016000206040518060a00160405290816000820160009054906101000a900473ffffffffffffffffffffffffffffffffffffffff1673ffffffffffffffffffffffffffffffffffffffff1673ffffffffffffffffffffffffffffffffffffffff168152602001600182018054610c489061338a565b80601f0160208091040260200160405190810160405280929190818152602001828054610c749061338a565b8015610cc15780601f10610c9657610100808354040283529160200191610cc1565b820191906000526020600020905b815481529060010190602001808311610ca457829003601f168201915b50505050508152602001600282018054610cda9061338a565b80601f0160208091040260200160405190810160405280929190818152602001828054610d069061338a565b8015610d535780601f10610d2857610100808354040283529160200191610d53565b820191906000526020600020905b815481529060010190602001808311610d3657829003601f168201915b50505050508152602001600382018054610d6c9061338a565b80601f0160208091040260200160405190810160405280929190818152602001828054610d989061338a565b8015610de55780601f10610dba57610100808354040283529160200191610de5565b820191906000526020600020905b815481529060010190602001808311610dc857829003601f168201915b50505050508152602001600482015481525050905060008260200151511115610e3e5781602001516000604051806020016040528060008152506040518060200160405280600081525095509550955095505050610eaa565b60008160200151511115610e6c57806020015160018260400151836060015195509550955095505050610eaa565b600060405180602001604052806000815250906040518060200160405280600081525060405180602001604052806000815250955095509550955050505b90919293565b606060006060600060606000610f8c600260008973ffffffffffffffffffffffffffffffffffffffff1673ffffffffffffffffffffffffffffffffffffffff168152602001908152602001600020600601805480602002602001604051908101604052809291908181526020018280548015610f8157602002820191906000526020600020905b8160009054906101000a900473ffffffffffffffffffffffffffffffffffffffff1673ffffffffffffffffffffffffffffffffffffffff1681526020019060010190808311610f37575b505050505033612924565b1215610fcd576040517f08c379a0000000000000000000000000000000000000000000000000000000008152600401610fc490613624565b60405180910390fd5b6000600260008873ffffffffffffffffffffffffffffffffffffffff1673ffffffffffffffffffffffffffffffffffffffff1681526020019081526020016000209050806001018160020154826003018360040154846007018480546110329061338a565b80601f016020809104026020016040519081016040528092919081815260200182805461105e9061338a565b80156110ab5780601f10611080576101008083540402835291602001916110ab565b820191906000526020600020905b81548152906001019060200180831161108e57829003601f168201915b505050505094508280546110be9061338a565b80601f01602080910402602001604051908101604052809291908181526020018280546110ea9061338a565b80156111375780601f1061110c57610100808354040283529160200191611137565b820191906000526020600020905b81548152906001019060200180831161111a57829003601f168201915b5050505050925080805480602002602001604051908101604052809291908181526020016000905b8282101561128357838290600052602060002090600302016040518060600160405290816000820180546111929061338a565b80601f01602080910402602001604051908101604052809291908181526020018280546111be9061338a565b801561120b5780601f106111e05761010080835404028352916020019161120b565b820191906000526020600020905b8154815290600101906020018083116111ee57829003601f168201915b50505050508152602001600182015481526020016002820160009054906101000a900473ffffffffffffffffffffffffffffffffffffffff1673ffffffffffffffffffffffffffffffffffffffff1673ffffffffffffffffffffffffffffffffffffffff16815250508152602001906001019061115f565b505050509050955095509550955095505091939590929450565b600080600360003373ffffffffffffffffffffffffffffffffffffffff1673ffffffffffffffffffffffffffffffffffffffff16815260200190815260200160002060010180546112ed9061338a565b90501161132f576040517f08c379a000000000000000000000000000000000000000000000000000000000815260040161132690613690565b60405180910390fd5b6000600260008473ffffffffffffffffffffffffffffffffffffffff1673ffffffffffffffffffffffffffffffffffffffff168152602001908152602001600020600101805461137e9061338a565b9050116113c0576040517f08c379a00000000000000000000000000000000000000000000000000000000081526004016113b7906136fc565b60405180910390fd5b6000611492600260008573ffffffffffffffffffffffffffffffffffffffff1673ffffffffffffffffffffffffffffffffffffffff16815260200190815260200160002060060180548060200260200160405190810160405280929190818152602001828054801561148757602002820191906000526020600020905b8160009054906101000a900473ffffffffffffffffffffffffffffffffffffffff1673ffffffffffffffffffffffffffffffffffffffff168152602001906001019080831161143d575b505050505033612924565b126114d2576040517f08c379a00000000000000000000000000000000000000000000000000000000081526004016114c990613768565b60405180910390fd5b60006115a4600260008573ffffffffffffffffffffffffffffffffffffffff1673ffffffffffffffffffffffffffffffffffffffff16815260200190815260200160002060050180548060200260200160405190810160405280929190818152602001828054801561159957602002820191906000526020600020905b8160009054906101000a900473ffffffffffffffffffffffffffffffffffffffff1673ffffffffffffffffffffffffffffffffffffffff168152602001906001019080831161154f575b505050505033612924565b126115e4576040517f08c379a00000000000000000000000000000000000000000000000000000000081526004016115db906137d4565b60405180910390fd5b600260008373ffffffffffffffffffffffffffffffffffffffff1673ffffffffffffffffffffffffffffffffffffffff168152602001908152602001600020600501339080600181540180825580915050600190039060005260206000200160009091909190916101000a81548173ffffffffffffffffffffffffffffffffffffffff021916908373ffffffffffffffffffffffffffffffffffffffff16021790555060019050919050565b6060600060606000600260008673ffffffffffffffffffffffffffffffffffffffff1673ffffffffffffffffffffffffffffffffffffffff168152602001908152602001600020604051806101000160405290816000820160009054906101000a900473ffffffffffffffffffffffffffffffffffffffff1673ffffffffffffffffffffffffffffffffffffffff1673ffffffffffffffffffffffffffffffffffffffff1681526020016001820180546117499061338a565b80601f01602080910402602001604051908101604052809291908181526020018280546117759061338a565b80156117c25780601f10611797576101008083540402835291602001916117c2565b820191906000526020600020905b8154815290600101906020018083116117a557829003601f168201915b50505050508152602001600282015481526020016003820180546117e59061338a565b80601f01602080910402602001604051908101604052809291908181526020018280546118119061338a565b801561185e5780601f106118335761010080835404028352916020019161185e565b820191906000526020600020905b81548152906001019060200180831161184157829003601f168201915b5050505050815260200160048201548152602001600582018054806020026020016040519081016040528092919081815260200182805480156118f657602002820191906000526020600020905b8160009054906101000a900473ffffffffffffffffffffffffffffffffffffffff1673ffffffffffffffffffffffffffffffffffffffff16815260200190600101908083116118ac575b505050505081526020016006820180548060200260200160405190810160405280929190818152602001828054801561198457602002820191906000526020600020905b8160009054906101000a900473ffffffffffffffffffffffffffffffffffffffff1673ffffffffffffffffffffffffffffffffffffffff168152602001906001019080831161193a575b5050505050815260200160078201805480602002602001604051908101604052809291908181526020016000905b82821015611ad657838290600052602060002090600302016040518060600160405290816000820180546119e59061338a565b80601f0160208091040260200160405190810160405280929190818152602001828054611a119061338a565b8015611a5e5780601f10611a3357610100808354040283529160200191611a5e565b820191906000526020600020905b815481529060010190602001808311611a4157829003601f168201915b50505050508152602001600182015481526020016002820160009054906101000a900473ffffffffffffffffffffffffffffffffffffffff1673ffffffffffffffffffffffffffffffffffffffff1673ffffffffffffffffffffffffffffffffffffffff1681525050815260200190600101906119b2565b50505050815250509050806020015181604001518260600151935093509350509193909250565b600080600360003373ffffffffffffffffffffffffffffffffffffffff1673ffffffffffffffffffffffffffffffffffffffff1681526020019081526020016000206001018054611b4d9061338a565b90501115611b90576040517f08c379a0000000000000000000000000000000000000000000000000000000008152600401611b8790613474565b60405180910390fd5b6000845111611bd4576040517f08c379a0000000000000000000000000000000000000000000000000000000008152600401611bcb906134e0565b60405180910390fd5b6000835111611c18576040517f08c379a0000000000000000000000000000000000000000000000000000000008152600401611c0f90613840565b60405180910390fd5b6000825111611c5c576040517f08c379a0000000000000000000000000000000000000000000000000000000008152600401611c53906138ac565b60405180910390fd5b6000600360003373ffffffffffffffffffffffffffffffffffffffff1673ffffffffffffffffffffffffffffffffffffffff168152602001908152602001600020905084816001019080519060200190611cb79291906129ca565b5083816002019080519060200190611cd09291906129ca565b5082816003019080519060200190611ce99291906129ca565b504281600401819055507f1187c17101d2ad9d5a17b4990710f2be353a26783d7627f24824dd75475ddea2858585604051611d26939291906138cc565b60405180910390a160019150509392505050565b60018054611d479061338a565b80601f0160208091040260200160405190810160405280929190818152602001828054611d739061338a565b8015611dc05780601f10611d9557610100808354040283529160200191611dc0565b820191906000526020600020905b815481529060010190602001808311611da357829003601f168201915b505050505081565b600080600260003373ffffffffffffffffffffffffffffffffffffffff1673ffffffffffffffffffffffffffffffffffffffff1681526020019081526020016000206001018054611e189061338a565b905011611e5a576040517f08c379a0000000000000000000000000000000000000000000000000000000008152600401611e5190613408565b60405180910390fd5b6000611f2c600260003373ffffffffffffffffffffffffffffffffffffffff1673ffffffffffffffffffffffffffffffffffffffff168152602001908152602001600020600601805480602002602001604051908101604052809291908181526020018280548015611f2157602002820191906000526020600020905b8160009054906101000a900473ffffffffffffffffffffffffffffffffffffffff1673ffffffffffffffffffffffffffffffffffffffff1681526020019060010190808311611ed7575b505050505084612924565b90506000811215611f72576040517f08c379a0000000000000000000000000000000000000000000000000000000008152600401611f6990613964565b60405180910390fd5b6000600260003373ffffffffffffffffffffffffffffffffffffffff1673ffffffffffffffffffffffffffffffffffffffff168152602001908152602001600020905060008290505b60018260060180549050611fcf91906139b3565b8110156120945781600601600182611fe791906139e7565b81548110611ff857611ff7613a3d565b5b9060005260206000200160009054906101000a900473ffffffffffffffffffffffffffffffffffffffff1682600601828154811061203957612038613a3d565b5b9060005260206000200160006101000a81548173ffffffffffffffffffffffffffffffffffffffff021916908373ffffffffffffffffffffffffffffffffffffffff160217905550808061208c90613a6c565b915050611fbb565b50806006018054806120a9576120a8613ab5565b5b6001900381819060005260206000200160006101000a81549073ffffffffffffffffffffffffffffffffffffffff02191690559055600192505050919050565b60008082511161212e576040517f08c379a000000000000000000000000000000000000000000000000000000000815260040161212590613b30565b60405180910390fd5b6000612200600260008673ffffffffffffffffffffffffffffffffffffffff1673ffffffffffffffffffffffffffffffffffffffff1681526020019081526020016000206006018054806020026020016040519081016040528092919081815260200182805480156121f557602002820191906000526020600020905b8160009054906101000a900473ffffffffffffffffffffffffffffffffffffffff1673ffffffffffffffffffffffffffffffffffffffff16815260200190600101908083116121ab575b505050505033612924565b1215612241576040517f08c379a000000000000000000000000000000000000000000000000000000000815260040161223890613624565b60405180910390fd5b600060405180606001604052808481526020014281526020013373ffffffffffffffffffffffffffffffffffffffff1681525090506000600260008673ffffffffffffffffffffffffffffffffffffffff1673ffffffffffffffffffffffffffffffffffffffff16815260200190815260200160002090508060070182908060018154018082558091505060019003906000526020600020906003020160009091909190915060008201518160000190805190602001906123039291906129ca565b506020820151816001015560408201518160020160006101000a81548173ffffffffffffffffffffffffffffffffffffffff021916908373ffffffffffffffffffffffffffffffffffffffff160217905550505060019250505092915050565b600080600260003373ffffffffffffffffffffffffffffffffffffffff1673ffffffffffffffffffffffffffffffffffffffff16815260200190815260200160002060010180546123b39061338a565b9050116123f5576040517f08c379a00000000000000000000000000000000000000000000000000000000081526004016123ec90613408565b60405180910390fd5b60006124c7600260003373ffffffffffffffffffffffffffffffffffffffff1673ffffffffffffffffffffffffffffffffffffffff1681526020019081526020016000206005018054806020026020016040519081016040528092919081815260200182805480156124bc57602002820191906000526020600020905b8160009054906101000a900473ffffffffffffffffffffffffffffffffffffffff1673ffffffffffffffffffffffffffffffffffffffff1681526020019060010190808311612472575b505050505085612924565b9050600081121561250d576040517f08c379a000000000000000000000000000000000000000000000000000000000815260040161250490613b9c565b60405180910390fd5b6001151583151514156125be57600260003373ffffffffffffffffffffffffffffffffffffffff1673ffffffffffffffffffffffffffffffffffffffff168152602001908152602001600020600601849080600181540180825580915050600190039060005260206000200160009091909190916101000a81548173ffffffffffffffffffffffffffffffffffffffff021916908373ffffffffffffffffffffffffffffffffffffffff1602179055505b6000600260003373ffffffffffffffffffffffffffffffffffffffff1673ffffffffffffffffffffffffffffffffffffffff168152602001908152602001600020905060008290505b6001826005018054905061261b91906139b3565b8110156126e0578160050160018261263391906139e7565b8154811061264457612643613a3d565b5b9060005260206000200160009054906101000a900473ffffffffffffffffffffffffffffffffffffffff1682600501828154811061268557612684613a3d565b5b9060005260206000200160006101000a81548173ffffffffffffffffffffffffffffffffffffffff021916908373ffffffffffffffffffffffffffffffffffffffff16021790555080806126d890613a6c565b915050612607565b50806005018054806126f5576126f4613ab5565b5b6001900381819060005260206000200160006101000a81549073ffffffffffffffffffffffffffffffffffffffff0219169055905560019250505092915050565b60036020528060005260406000206000915090508060000160009054906101000a900473ffffffffffffffffffffffffffffffffffffffff169080600101805461277f9061338a565b80601f01602080910402602001604051908101604052809291908181526020018280546127ab9061338a565b80156127f85780601f106127cd576101008083540402835291602001916127f8565b820191906000526020600020905b8154815290600101906020018083116127db57829003601f168201915b50505050509080600201805461280d9061338a565b80601f01602080910402602001604051908101604052809291908181526020018280546128399061338a565b80156128865780601f1061285b57610100808354040283529160200191612886565b820191906000526020600020905b81548152906001019060200180831161286957829003601f168201915b50505050509080600301805461289b9061338a565b80601f01602080910402602001604051908101604052809291908181526020018280546128c79061338a565b80156129145780601f106128e957610100808354040283529160200191612914565b820191906000526020600020905b8154815290600101906020018083116128f757829003601f168201915b5050505050908060040154905085565b6000807fffffffffffffffffffffffffffffffffffffffffffffffffffffffffffffffff905060005b84518110156129bf5784818151811061296957612968613a3d565b5b602002602001015173ffffffffffffffffffffffffffffffffffffffff168473ffffffffffffffffffffffffffffffffffffffff1614156129ac578091506129bf565b80806129b790613a6c565b91505061294d565b508091505092915050565b8280546129d69061338a565b90600052602060002090601f0160209004810192826129f85760008555612a3f565b82601f10612a1157805160ff1916838001178555612a3f565b82800160010185558215612a3f579182015b82811115612a3e578251825591602001919060010190612a23565b5b509050612a4c9190612a50565b5090565b5b80821115612a69576000816000905550600101612a51565b5090565b600081519050919050565b600082825260208201905092915050565b6000819050602082019050919050565b600073ffffffffffffffffffffffffffffffffffffffff82169050919050565b6000612ac482612a99565b9050919050565b612ad481612ab9565b82525050565b6000612ae68383612acb565b60208301905092915050565b6000602082019050919050565b6000612b0a82612a6d565b612b148185612a78565b9350612b1f83612a89565b8060005b83811015612b50578151612b378882612ada565b9750612b4283612af2565b925050600181019050612b23565b5085935050505092915050565b60006020820190508181036000830152612b778184612aff565b905092915050565b600081519050919050565b600082825260208201905092915050565b60005b83811015612bb9578082015181840152602081019050612b9e565b83811115612bc8576000848401525b50505050565b6000601f19601f8301169050919050565b6000612bea82612b7f565b612bf48185612b8a565b9350612c04818560208601612b9b565b612c0d81612bce565b840191505092915050565b60006020820190508181036000830152612c328184612bdf565b905092915050565b6000604051905090565b600080fd5b600080fd5b600080fd5b600080fd5b7f4e487b7100000000000000000000000000000000000000000000000000000000600052604160045260246000fd5b612c9082612bce565b810181811067ffffffffffffffff82111715612caf57612cae612c58565b5b80604052505050565b6000612cc2612c3a565b9050612cce8282612c87565b919050565b600067ffffffffffffffff821115612cee57612ced612c58565b5b612cf782612bce565b9050602081019050919050565b82818337600083830152505050565b6000612d26612d2184612cd3565b612cb8565b905082815260208101848484011115612d4257612d41612c53565b5b612d4d848285612d04565b509392505050565b600082601f830112612d6a57612d69612c4e565b5b8135612d7a848260208601612d13565b91505092915050565b6000819050919050565b612d9681612d83565b8114612da157600080fd5b50565b600081359050612db381612d8d565b92915050565b600080600060608486031215612dd257612dd1612c44565b5b600084013567ffffffffffffffff811115612df057612def612c49565b5b612dfc86828701612d55565b9350506020612e0d86828701612da4565b925050604084013567ffffffffffffffff811115612e2e57612e2d612c49565b5b612e3a86828701612d55565b9150509250925092565b60008115159050919050565b612e5981612e44565b82525050565b6000602082019050612e746000830184612e50565b92915050565b60006080820190508181036000830152612e948187612bdf565b9050612ea36020830186612e50565b8181036040830152612eb58185612bdf565b90508181036060830152612ec98184612bdf565b905095945050505050565b612edd81612ab9565b8114612ee857600080fd5b50565b600081359050612efa81612ed4565b92915050565b600060208284031215612f1657612f15612c44565b5b6000612f2484828501612eeb565b91505092915050565b612f3681612d83565b82525050565b600081519050919050565b600082825260208201905092915050565b6000819050602082019050919050565b600082825260208201905092915050565b6000612f8482612b7f565b612f8e8185612f68565b9350612f9e818560208601612b9b565b612fa781612bce565b840191505092915050565b612fbb81612d83565b82525050565b6000612fcc82612a99565b9050919050565b612fdc81612fc1565b82525050565b60006060830160008301518482036000860152612fff8282612f79565b91505060208301516130146020860182612fb2565b5060408301516130276040860182612fd3565b508091505092915050565b600061303e8383612fe2565b905092915050565b6000602082019050919050565b600061305e82612f3c565b6130688185612f47565b93508360208202850161307a85612f58565b8060005b858110156130b657848403895281516130978582613032565b94506130a283613046565b925060208a0199505060018101905061307e565b50829750879550505050505092915050565b600060a08201905081810360008301526130e28188612bdf565b90506130f16020830187612f2d565b81810360408301526131038186612bdf565b90506131126060830185612f2d565b81810360808301526131248184613053565b90509695505050505050565b6000606082019050818103600083015261314a8186612bdf565b90506131596020830185612f2d565b818103604083015261316b8184612bdf565b9050949350505050565b60008060006060848603121561318e5761318d612c44565b5b600084013567ffffffffffffffff8111156131ac576131ab612c49565b5b6131b886828701612d55565b935050602084013567ffffffffffffffff8111156131d9576131d8612c49565b5b6131e586828701612d55565b925050604084013567ffffffffffffffff81111561320657613205612c49565b5b61321286828701612d55565b9150509250925092565b6000806040838503121561323357613232612c44565b5b600061324185828601612eeb565b925050602083013567ffffffffffffffff81111561326257613261612c49565b5b61326e85828601612d55565b9150509250929050565b61328181612e44565b811461328c57600080fd5b50565b60008135905061329e81613278565b92915050565b600080604083850312156132bb576132ba612c44565b5b60006132c985828601612eeb565b92505060206132da8582860161328f565b9150509250929050565b6132ed81612fc1565b82525050565b600060a08201905061330860008301886132e4565b818103602083015261331a8187612bdf565b9050818103604083015261332e8186612bdf565b905081810360608301526133428185612bdf565b90506133516080830184612f2d565b9695505050505050565b7f4e487b7100000000000000000000000000000000000000000000000000000000600052602260045260246000fd5b600060028204905060018216806133a257607f821691505b602082108114156133b6576133b561335b565b5b50919050565b7f596f7520617265206e6f7420612070617469656e740000000000000000000000600082015250565b60006133f2601583612b8a565b91506133fd826133bc565b602082019050919050565b60006020820190508181036000830152613421816133e5565b9050919050565b7f526567697374726174696f6e20616c7265616479206578697374730000000000600082015250565b600061345e601b83612b8a565b915061346982613428565b602082019050919050565b6000602082019050818103600083015261348d81613451565b9050919050565b7f4e616d652073686f756c64206e6f7420656d7074790000000000000000000000600082015250565b60006134ca601583612b8a565b91506134d582613494565b602082019050919050565b600060208201905081810360008301526134f9816134bd565b9050919050565b7f4167652073686f756c64206e6f7420656d707479000000000000000000000000600082015250565b6000613536601483612b8a565b915061354182613500565b602082019050919050565b6000602082019050818103600083015261356581613529565b9050919050565b7f5365782073686f756c64206e6f7420656d707479000000000000000000000000600082015250565b60006135a2601483612b8a565b91506135ad8261356c565b602082019050919050565b600060208201905081810360008301526135d181613595565b9050919050565b7f596f7520617265206e6f7420616c6c6f77656420746f20616363657373000000600082015250565b600061360e601d83612b8a565b9150613619826135d8565b602082019050919050565b6000602082019050818103600083015261363d81613601565b9050919050565b7f596f752073686f756c64206265206120646f63746f7200000000000000000000600082015250565b600061367a601683612b8a565b915061368582613644565b602082019050919050565b600060208201905081810360008301526136a98161366d565b9050919050565b7f4e6f2070617469656e7420666f756e6420776974682074686973206964000000600082015250565b60006136e6601d83612b8a565b91506136f1826136b0565b602082019050919050565b60006020820190508181036000830152613715816136d9565b9050919050565b7f417070726f76616c20616c726561647920657869737473000000000000000000600082015250565b6000613752601783612b8a565b915061375d8261371c565b602082019050919050565b6000602082019050818103600083015261378181613745565b9050919050565b7f5265717565737420616c72656164792065786973747300000000000000000000600082015250565b60006137be601683612b8a565b91506137c982613788565b602082019050919050565b600060208201905081810360008301526137ed816137b1565b9050919050565b7f486f73706974616c204e616d652073686f756c64206e6f7420656d7074790000600082015250565b600061382a601e83612b8a565b9150613835826137f4565b602082019050919050565b600060208201905081810360008301526138598161381d565b9050919050565b7f5370656369616c697a6174696f6e2073686f756c64206e6f7420656d70747900600082015250565b6000613896601f83612b8a565b91506138a182613860565b602082019050919050565b600060208201905081810360008301526138c581613889565b9050919050565b600060608201905081810360008301526138e68186612bdf565b905081810360208301526138fa8185612bdf565b9050818103604083015261390e8184612bdf565b9050949350505050565b7f546865207065726d697373696f6e20646f6573206e6f74206578697374730000600082015250565b600061394e601e83612b8a565b915061395982613918565b602082019050919050565b6000602082019050818103600083015261397d81613941565b9050919050565b7f4e487b7100000000000000000000000000000000000000000000000000000000600052601160045260246000fd5b60006139be82612d83565b91506139c983612d83565b9250828210156139dc576139db613984565b5b828203905092915050565b60006139f282612d83565b91506139fd83612d83565b9250827fffffffffffffffffffffffffffffffffffffffffffffffffffffffffffffffff03821115613a3257613a31613984565b5b828201905092915050565b7f4e487b7100000000000000000000000000000000000000000000000000000000600052603260045260246000fd5b6000613a7782612d83565b91507fffffffffffffffffffffffffffffffffffffffffffffffffffffffffffffffff821415613aaa57613aa9613984565b5b600182019050919050565b7f4e487b7100000000000000000000000000000000000000000000000000000000600052603160045260246000fd5b7f4e6f7465732053686f756c64206e6f7420656d70747900000000000000000000600082015250565b6000613b1a601683612b8a565b9150613b2582613ae4565b602082019050919050565b60006020820190508181036000830152613b4981613b0d565b9050919050565b7f546865207265717565737420646f6573206e6f74206578697374730000000000600082015250565b6000613b86601b83612b8a565b9150613b9182613b50565b602082019050919050565b60006020820190508181036000830152613bb581613b79565b905091905056fea2646970667358221220945680df81d08bb7e2ecc68eb41451bfafbaa453930a58b49613bddb56d9b81c64736f6c63430008090033",
  "immutableReferences": {},
  "source": "// SPDX-License-Identifier: MIT\npragma solidity >=0.4.22 <0.9.0;\n\ncontract HealthChain {\n    string public name = \"HealthChain\";\n    string public version = \"0.1\";\n\n    struct Prescription {\n        string note;\n        uint256 timestamp;\n        address payable createdBy;\n    }\n\n    struct Patient {\n        address payable patientId;\n        string fullName;\n        uint256 age;\n        string sex;\n        uint256 createdDate;\n        address[] requestedDoctors;\n        address[] allowedDoctors;\n        Prescription[] prescriptionNotes;\n    }\n\n    struct Doctor {\n        address payable doctorId;\n        string fullName;\n        string hospitalName;\n        string specialization;\n        uint256 createdDate;\n    }\n\n    mapping(address => Patient) private patientDataOf;\n    mapping(address => Doctor) public doctorDataOf;\n\n    event PatientRegistered(string fullName, uint256 age, string sex);\n    event DoctorRegistered(\n        string fullName,\n        string hospitalName,\n        string specialization\n    );\n\n    constructor() {}\n\n    modifier onlyPatient() {\n        require(\n            bytes(patientDataOf[msg.sender].fullName).length > 0,\n            \"You are not a patient\"\n        );\n        _;\n    }\n    modifier onlyDoctor() {\n        require(\n            bytes(doctorDataOf[msg.sender].fullName).length > 0,\n            \"You should be a doctor\"\n        );\n        _;\n    }\n\n    function registerPatient(\n        string memory _fullName,\n        uint256 _age,\n        string memory _sex\n    ) public returns (bool success) {\n        require(\n            bytes(patientDataOf[msg.sender].fullName).length <= 0,\n            \"Registration already exists\"\n        );\n        require(bytes(_fullName).length > 0, \"Name should not empty\");\n        require(_age > 0, \"Age should not empty\");\n        require(bytes(_sex).length > 0, \"Sex should not empty\");\n\n        Patient storage newPatient = patientDataOf[msg.sender];\n        newPatient.fullName = _fullName;\n        newPatient.age = _age;\n        newPatient.sex = _sex;\n        newPatient.createdDate = block.timestamp;\n\n        emit PatientRegistered(_fullName, _age, _sex);\n        return true;\n    }\n\n    function getPatientData(address _patientId)\n        public\n        view\n        returns (\n            string memory fullName,\n            uint256 age,\n            string memory sex\n        )\n    {\n        Patient memory patientData = patientDataOf[_patientId];\n\n        return (patientData.fullName, patientData.age, patientData.sex);\n    }\n\n    function getUserData()\n        public\n        view\n        returns (\n            string memory fullName,\n            bool isDoctor,\n            string memory hospitalName,\n            string memory specialization\n        )\n    {\n        Patient memory patientData = patientDataOf[msg.sender];\n        Doctor memory doctorData = doctorDataOf[msg.sender];\n\n        if (bytes(patientData.fullName).length > 0) {\n            return (patientData.fullName, false, \"\", \"\");\n        }\n\n        if (bytes(doctorData.fullName).length > 0) {\n            return (\n                doctorData.fullName,\n                true,\n                doctorData.hospitalName,\n                doctorData.specialization\n            );\n        }\n\n        return (\"\", false, \"\", \"\");\n    }\n\n    function registerDoctor(\n        string memory _fullName,\n        string memory _hospitalName,\n        string memory _specialization\n    ) public returns (bool success) {\n        require(\n            bytes(doctorDataOf[msg.sender].fullName).length <= 0,\n            \"Registration already exists\"\n        );\n        require(bytes(_fullName).length > 0, \"Name should not empty\");\n        require(\n            bytes(_hospitalName).length > 0,\n            \"Hospital Name should not empty\"\n        );\n        require(\n            bytes(_specialization).length > 0,\n            \"Specialization should not empty\"\n        );\n\n        Doctor storage newDoctor = doctorDataOf[msg.sender];\n        newDoctor.fullName = _fullName;\n        newDoctor.hospitalName = _hospitalName;\n        newDoctor.specialization = _specialization;\n        newDoctor.createdDate = block.timestamp;\n\n        emit DoctorRegistered(_fullName, _hospitalName, _specialization);\n\n        return true;\n    }\n\n    function requestForPatientAccess(address _patientId)\n        public\n        onlyDoctor\n        returns (bool success)\n    {\n        require(\n            bytes(patientDataOf[_patientId].fullName).length > 0,\n            \"No patient found with this id\"\n        );\n        require(\n            checkItemInsideAddress(\n                patientDataOf[_patientId].allowedDoctors,\n                msg.sender\n            ) < 0,\n            \"Approval already exists\"\n        );\n        require(\n            checkItemInsideAddress(\n                patientDataOf[_patientId].requestedDoctors,\n                msg.sender\n            ) < 0,\n            \"Request already exists\"\n        );\n\n        patientDataOf[_patientId].requestedDoctors.push(msg.sender);\n\n        return true;\n    }\n\n    function getDoctorRequests()\n        public\n        view\n        onlyPatient\n        returns (address[] memory requestedDoctors)\n    {\n        Patient storage patientData = patientDataOf[msg.sender];\n\n        return patientData.requestedDoctors;\n    }\n\n    // TODO: Accept request from Doctor\n    function reviewDoctorRequest(address _doctorId, bool _isAllowed)\n        public\n        onlyPatient\n        returns (bool success)\n    {\n        int256 pos = checkItemInsideAddress(\n            patientDataOf[msg.sender].requestedDoctors,\n            _doctorId\n        );\n        require(pos >= 0, \"The request does not exists\");\n\n        if (_isAllowed == true) {\n            patientDataOf[msg.sender].allowedDoctors.push(_doctorId);\n        }\n\n        // Deleting this request from array\n        Patient storage patientData = patientDataOf[msg.sender];\n        for (\n            uint256 i = uint256(pos);\n            i < patientData.requestedDoctors.length - 1;\n            i++\n        ) {\n            patientData.requestedDoctors[i] = patientData.requestedDoctors[\n                i + 1\n            ];\n        }\n        patientData.requestedDoctors.pop();\n\n        return true;\n    }\n\n    function revokePermission(address _doctorId)\n        public\n        onlyPatient\n        returns (bool success)\n    {\n        int256 pos = checkItemInsideAddress(\n            patientDataOf[msg.sender].allowedDoctors,\n            _doctorId\n        );\n        require(pos >= 0, \"The permission does not exists\");\n\n        // Deleting this permission from array\n        Patient storage patientData = patientDataOf[msg.sender];\n        for (\n            uint256 i = uint256(pos);\n            i < patientData.allowedDoctors.length - 1;\n            i++\n        ) {\n            patientData.allowedDoctors[i] = patientData.allowedDoctors[i + 1];\n        }\n        patientData.allowedDoctors.pop();\n\n        return true;\n    }\n\n    function getPatientHealth(address _patientId)\n        public\n        view\n        returns (\n            string memory fullName,\n            uint256 age,\n            string memory sex,\n            uint256 createdDate,\n            Prescription[] memory prescriptionNotes\n        )\n    {\n        require(\n            checkItemInsideAddress(\n                patientDataOf[_patientId].allowedDoctors,\n                msg.sender\n            ) >= 0,\n            \"You are not allowed to access\"\n        );\n\n        Patient storage patientData = patientDataOf[_patientId];\n\n        return (\n            patientData.fullName,\n            patientData.age,\n            patientData.sex,\n            patientData.createdDate,\n            patientData.prescriptionNotes\n        );\n    }\n\n    function addPrescription(address _patientId, string memory _note)\n        public\n        returns (bool success)\n    {\n        require(bytes(_note).length > 0, \"Notes Should not empty\");\n        require(\n            checkItemInsideAddress(\n                patientDataOf[_patientId].allowedDoctors,\n                msg.sender\n            ) >= 0,\n            \"You are not allowed to access\"\n        );\n        Prescription memory newPrescription = Prescription(\n            _note,\n            block.timestamp,\n            payable(msg.sender)\n        );\n        Patient storage patientData = patientDataOf[_patientId];\n        patientData.prescriptionNotes.push(newPrescription);\n\n        return true;\n    }\n}\n\nfunction checkItemInsideAddress(address[] memory _addressList, address _element)\n    pure\n    returns (int256 pos)\n{\n    int256 _pos = -1;\n\n    for (uint256 i = 0; i < _addressList.length; i++) {\n        if (_element == _addressList[i]) {\n            _pos = int256(i);\n            break;\n        }\n    }\n\n    return _pos;\n}\n",
  "sourcePath": "/Users/z3r0c00l-2k/Documents/Projects/Hobbies/health-chain/smartcontracts/contracts/HealthChain.sol",
  "compiler": {
    "name": "solc",
    "version": "0.8.9+commit.e5eed63a.Emscripten.clang"
  },
  "schemaVersion": "3.4.3",
  "updatedAt": "2021-11-22T13:41:11.555Z",
  "networkType": "ethereum",
  "devdoc": {
    "kind": "dev",
    "methods": {},
    "version": 1
  },
  "userdoc": {
    "kind": "user",
    "methods": {},
    "version": 1
  }
}