{
  "contractName": "HealthChain",
  "abi": [
    {
      "inputs": [],
      "stateMutability": "nonpayable",
      "type": "constructor"
    },
    {
      "anonymous": false,
      "inputs": [
        {
          "indexed": false,
          "internalType": "string",
          "name": "fullName",
          "type": "string"
        },
        {
          "indexed": false,
          "internalType": "string",
          "name": "hospitalName",
          "type": "string"
        },
        {
          "indexed": false,
          "internalType": "string",
          "name": "specialization",
          "type": "string"
        }
      ],
      "name": "DoctorRegistered",
      "type": "event"
    },
    {
      "anonymous": false,
      "inputs": [
        {
          "indexed": false,
          "internalType": "string",
          "name": "fullName",
          "type": "string"
        },
        {
          "indexed": false,
          "internalType": "uint256",
          "name": "age",
          "type": "uint256"
        },
        {
          "indexed": false,
          "internalType": "string",
          "name": "sex",
          "type": "string"
        }
      ],
      "name": "PatientRegistered",
      "type": "event"
    },
    {
      "inputs": [
        {
          "internalType": "address",
          "name": "",
          "type": "address"
        }
      ],
      "name": "doctorDataOf",
      "outputs": [
        {
          "internalType": "address payable",
          "name": "doctorId",
          "type": "address"
        },
        {
          "internalType": "string",
          "name": "fullName",
          "type": "string"
        },
        {
          "internalType": "string",
          "name": "hospitalName",
          "type": "string"
        },
        {
          "internalType": "string",
          "name": "specialization",
          "type": "string"
        },
        {
          "internalType": "uint256",
          "name": "createdDate",
          "type": "uint256"
        }
      ],
      "stateMutability": "view",
      "type": "function",
      "constant": true
    },
    {
      "inputs": [],
      "name": "name",
      "outputs": [
        {
          "internalType": "string",
          "name": "",
          "type": "string"
        }
      ],
      "stateMutability": "view",
      "type": "function",
      "constant": true
    },
    {
      "inputs": [],
      "name": "version",
      "outputs": [
        {
          "internalType": "string",
          "name": "",
          "type": "string"
        }
      ],
      "stateMutability": "view",
      "type": "function",
      "constant": true
    },
    {
      "inputs": [
        {
          "internalType": "string",
          "name": "_fullName",
          "type": "string"
        },
        {
          "internalType": "uint256",
          "name": "_age",
          "type": "uint256"
        },
        {
          "internalType": "string",
          "name": "_sex",
          "type": "string"
        }
      ],
      "name": "registerPatient",
      "outputs": [
        {
          "internalType": "bool",
          "name": "success",
          "type": "bool"
        }
      ],
      "stateMutability": "nonpayable",
      "type": "function"
    },
    {
      "inputs": [
        {
          "internalType": "address",
          "name": "_patientId",
          "type": "address"
        }
      ],
      "name": "getPatientData",
      "outputs": [
        {
          "internalType": "string",
          "name": "fullName",
          "type": "string"
        },
        {
          "internalType": "uint256",
          "name": "age",
          "type": "uint256"
        },
        {
          "internalType": "string",
          "name": "sex",
          "type": "string"
        },
        {
          "internalType": "string",
          "name": "status",
          "type": "string"
        }
      ],
      "stateMutability": "view",
      "type": "function",
      "constant": true
    },
    {
      "inputs": [],
      "name": "getUserData",
      "outputs": [
        {
          "internalType": "string",
          "name": "fullName",
          "type": "string"
        },
        {
          "internalType": "bool",
          "name": "isDoctor",
          "type": "bool"
        },
        {
          "internalType": "string",
          "name": "hospitalName",
          "type": "string"
        },
        {
          "internalType": "string",
          "name": "specialization",
          "type": "string"
        }
      ],
      "stateMutability": "view",
      "type": "function",
      "constant": true
    },
    {
      "inputs": [
        {
          "internalType": "string",
          "name": "_fullName",
          "type": "string"
        },
        {
          "internalType": "string",
          "name": "_hospitalName",
          "type": "string"
        },
        {
          "internalType": "string",
          "name": "_specialization",
          "type": "string"
        }
      ],
      "name": "registerDoctor",
      "outputs": [
        {
          "internalType": "bool",
          "name": "success",
          "type": "bool"
        }
      ],
      "stateMutability": "nonpayable",
      "type": "function"
    },
    {
      "inputs": [
        {
          "internalType": "address",
          "name": "_patientId",
          "type": "address"
        }
      ],
      "name": "requestForPatientAccess",
      "outputs": [
        {
          "internalType": "bool",
          "name": "success",
          "type": "bool"
        }
      ],
      "stateMutability": "nonpayable",
      "type": "function"
    },
    {
      "inputs": [],
      "name": "getPatientDataByOwner",
      "outputs": [
        {
          "components": [
            {
              "internalType": "address payable",
              "name": "patientId",
              "type": "address"
            },
            {
              "internalType": "string",
              "name": "fullName",
              "type": "string"
            },
            {
              "internalType": "uint256",
              "name": "age",
              "type": "uint256"
            },
            {
              "internalType": "string",
              "name": "sex",
              "type": "string"
            },
            {
              "internalType": "uint256",
              "name": "createdDate",
              "type": "uint256"
            },
            {
              "internalType": "address[]",
              "name": "requestedDoctors",
              "type": "address[]"
            },
            {
              "internalType": "address[]",
              "name": "allowedDoctors",
              "type": "address[]"
            },
            {
              "components": [
                {
                  "internalType": "string",
                  "name": "note",
                  "type": "string"
                },
                {
                  "internalType": "uint256",
                  "name": "timestamp",
                  "type": "uint256"
                },
                {
                  "internalType": "address payable",
                  "name": "createdBy",
                  "type": "address"
                }
              ],
              "internalType": "struct HealthChain.Prescription[]",
              "name": "prescriptionNotes",
              "type": "tuple[]"
            }
          ],
          "internalType": "struct HealthChain.Patient",
          "name": "patientData",
          "type": "tuple"
        }
      ],
      "stateMutability": "view",
      "type": "function",
      "constant": true
    },
    {
      "inputs": [],
      "name": "getDoctorDataByOwner",
      "outputs": [
        {
          "components": [
            {
              "internalType": "address payable",
              "name": "doctorId",
              "type": "address"
            },
            {
              "internalType": "string",
              "name": "fullName",
              "type": "string"
            },
            {
              "internalType": "string",
              "name": "hospitalName",
              "type": "string"
            },
            {
              "internalType": "string",
              "name": "specialization",
              "type": "string"
            },
            {
              "internalType": "uint256",
              "name": "createdDate",
              "type": "uint256"
            },
            {
              "internalType": "address[]",
              "name": "patients",
              "type": "address[]"
            }
          ],
          "internalType": "struct HealthChain.Doctor",
          "name": "doctorData",
          "type": "tuple"
        }
      ],
      "stateMutability": "view",
      "type": "function",
      "constant": true
    },
    {
      "inputs": [
        {
          "internalType": "address",
          "name": "_doctorId",
          "type": "address"
        },
        {
          "internalType": "bool",
          "name": "_isAllowed",
          "type": "bool"
        }
      ],
      "name": "reviewDoctorRequest",
      "outputs": [
        {
          "internalType": "bool",
          "name": "success",
          "type": "bool"
        }
      ],
      "stateMutability": "nonpayable",
      "type": "function"
    },
    {
      "inputs": [
        {
          "internalType": "address",
          "name": "_doctorId",
          "type": "address"
        }
      ],
      "name": "revokePermission",
      "outputs": [
        {
          "internalType": "bool",
          "name": "success",
          "type": "bool"
        }
      ],
      "stateMutability": "nonpayable",
      "type": "function"
    },
    {
      "inputs": [
        {
          "internalType": "address",
          "name": "_patientId",
          "type": "address"
        }
      ],
      "name": "getPatientHealth",
      "outputs": [
        {
          "internalType": "string",
          "name": "fullName",
          "type": "string"
        },
        {
          "internalType": "uint256",
          "name": "age",
          "type": "uint256"
        },
        {
          "internalType": "string",
          "name": "sex",
          "type": "string"
        },
        {
          "internalType": "uint256",
          "name": "createdDate",
          "type": "uint256"
        },
        {
          "components": [
            {
              "internalType": "string",
              "name": "note",
              "type": "string"
            },
            {
              "internalType": "uint256",
              "name": "timestamp",
              "type": "uint256"
            },
            {
              "internalType": "address payable",
              "name": "createdBy",
              "type": "address"
            }
          ],
          "internalType": "struct HealthChain.Prescription[]",
          "name": "prescriptionNotes",
          "type": "tuple[]"
        }
      ],
      "stateMutability": "view",
      "type": "function",
      "constant": true
    },
    {
      "inputs": [
        {
          "internalType": "address",
          "name": "_patientId",
          "type": "address"
        },
        {
          "internalType": "string",
          "name": "_note",
          "type": "string"
        }
      ],
      "name": "addPrescription",
      "outputs": [
        {
          "internalType": "bool",
          "name": "success",
          "type": "bool"
        }
      ],
      "stateMutability": "nonpayable",
      "type": "function"
    }
  ],
  "bytecode": "0x60806040526040518060400160405280600b81526020017f4865616c7468436861696e0000000000000000000000000000000000000000008152506000908051906020019062000051929190620000b4565b506040518060400160405280600381526020017f302e310000000000000000000000000000000000000000000000000000000000815250600190805190602001906200009f929190620000b4565b50348015620000ad57600080fd5b50620001c9565b828054620000c29062000193565b90600052602060002090601f016020900481019282620000e6576000855562000132565b82601f106200010157805160ff191683800117855562000132565b8280016001018555821562000132579182015b828111156200013157825182559160200191906001019062000114565b5b50905062000141919062000145565b5090565b5b808211156200016057600081600090555060010162000146565b5090565b7f4e487b7100000000000000000000000000000000000000000000000000000000600052602260045260246000fd5b60006002820490506001821680620001ac57607f821691505b60208210811415620001c357620001c262000164565b5b50919050565b614bde80620001d96000396000f3fe608060405234801561001057600080fd5b5060043610610107576000357c01000000000000000000000000000000000000000000000000000000009004806350c7a912116100a9578063a3e12bc011610083578063a3e12bc0146102ae578063b567754d146102de578063c10c89251461030e578063ebecb6001461034257610107565b806350c7a9121461023057806354fd4d5014610260578063a3bf5b9a1461027e57610107565b806322e8c87d116100e557806322e8c87d146101785780633734416c1461019957806346deb2fe146101cd57806348e81852146101fd57610107565b806306fdde031461010c5780630c15fbe91461012a5780631d14c36e14610148575b600080fd5b610114610360565b6040516101219190613886565b60405180910390f35b6101326103ee565b60405161013f9190613bfa565b60405180910390f35b610162600480360381019061015d9190613d91565b6108d8565b60405161016f9190613e37565b60405180910390f35b610180610b47565b6040516101909493929190613e52565b60405180910390f35b6101b360048036038101906101ae9190613ed8565b611340565b6040516101c4959493929190613f9a565b60405180910390f35b6101e760048036038101906101e29190613ed8565b61172d565b6040516101f49190613e37565b60405180910390f35b61021760048036038101906102129190613ed8565b611b20565b6040516102279493929190614002565b60405180910390f35b61024a6004803603810190610245919061405c565b6121f1565b6040516102579190613e37565b60405180910390f35b610268612471565b6040516102759190613886565b60405180910390f35b61029860048036038101906102939190613ed8565b6124ff565b6040516102a59190613e37565b60405180910390f35b6102c860048036038101906102c39190614103565b61298d565b6040516102d59190613e37565b60405180910390f35b6102f860048036038101906102f3919061418b565b612c07565b6040516103059190613e37565b60405180910390f35b61032860048036038101906103239190613ed8565b61307d565b6040516103399594939291906141da565b60405180910390f35b61034a61326b565b60405161035791906142e0565b60405180910390f35b6000805461036d90614331565b80601f016020809104026020016040519081016040528092919081815260200182805461039990614331565b80156103e65780601f106103bb576101008083540402835291602001916103e6565b820191906000526020600020905b8154815290600101906020018083116103c957829003601f168201915b505050505081565b6103f66136a3565b6000600260003373ffffffffffffffffffffffffffffffffffffffff1673ffffffffffffffffffffffffffffffffffffffff168152602001908152602001600020600101805461044590614331565b905011610487576040517f08c379a000000000000000000000000000000000000000000000000000000000815260040161047e906143af565b60405180910390fd5b6000600260003373ffffffffffffffffffffffffffffffffffffffff1673ffffffffffffffffffffffffffffffffffffffff168152602001908152602001600020604051806101000160405290816000820160009054906101000a900473ffffffffffffffffffffffffffffffffffffffff1673ffffffffffffffffffffffffffffffffffffffff1673ffffffffffffffffffffffffffffffffffffffff16815260200160018201805461053a90614331565b80601f016020809104026020016040519081016040528092919081815260200182805461056690614331565b80156105b35780601f10610588576101008083540402835291602001916105b3565b820191906000526020600020905b81548152906001019060200180831161059657829003601f168201915b50505050508152602001600282015481526020016003820180546105d690614331565b80601f016020809104026020016040519081016040528092919081815260200182805461060290614331565b801561064f5780601f106106245761010080835404028352916020019161064f565b820191906000526020600020905b81548152906001019060200180831161063257829003601f168201915b5050505050815260200160048201548152602001600582018054806020026020016040519081016040528092919081815260200182805480156106e757602002820191906000526020600020905b8160009054906101000a900473ffffffffffffffffffffffffffffffffffffffff1673ffffffffffffffffffffffffffffffffffffffff168152602001906001019080831161069d575b505050505081526020016006820180548060200260200160405190810160405280929190818152602001828054801561077557602002820191906000526020600020905b8160009054906101000a900473ffffffffffffffffffffffffffffffffffffffff1673ffffffffffffffffffffffffffffffffffffffff168152602001906001019080831161072b575b5050505050815260200160078201805480602002602001604051908101604052809291908181526020016000905b828210156108c757838290600052602060002090600302016040518060600160405290816000820180546107d690614331565b80601f016020809104026020016040519081016040528092919081815260200182805461080290614331565b801561084f5780601f106108245761010080835404028352916020019161084f565b820191906000526020600020905b81548152906001019060200180831161083257829003601f168201915b50505050508152602001600182015481526020016002820160009054906101000a900473ffffffffffffffffffffffffffffffffffffffff1673ffffffffffffffffffffffffffffffffffffffff1673ffffffffffffffffffffffffffffffffffffffff1681525050815260200190600101906107a3565b505050508152505090508091505090565b600080600260003373ffffffffffffffffffffffffffffffffffffffff1673ffffffffffffffffffffffffffffffffffffffff168152602001908152602001600020600101805461092890614331565b9050111561096b576040517f08c379a00000000000000000000000000000000000000000000000000000000081526004016109629061441b565b60405180910390fd5b60008451116109af576040517f08c379a00000000000000000000000000000000000000000000000000000000081526004016109a690614487565b60405180910390fd5b600083116109f2576040517f08c379a00000000000000000000000000000000000000000000000000000000081526004016109e9906144f3565b60405180910390fd5b6000825111610a36576040517f08c379a0000000000000000000000000000000000000000000000000000000008152600401610a2d9061455f565b60405180910390fd5b6000600260003373ffffffffffffffffffffffffffffffffffffffff1673ffffffffffffffffffffffffffffffffffffffff1681526020019081526020016000209050338160000160006101000a81548173ffffffffffffffffffffffffffffffffffffffff021916908373ffffffffffffffffffffffffffffffffffffffff16021790555084816001019080519060200190610ad49291906136fe565b5083816002018190555082816003019080519060200190610af69291906136fe565b504281600401819055507fb36df68004bfda39fb94d7b871103e2b4b5797c46e2e023f1e428145414b6781858585604051610b339392919061457f565b60405180910390a160019150509392505050565b606060006060806000600260003373ffffffffffffffffffffffffffffffffffffffff1673ffffffffffffffffffffffffffffffffffffffff168152602001908152602001600020604051806101000160405290816000820160009054906101000a900473ffffffffffffffffffffffffffffffffffffffff1673ffffffffffffffffffffffffffffffffffffffff1673ffffffffffffffffffffffffffffffffffffffff168152602001600182018054610c0190614331565b80601f0160208091040260200160405190810160405280929190818152602001828054610c2d90614331565b8015610c7a5780601f10610c4f57610100808354040283529160200191610c7a565b820191906000526020600020905b815481529060010190602001808311610c5d57829003601f168201915b5050505050815260200160028201548152602001600382018054610c9d90614331565b80601f0160208091040260200160405190810160405280929190818152602001828054610cc990614331565b8015610d165780601f10610ceb57610100808354040283529160200191610d16565b820191906000526020600020905b815481529060010190602001808311610cf957829003601f168201915b505050505081526020016004820154815260200160058201805480602002602001604051908101604052809291908181526020018280548015610dae57602002820191906000526020600020905b8160009054906101000a900473ffffffffffffffffffffffffffffffffffffffff1673ffffffffffffffffffffffffffffffffffffffff1681526020019060010190808311610d64575b5050505050815260200160068201805480602002602001604051908101604052809291908181526020018280548015610e3c57602002820191906000526020600020905b8160009054906101000a900473ffffffffffffffffffffffffffffffffffffffff1673ffffffffffffffffffffffffffffffffffffffff1681526020019060010190808311610df2575b5050505050815260200160078201805480602002602001604051908101604052809291908181526020016000905b82821015610f8e5783829060005260206000209060030201604051806060016040529081600082018054610e9d90614331565b80601f0160208091040260200160405190810160405280929190818152602001828054610ec990614331565b8015610f165780601f10610eeb57610100808354040283529160200191610f16565b820191906000526020600020905b815481529060010190602001808311610ef957829003601f168201915b50505050508152602001600182015481526020016002820160009054906101000a900473ffffffffffffffffffffffffffffffffffffffff1673ffffffffffffffffffffffffffffffffffffffff1673ffffffffffffffffffffffffffffffffffffffff168152505081526020019060010190610e6a565b505050508152505090506000600360003373ffffffffffffffffffffffffffffffffffffffff1673ffffffffffffffffffffffffffffffffffffffff1681526020019081526020016000206040518060c00160405290816000820160009054906101000a900473ffffffffffffffffffffffffffffffffffffffff1673ffffffffffffffffffffffffffffffffffffffff1673ffffffffffffffffffffffffffffffffffffffff16815260200160018201805461104a90614331565b80601f016020809104026020016040519081016040528092919081815260200182805461107690614331565b80156110c35780601f10611098576101008083540402835291602001916110c3565b820191906000526020600020905b8154815290600101906020018083116110a657829003601f168201915b505050505081526020016002820180546110dc90614331565b80601f016020809104026020016040519081016040528092919081815260200182805461110890614331565b80156111555780601f1061112a57610100808354040283529160200191611155565b820191906000526020600020905b81548152906001019060200180831161113857829003601f168201915b5050505050815260200160038201805461116e90614331565b80601f016020809104026020016040519081016040528092919081815260200182805461119a90614331565b80156111e75780601f106111bc576101008083540402835291602001916111e7565b820191906000526020600020905b8154815290600101906020018083116111ca57829003601f168201915b50505050508152602001600482015481526020016005820180548060200260200160405190810160405280929190818152602001828054801561127f57602002820191906000526020600020905b8160009054906101000a900473ffffffffffffffffffffffffffffffffffffffff1673ffffffffffffffffffffffffffffffffffffffff1681526020019060010190808311611235575b5050505050815250509050600082602001515111156112ce578160200151600060405180602001604052806000815250604051806020016040528060008152509550955095509550505061133a565b600081602001515111156112fc5780602001516001826040015183606001519550955095509550505061133a565b600060405180602001604052806000815250906040518060200160405280600081525060405180602001604052806000815250955095509550955050505b90919293565b60606000606060006060600061141c600260008973ffffffffffffffffffffffffffffffffffffffff1673ffffffffffffffffffffffffffffffffffffffff16815260200190815260200160002060060180548060200260200160405190810160405280929190818152602001828054801561141157602002820191906000526020600020905b8160009054906101000a900473ffffffffffffffffffffffffffffffffffffffff1673ffffffffffffffffffffffffffffffffffffffff16815260200190600101908083116113c7575b5050505050336135fd565b121561145d576040517f08c379a000000000000000000000000000000000000000000000000000000000815260040161145490614610565b60405180910390fd5b6000600260008873ffffffffffffffffffffffffffffffffffffffff1673ffffffffffffffffffffffffffffffffffffffff1681526020019081526020016000209050806001018160020154826003018360040154846007018480546114c290614331565b80601f01602080910402602001604051908101604052809291908181526020018280546114ee90614331565b801561153b5780601f106115105761010080835404028352916020019161153b565b820191906000526020600020905b81548152906001019060200180831161151e57829003601f168201915b5050505050945082805461154e90614331565b80601f016020809104026020016040519081016040528092919081815260200182805461157a90614331565b80156115c75780601f1061159c576101008083540402835291602001916115c7565b820191906000526020600020905b8154815290600101906020018083116115aa57829003601f168201915b5050505050925080805480602002602001604051908101604052809291908181526020016000905b82821015611713578382906000526020600020906003020160405180606001604052908160008201805461162290614331565b80601f016020809104026020016040519081016040528092919081815260200182805461164e90614331565b801561169b5780601f106116705761010080835404028352916020019161169b565b820191906000526020600020905b81548152906001019060200180831161167e57829003601f168201915b50505050508152602001600182015481526020016002820160009054906101000a900473ffffffffffffffffffffffffffffffffffffffff1673ffffffffffffffffffffffffffffffffffffffff1673ffffffffffffffffffffffffffffffffffffffff1681525050815260200190600101906115ef565b505050509050955095509550955095505091939590929450565b600080600360003373ffffffffffffffffffffffffffffffffffffffff1673ffffffffffffffffffffffffffffffffffffffff168152602001908152602001600020600101805461177d90614331565b9050116117bf576040517f08c379a00000000000000000000000000000000000000000000000000000000081526004016117b69061467c565b60405180910390fd5b6000600260008473ffffffffffffffffffffffffffffffffffffffff1673ffffffffffffffffffffffffffffffffffffffff168152602001908152602001600020600101805461180e90614331565b905011611850576040517f08c379a0000000000000000000000000000000000000000000000000000000008152600401611847906146e8565b60405180910390fd5b6000611922600260008573ffffffffffffffffffffffffffffffffffffffff1673ffffffffffffffffffffffffffffffffffffffff16815260200190815260200160002060060180548060200260200160405190810160405280929190818152602001828054801561191757602002820191906000526020600020905b8160009054906101000a900473ffffffffffffffffffffffffffffffffffffffff1673ffffffffffffffffffffffffffffffffffffffff16815260200190600101908083116118cd575b5050505050336135fd565b12611962576040517f08c379a000000000000000000000000000000000000000000000000000000000815260040161195990614754565b60405180910390fd5b6000611a34600260008573ffffffffffffffffffffffffffffffffffffffff1673ffffffffffffffffffffffffffffffffffffffff168152602001908152602001600020600501805480602002602001604051908101604052809291908181526020018280548015611a2957602002820191906000526020600020905b8160009054906101000a900473ffffffffffffffffffffffffffffffffffffffff1673ffffffffffffffffffffffffffffffffffffffff16815260200190600101908083116119df575b5050505050336135fd565b12611a74576040517f08c379a0000000000000000000000000000000000000000000000000000000008152600401611a6b906147c0565b60405180910390fd5b600260008373ffffffffffffffffffffffffffffffffffffffff1673ffffffffffffffffffffffffffffffffffffffff168152602001908152602001600020600501339080600181540180825580915050600190039060005260206000200160009091909190916101000a81548173ffffffffffffffffffffffffffffffffffffffff021916908373ffffffffffffffffffffffffffffffffffffffff16021790555060019050919050565b606060006060806000600260008773ffffffffffffffffffffffffffffffffffffffff1673ffffffffffffffffffffffffffffffffffffffff168152602001908152602001600020604051806101000160405290816000820160009054906101000a900473ffffffffffffffffffffffffffffffffffffffff1673ffffffffffffffffffffffffffffffffffffffff1673ffffffffffffffffffffffffffffffffffffffff168152602001600182018054611bda90614331565b80601f0160208091040260200160405190810160405280929190818152602001828054611c0690614331565b8015611c535780601f10611c2857610100808354040283529160200191611c53565b820191906000526020600020905b815481529060010190602001808311611c3657829003601f168201915b5050505050815260200160028201548152602001600382018054611c7690614331565b80601f0160208091040260200160405190810160405280929190818152602001828054611ca290614331565b8015611cef5780601f10611cc457610100808354040283529160200191611cef565b820191906000526020600020905b815481529060010190602001808311611cd257829003601f168201915b505050505081526020016004820154815260200160058201805480602002602001604051908101604052809291908181526020018280548015611d8757602002820191906000526020600020905b8160009054906101000a900473ffffffffffffffffffffffffffffffffffffffff1673ffffffffffffffffffffffffffffffffffffffff1681526020019060010190808311611d3d575b5050505050815260200160068201805480602002602001604051908101604052809291908181526020018280548015611e1557602002820191906000526020600020905b8160009054906101000a900473ffffffffffffffffffffffffffffffffffffffff1673ffffffffffffffffffffffffffffffffffffffff1681526020019060010190808311611dcb575b5050505050815260200160078201805480602002602001604051908101604052809291908181526020016000905b82821015611f675783829060005260206000209060030201604051806060016040529081600082018054611e7690614331565b80601f0160208091040260200160405190810160405280929190818152602001828054611ea290614331565b8015611eef5780601f10611ec457610100808354040283529160200191611eef565b820191906000526020600020905b815481529060010190602001808311611ed257829003601f168201915b50505050508152602001600182015481526020016002820160009054906101000a900473ffffffffffffffffffffffffffffffffffffffff1673ffffffffffffffffffffffffffffffffffffffff1673ffffffffffffffffffffffffffffffffffffffff168152505081526020019060010190611e43565b5050505081525050905060006040518060400160405280600481526020017f6e6f6e65000000000000000000000000000000000000000000000000000000008152509050600061207d600260008a73ffffffffffffffffffffffffffffffffffffffff1673ffffffffffffffffffffffffffffffffffffffff16815260200190815260200160002060050180548060200260200160405190810160405280929190818152602001828054801561207257602002820191906000526020600020905b8160009054906101000a900473ffffffffffffffffffffffffffffffffffffffff1673ffffffffffffffffffffffffffffffffffffffff1681526020019060010190808311612028575b5050505050336135fd565b126120bf576040518060400160405280600981526020017f726571756573746564000000000000000000000000000000000000000000000081525090506121d0565b6000612191600260008a73ffffffffffffffffffffffffffffffffffffffff1673ffffffffffffffffffffffffffffffffffffffff16815260200190815260200160002060060180548060200260200160405190810160405280929190818152602001828054801561218657602002820191906000526020600020905b8160009054906101000a900473ffffffffffffffffffffffffffffffffffffffff1673ffffffffffffffffffffffffffffffffffffffff168152602001906001019080831161213c575b5050505050336135fd565b126121cf576040518060400160405280600881526020017f617070726f76656400000000000000000000000000000000000000000000000081525090505b5b81602001518260400151836060015183955095509550955050509193509193565b600080600360003373ffffffffffffffffffffffffffffffffffffffff1673ffffffffffffffffffffffffffffffffffffffff168152602001908152602001600020600101805461224190614331565b90501115612284576040517f08c379a000000000000000000000000000000000000000000000000000000000815260040161227b9061441b565b60405180910390fd5b60008451116122c8576040517f08c379a00000000000000000000000000000000000000000000000000000000081526004016122bf90614487565b60405180910390fd5b600083511161230c576040517f08c379a00000000000000000000000000000000000000000000000000000000081526004016123039061482c565b60405180910390fd5b6000825111612350576040517f08c379a000000000000000000000000000000000000000000000000000000000815260040161234790614898565b60405180910390fd5b6000600360003373ffffffffffffffffffffffffffffffffffffffff1673ffffffffffffffffffffffffffffffffffffffff1681526020019081526020016000209050338160000160006101000a81548173ffffffffffffffffffffffffffffffffffffffff021916908373ffffffffffffffffffffffffffffffffffffffff160217905550848160010190805190602001906123ee9291906136fe565b50838160020190805190602001906124079291906136fe565b50828160030190805190602001906124209291906136fe565b504281600401819055507f1187c17101d2ad9d5a17b4990710f2be353a26783d7627f24824dd75475ddea285858560405161245d939291906148b8565b60405180910390a160019150509392505050565b6001805461247e90614331565b80601f01602080910402602001604051908101604052809291908181526020018280546124aa90614331565b80156124f75780601f106124cc576101008083540402835291602001916124f7565b820191906000526020600020905b8154815290600101906020018083116124da57829003601f168201915b505050505081565b600080600260003373ffffffffffffffffffffffffffffffffffffffff1673ffffffffffffffffffffffffffffffffffffffff168152602001908152602001600020600101805461254f90614331565b905011612591576040517f08c379a0000000000000000000000000000000000000000000000000000000008152600401612588906143af565b60405180910390fd5b6000612663600260003373ffffffffffffffffffffffffffffffffffffffff1673ffffffffffffffffffffffffffffffffffffffff16815260200190815260200160002060060180548060200260200160405190810160405280929190818152602001828054801561265857602002820191906000526020600020905b8160009054906101000a900473ffffffffffffffffffffffffffffffffffffffff1673ffffffffffffffffffffffffffffffffffffffff168152602001906001019080831161260e575b5050505050846135fd565b905060008112156126a9576040517f08c379a00000000000000000000000000000000000000000000000000000000081526004016126a090614950565b60405180910390fd5b6000600260003373ffffffffffffffffffffffffffffffffffffffff1673ffffffffffffffffffffffffffffffffffffffff168152602001908152602001600020905060008290505b60018260060180549050612706919061499f565b8110156127cb578160060160018261271e91906149d3565b8154811061272f5761272e614a29565b5b9060005260206000200160009054906101000a900473ffffffffffffffffffffffffffffffffffffffff168260060182815481106127705761276f614a29565b5b9060005260206000200160006101000a81548173ffffffffffffffffffffffffffffffffffffffff021916908373ffffffffffffffffffffffffffffffffffffffff16021790555080806127c390614a58565b9150506126f2565b50806006018054806127e0576127df614aa1565b5b6001900381819060005260206000200160006101000a81549073ffffffffffffffffffffffffffffffffffffffff021916905590556000600360008673ffffffffffffffffffffffffffffffffffffffff1673ffffffffffffffffffffffffffffffffffffffff168152602001908152602001600020905060008390505b60018260050180549050612872919061499f565b811015612937578160050160018261288a91906149d3565b8154811061289b5761289a614a29565b5b9060005260206000200160009054906101000a900473ffffffffffffffffffffffffffffffffffffffff168260050182815481106128dc576128db614a29565b5b9060005260206000200160006101000a81548173ffffffffffffffffffffffffffffffffffffffff021916908373ffffffffffffffffffffffffffffffffffffffff160217905550808061292f90614a58565b91505061285e565b508060050180548061294c5761294b614aa1565b5b6001900381819060005260206000200160006101000a81549073ffffffffffffffffffffffffffffffffffffffff0219169055905560019350505050919050565b6000808251116129d2576040517f08c379a00000000000000000000000000000000000000000000000000000000081526004016129c990614b1c565b60405180910390fd5b6000612aa4600260008673ffffffffffffffffffffffffffffffffffffffff1673ffffffffffffffffffffffffffffffffffffffff168152602001908152602001600020600601805480602002602001604051908101604052809291908181526020018280548015612a9957602002820191906000526020600020905b8160009054906101000a900473ffffffffffffffffffffffffffffffffffffffff1673ffffffffffffffffffffffffffffffffffffffff1681526020019060010190808311612a4f575b5050505050336135fd565b1215612ae5576040517f08c379a0000000000000000000000000000000000000000000000000000000008152600401612adc90614610565b60405180910390fd5b600060405180606001604052808481526020014281526020013373ffffffffffffffffffffffffffffffffffffffff1681525090506000600260008673ffffffffffffffffffffffffffffffffffffffff1673ffffffffffffffffffffffffffffffffffffffff1681526020019081526020016000209050806007018290806001815401808255809150506001900390600052602060002090600302016000909190919091506000820151816000019080519060200190612ba79291906136fe565b506020820151816001015560408201518160020160006101000a81548173ffffffffffffffffffffffffffffffffffffffff021916908373ffffffffffffffffffffffffffffffffffffffff160217905550505060019250505092915050565b600080600260003373ffffffffffffffffffffffffffffffffffffffff1673ffffffffffffffffffffffffffffffffffffffff1681526020019081526020016000206001018054612c5790614331565b905011612c99576040517f08c379a0000000000000000000000000000000000000000000000000000000008152600401612c90906143af565b60405180910390fd5b6000612d6b600260003373ffffffffffffffffffffffffffffffffffffffff1673ffffffffffffffffffffffffffffffffffffffff168152602001908152602001600020600501805480602002602001604051908101604052809291908181526020018280548015612d6057602002820191906000526020600020905b8160009054906101000a900473ffffffffffffffffffffffffffffffffffffffff1673ffffffffffffffffffffffffffffffffffffffff1681526020019060010190808311612d16575b5050505050856135fd565b90506000811215612db1576040517f08c379a0000000000000000000000000000000000000000000000000000000008152600401612da890614b88565b60405180910390fd5b600115158315151415612f0557600260003373ffffffffffffffffffffffffffffffffffffffff1673ffffffffffffffffffffffffffffffffffffffff168152602001908152602001600020600601849080600181540180825580915050600190039060005260206000200160009091909190916101000a81548173ffffffffffffffffffffffffffffffffffffffff021916908373ffffffffffffffffffffffffffffffffffffffff160217905550600360008573ffffffffffffffffffffffffffffffffffffffff1673ffffffffffffffffffffffffffffffffffffffff168152602001908152602001600020600501339080600181540180825580915050600190039060005260206000200160009091909190916101000a81548173ffffffffffffffffffffffffffffffffffffffff021916908373ffffffffffffffffffffffffffffffffffffffff1602179055505b6000600260003373ffffffffffffffffffffffffffffffffffffffff1673ffffffffffffffffffffffffffffffffffffffff168152602001908152602001600020905060008290505b60018260050180549050612f62919061499f565b8110156130275781600501600182612f7a91906149d3565b81548110612f8b57612f8a614a29565b5b9060005260206000200160009054906101000a900473ffffffffffffffffffffffffffffffffffffffff16826005018281548110612fcc57612fcb614a29565b5b9060005260206000200160006101000a81548173ffffffffffffffffffffffffffffffffffffffff021916908373ffffffffffffffffffffffffffffffffffffffff160217905550808061301f90614a58565b915050612f4e565b508060050180548061303c5761303b614aa1565b5b6001900381819060005260206000200160006101000a81549073ffffffffffffffffffffffffffffffffffffffff0219169055905560019250505092915050565b60036020528060005260406000206000915090508060000160009054906101000a900473ffffffffffffffffffffffffffffffffffffffff16908060010180546130c690614331565b80601f01602080910402602001604051908101604052809291908181526020018280546130f290614331565b801561313f5780601f106131145761010080835404028352916020019161313f565b820191906000526020600020905b81548152906001019060200180831161312257829003601f168201915b50505050509080600201805461315490614331565b80601f016020809104026020016040519081016040528092919081815260200182805461318090614331565b80156131cd5780601f106131a2576101008083540402835291602001916131cd565b820191906000526020600020905b8154815290600101906020018083116131b057829003601f168201915b5050505050908060030180546131e290614331565b80601f016020809104026020016040519081016040528092919081815260200182805461320e90614331565b801561325b5780601f106132305761010080835404028352916020019161325b565b820191906000526020600020905b81548152906001019060200180831161323e57829003601f168201915b5050505050908060040154905085565b613273613784565b6000600360003373ffffffffffffffffffffffffffffffffffffffff1673ffffffffffffffffffffffffffffffffffffffff16815260200190815260200160002060010180546132c290614331565b905011613304576040517f08c379a00000000000000000000000000000000000000000000000000000000081526004016132fb9061467c565b60405180910390fd5b6000600360003373ffffffffffffffffffffffffffffffffffffffff1673ffffffffffffffffffffffffffffffffffffffff1681526020019081526020016000206040518060c00160405290816000820160009054906101000a900473ffffffffffffffffffffffffffffffffffffffff1673ffffffffffffffffffffffffffffffffffffffff1673ffffffffffffffffffffffffffffffffffffffff1681526020016001820180546133b690614331565b80601f01602080910402602001604051908101604052809291908181526020018280546133e290614331565b801561342f5780601f106134045761010080835404028352916020019161342f565b820191906000526020600020905b81548152906001019060200180831161341257829003601f168201915b5050505050815260200160028201805461344890614331565b80601f016020809104026020016040519081016040528092919081815260200182805461347490614331565b80156134c15780601f10613496576101008083540402835291602001916134c1565b820191906000526020600020905b8154815290600101906020018083116134a457829003601f168201915b505050505081526020016003820180546134da90614331565b80601f016020809104026020016040519081016040528092919081815260200182805461350690614331565b80156135535780601f1061352857610100808354040283529160200191613553565b820191906000526020600020905b81548152906001019060200180831161353657829003601f168201915b5050505050815260200160048201548152602001600582018054806020026020016040519081016040528092919081815260200182805480156135eb57602002820191906000526020600020905b8160009054906101000a900473ffffffffffffffffffffffffffffffffffffffff1673ffffffffffffffffffffffffffffffffffffffff16815260200190600101908083116135a1575b50505050508152505090508091505090565b6000807fffffffffffffffffffffffffffffffffffffffffffffffffffffffffffffffff905060005b84518110156136985784818151811061364257613641614a29565b5b602002602001015173ffffffffffffffffffffffffffffffffffffffff168473ffffffffffffffffffffffffffffffffffffffff16141561368557809150613698565b808061369090614a58565b915050613626565b508091505092915050565b604051806101000160405280600073ffffffffffffffffffffffffffffffffffffffff168152602001606081526020016000815260200160608152602001600081526020016060815260200160608152602001606081525090565b82805461370a90614331565b90600052602060002090601f01602090048101928261372c5760008555613773565b82601f1061374557805160ff1916838001178555613773565b82800160010185558215613773579182015b82811115613772578251825591602001919060010190613757565b5b50905061378091906137d0565b5090565b6040518060c00160405280600073ffffffffffffffffffffffffffffffffffffffff16815260200160608152602001606081526020016060815260200160008152602001606081525090565b5b808211156137e95760008160009055506001016137d1565b5090565b600081519050919050565b600082825260208201905092915050565b60005b8381101561382757808201518184015260208101905061380c565b83811115613836576000848401525b50505050565b6000601f19601f8301169050919050565b6000613858826137ed565b61386281856137f8565b9350613872818560208601613809565b61387b8161383c565b840191505092915050565b600060208201905081810360008301526138a0818461384d565b905092915050565b600073ffffffffffffffffffffffffffffffffffffffff82169050919050565b60006138d3826138a8565b9050919050565b6138e3816138c8565b82525050565b600082825260208201905092915050565b6000613905826137ed565b61390f81856138e9565b935061391f818560208601613809565b6139288161383c565b840191505092915050565b6000819050919050565b61394681613933565b82525050565b600081519050919050565b600082825260208201905092915050565b6000819050602082019050919050565b6000613983826138a8565b9050919050565b61399381613978565b82525050565b60006139a5838361398a565b60208301905092915050565b6000602082019050919050565b60006139c98261394c565b6139d38185613957565b93506139de83613968565b8060005b83811015613a0f5781516139f68882613999565b9750613a01836139b1565b9250506001810190506139e2565b5085935050505092915050565b600081519050919050565b600082825260208201905092915050565b6000819050602082019050919050565b60006060830160008301518482036000860152613a6582826138fa565b9150506020830151613a7a602086018261393d565b506040830151613a8d60408601826138da565b508091505092915050565b6000613aa48383613a48565b905092915050565b6000602082019050919050565b6000613ac482613a1c565b613ace8185613a27565b935083602082028501613ae085613a38565b8060005b85811015613b1c5784840389528151613afd8582613a98565b9450613b0883613aac565b925060208a01995050600181019050613ae4565b50829750879550505050505092915050565b600061010083016000830151613b4760008601826138da565b5060208301518482036020860152613b5f82826138fa565b9150506040830151613b74604086018261393d565b5060608301518482036060860152613b8c82826138fa565b9150506080830151613ba1608086018261393d565b5060a083015184820360a0860152613bb982826139be565b91505060c083015184820360c0860152613bd382826139be565b91505060e083015184820360e0860152613bed8282613ab9565b9150508091505092915050565b60006020820190508181036000830152613c148184613b2e565b905092915050565b6000604051905090565b600080fd5b600080fd5b600080fd5b600080fd5b7f4e487b7100000000000000000000000000000000000000000000000000000000600052604160045260246000fd5b613c728261383c565b810181811067ffffffffffffffff82111715613c9157613c90613c3a565b5b80604052505050565b6000613ca4613c1c565b9050613cb08282613c69565b919050565b600067ffffffffffffffff821115613cd057613ccf613c3a565b5b613cd98261383c565b9050602081019050919050565b82818337600083830152505050565b6000613d08613d0384613cb5565b613c9a565b905082815260208101848484011115613d2457613d23613c35565b5b613d2f848285613ce6565b509392505050565b600082601f830112613d4c57613d4b613c30565b5b8135613d5c848260208601613cf5565b91505092915050565b613d6e81613933565b8114613d7957600080fd5b50565b600081359050613d8b81613d65565b92915050565b600080600060608486031215613daa57613da9613c26565b5b600084013567ffffffffffffffff811115613dc857613dc7613c2b565b5b613dd486828701613d37565b9350506020613de586828701613d7c565b925050604084013567ffffffffffffffff811115613e0657613e05613c2b565b5b613e1286828701613d37565b9150509250925092565b60008115159050919050565b613e3181613e1c565b82525050565b6000602082019050613e4c6000830184613e28565b92915050565b60006080820190508181036000830152613e6c818761384d565b9050613e7b6020830186613e28565b8181036040830152613e8d818561384d565b90508181036060830152613ea1818461384d565b905095945050505050565b613eb581613978565b8114613ec057600080fd5b50565b600081359050613ed281613eac565b92915050565b600060208284031215613eee57613eed613c26565b5b6000613efc84828501613ec3565b91505092915050565b613f0e81613933565b82525050565b600082825260208201905092915050565b6000613f3082613a1c565b613f3a8185613f14565b935083602082028501613f4c85613a38565b8060005b85811015613f885784840389528151613f698582613a98565b9450613f7483613aac565b925060208a01995050600181019050613f50565b50829750879550505050505092915050565b600060a0820190508181036000830152613fb4818861384d565b9050613fc36020830187613f05565b8181036040830152613fd5818661384d565b9050613fe46060830185613f05565b8181036080830152613ff68184613f25565b90509695505050505050565b6000608082019050818103600083015261401c818761384d565b905061402b6020830186613f05565b818103604083015261403d818561384d565b90508181036060830152614051818461384d565b905095945050505050565b60008060006060848603121561407557614074613c26565b5b600084013567ffffffffffffffff81111561409357614092613c2b565b5b61409f86828701613d37565b935050602084013567ffffffffffffffff8111156140c0576140bf613c2b565b5b6140cc86828701613d37565b925050604084013567ffffffffffffffff8111156140ed576140ec613c2b565b5b6140f986828701613d37565b9150509250925092565b6000806040838503121561411a57614119613c26565b5b600061412885828601613ec3565b925050602083013567ffffffffffffffff81111561414957614148613c2b565b5b61415585828601613d37565b9150509250929050565b61416881613e1c565b811461417357600080fd5b50565b6000813590506141858161415f565b92915050565b600080604083850312156141a2576141a1613c26565b5b60006141b085828601613ec3565b92505060206141c185828601614176565b9150509250929050565b6141d4816138c8565b82525050565b600060a0820190506141ef60008301886141cb565b8181036020830152614201818761384d565b90508181036040830152614215818661384d565b90508181036060830152614229818561384d565b90506142386080830184613f05565b9695505050505050565b600060c08301600083015161425a60008601826138da565b506020830151848203602086015261427282826138fa565b9150506040830151848203604086015261428c82826138fa565b915050606083015184820360608601526142a682826138fa565b91505060808301516142bb608086018261393d565b5060a083015184820360a08601526142d382826139be565b9150508091505092915050565b600060208201905081810360008301526142fa8184614242565b905092915050565b7f4e487b7100000000000000000000000000000000000000000000000000000000600052602260045260246000fd5b6000600282049050600182168061434957607f821691505b6020821081141561435d5761435c614302565b5b50919050565b7f596f7520617265206e6f7420612070617469656e740000000000000000000000600082015250565b60006143996015836137f8565b91506143a482614363565b602082019050919050565b600060208201905081810360008301526143c88161438c565b9050919050565b7f526567697374726174696f6e20616c7265616479206578697374730000000000600082015250565b6000614405601b836137f8565b9150614410826143cf565b602082019050919050565b60006020820190508181036000830152614434816143f8565b9050919050565b7f4e616d652073686f756c64206e6f7420656d7074790000000000000000000000600082015250565b60006144716015836137f8565b915061447c8261443b565b602082019050919050565b600060208201905081810360008301526144a081614464565b9050919050565b7f4167652073686f756c64206e6f7420656d707479000000000000000000000000600082015250565b60006144dd6014836137f8565b91506144e8826144a7565b602082019050919050565b6000602082019050818103600083015261450c816144d0565b9050919050565b7f5365782073686f756c64206e6f7420656d707479000000000000000000000000600082015250565b60006145496014836137f8565b915061455482614513565b602082019050919050565b600060208201905081810360008301526145788161453c565b9050919050565b60006060820190508181036000830152614599818661384d565b90506145a86020830185613f05565b81810360408301526145ba818461384d565b9050949350505050565b7f596f7520617265206e6f7420616c6c6f77656420746f20616363657373000000600082015250565b60006145fa601d836137f8565b9150614605826145c4565b602082019050919050565b60006020820190508181036000830152614629816145ed565b9050919050565b7f596f752073686f756c64206265206120646f63746f7200000000000000000000600082015250565b60006146666016836137f8565b915061467182614630565b602082019050919050565b6000602082019050818103600083015261469581614659565b9050919050565b7f4e6f2070617469656e7420666f756e6420776974682074686973206964000000600082015250565b60006146d2601d836137f8565b91506146dd8261469c565b602082019050919050565b60006020820190508181036000830152614701816146c5565b9050919050565b7f417070726f76616c20616c726561647920657869737473000000000000000000600082015250565b600061473e6017836137f8565b915061474982614708565b602082019050919050565b6000602082019050818103600083015261476d81614731565b9050919050565b7f5265717565737420616c72656164792065786973747300000000000000000000600082015250565b60006147aa6016836137f8565b91506147b582614774565b602082019050919050565b600060208201905081810360008301526147d98161479d565b9050919050565b7f486f73706974616c204e616d652073686f756c64206e6f7420656d7074790000600082015250565b6000614816601e836137f8565b9150614821826147e0565b602082019050919050565b6000602082019050818103600083015261484581614809565b9050919050565b7f5370656369616c697a6174696f6e2073686f756c64206e6f7420656d70747900600082015250565b6000614882601f836137f8565b915061488d8261484c565b602082019050919050565b600060208201905081810360008301526148b181614875565b9050919050565b600060608201905081810360008301526148d2818661384d565b905081810360208301526148e6818561384d565b905081810360408301526148fa818461384d565b9050949350505050565b7f546865207065726d697373696f6e20646f6573206e6f74206578697374730000600082015250565b600061493a601e836137f8565b915061494582614904565b602082019050919050565b600060208201905081810360008301526149698161492d565b9050919050565b7f4e487b7100000000000000000000000000000000000000000000000000000000600052601160045260246000fd5b60006149aa82613933565b91506149b583613933565b9250828210156149c8576149c7614970565b5b828203905092915050565b60006149de82613933565b91506149e983613933565b9250827fffffffffffffffffffffffffffffffffffffffffffffffffffffffffffffffff03821115614a1e57614a1d614970565b5b828201905092915050565b7f4e487b7100000000000000000000000000000000000000000000000000000000600052603260045260246000fd5b6000614a6382613933565b91507fffffffffffffffffffffffffffffffffffffffffffffffffffffffffffffffff821415614a9657614a95614970565b5b600182019050919050565b7f4e487b7100000000000000000000000000000000000000000000000000000000600052603160045260246000fd5b7f4e6f7465732053686f756c64206e6f7420656d70747900000000000000000000600082015250565b6000614b066016836137f8565b9150614b1182614ad0565b602082019050919050565b60006020820190508181036000830152614b3581614af9565b9050919050565b7f546865207265717565737420646f6573206e6f74206578697374730000000000600082015250565b6000614b72601b836137f8565b9150614b7d82614b3c565b602082019050919050565b60006020820190508181036000830152614ba181614b65565b905091905056fea264697066735822122027b40b25783dc11c9f313387535507b3eb5821e2a132ace85b73733763eb8d2564736f6c63430008090033",
  "immutableReferences": {},
  "source": "// SPDX-License-Identifier: MIT\npragma solidity >=0.4.22 <0.9.0;\n\ncontract HealthChain {\n    string public name = \"HealthChain\";\n    string public version = \"0.1\";\n\n    struct Prescription {\n        string note;\n        uint256 timestamp;\n        address payable createdBy;\n    }\n\n    struct Patient {\n        address payable patientId;\n        string fullName;\n        uint256 age;\n        string sex;\n        uint256 createdDate;\n        address[] requestedDoctors;\n        address[] allowedDoctors;\n        Prescription[] prescriptionNotes;\n    }\n\n    struct Doctor {\n        address payable doctorId;\n        string fullName;\n        string hospitalName;\n        string specialization;\n        uint256 createdDate;\n        address[] patients;\n    }\n\n    mapping(address => Patient) private patientDataOf;\n    mapping(address => Doctor) public doctorDataOf;\n\n    event PatientRegistered(string fullName, uint256 age, string sex);\n    event DoctorRegistered(\n        string fullName,\n        string hospitalName,\n        string specialization\n    );\n\n    constructor() {}\n\n    modifier onlyPatient() {\n        require(\n            bytes(patientDataOf[msg.sender].fullName).length > 0,\n            \"You are not a patient\"\n        );\n        _;\n    }\n    modifier onlyDoctor() {\n        require(\n            bytes(doctorDataOf[msg.sender].fullName).length > 0,\n            \"You should be a doctor\"\n        );\n        _;\n    }\n\n    function registerPatient(\n        string memory _fullName,\n        uint256 _age,\n        string memory _sex\n    ) public returns (bool success) {\n        require(\n            bytes(patientDataOf[msg.sender].fullName).length <= 0,\n            \"Registration already exists\"\n        );\n        require(bytes(_fullName).length > 0, \"Name should not empty\");\n        require(_age > 0, \"Age should not empty\");\n        require(bytes(_sex).length > 0, \"Sex should not empty\");\n\n        Patient storage newPatient = patientDataOf[msg.sender];\n        newPatient.patientId = payable(msg.sender);\n        newPatient.fullName = _fullName;\n        newPatient.age = _age;\n        newPatient.sex = _sex;\n        newPatient.createdDate = block.timestamp;\n\n        emit PatientRegistered(_fullName, _age, _sex);\n        return true;\n    }\n\n    function getPatientData(address _patientId)\n        public\n        view\n        returns (\n            string memory fullName,\n            uint256 age,\n            string memory sex,\n            string memory status\n        )\n    {\n        Patient memory patientData = patientDataOf[_patientId];\n        string memory _status = \"none\";\n        if (\n            checkItemInsideAddress(\n                patientDataOf[_patientId].requestedDoctors,\n                msg.sender\n            ) >= 0\n        ) {\n            _status = \"requested\";\n        } else if (\n            checkItemInsideAddress(\n                patientDataOf[_patientId].allowedDoctors,\n                msg.sender\n            ) >= 0\n        ) {\n            _status = \"approved\";\n        }\n\n        return (\n            patientData.fullName,\n            patientData.age,\n            patientData.sex,\n            _status\n        );\n    }\n\n    function getUserData()\n        public\n        view\n        returns (\n            string memory fullName,\n            bool isDoctor,\n            string memory hospitalName,\n            string memory specialization\n        )\n    {\n        Patient memory patientData = patientDataOf[msg.sender];\n        Doctor memory doctorData = doctorDataOf[msg.sender];\n\n        if (bytes(patientData.fullName).length > 0) {\n            return (patientData.fullName, false, \"\", \"\");\n        }\n\n        if (bytes(doctorData.fullName).length > 0) {\n            return (\n                doctorData.fullName,\n                true,\n                doctorData.hospitalName,\n                doctorData.specialization\n            );\n        }\n\n        return (\"\", false, \"\", \"\");\n    }\n\n    function registerDoctor(\n        string memory _fullName,\n        string memory _hospitalName,\n        string memory _specialization\n    ) public returns (bool success) {\n        require(\n            bytes(doctorDataOf[msg.sender].fullName).length <= 0,\n            \"Registration already exists\"\n        );\n        require(bytes(_fullName).length > 0, \"Name should not empty\");\n        require(\n            bytes(_hospitalName).length > 0,\n            \"Hospital Name should not empty\"\n        );\n        require(\n            bytes(_specialization).length > 0,\n            \"Specialization should not empty\"\n        );\n\n        Doctor storage newDoctor = doctorDataOf[msg.sender];\n        newDoctor.doctorId = payable(msg.sender);\n        newDoctor.fullName = _fullName;\n        newDoctor.hospitalName = _hospitalName;\n        newDoctor.specialization = _specialization;\n        newDoctor.createdDate = block.timestamp;\n\n        emit DoctorRegistered(_fullName, _hospitalName, _specialization);\n\n        return true;\n    }\n\n    function requestForPatientAccess(address _patientId)\n        public\n        onlyDoctor\n        returns (bool success)\n    {\n        require(\n            bytes(patientDataOf[_patientId].fullName).length > 0,\n            \"No patient found with this id\"\n        );\n        require(\n            checkItemInsideAddress(\n                patientDataOf[_patientId].allowedDoctors,\n                msg.sender\n            ) < 0,\n            \"Approval already exists\"\n        );\n        require(\n            checkItemInsideAddress(\n                patientDataOf[_patientId].requestedDoctors,\n                msg.sender\n            ) < 0,\n            \"Request already exists\"\n        );\n\n        patientDataOf[_patientId].requestedDoctors.push(msg.sender);\n\n        return true;\n    }\n\n    function getPatientDataByOwner()\n        public\n        view\n        onlyPatient\n        returns (Patient memory patientData)\n    {\n        Patient memory _patientData = patientDataOf[msg.sender];\n        return _patientData;\n    }\n\n    function getDoctorDataByOwner()\n        public\n        view\n        onlyDoctor\n        returns (Doctor memory doctorData)\n    {\n        Doctor memory _doctorData = doctorDataOf[msg.sender];\n        return _doctorData;\n    }\n\n    function reviewDoctorRequest(address _doctorId, bool _isAllowed)\n        public\n        onlyPatient\n        returns (bool success)\n    {\n        int256 pos = checkItemInsideAddress(\n            patientDataOf[msg.sender].requestedDoctors,\n            _doctorId\n        );\n        require(pos >= 0, \"The request does not exists\");\n\n        if (_isAllowed == true) {\n            patientDataOf[msg.sender].allowedDoctors.push(_doctorId);\n            doctorDataOf[_doctorId].patients.push(msg.sender);\n        }\n\n        // Deleting this request from array\n        Patient storage patientData = patientDataOf[msg.sender];\n        for (\n            uint256 i = uint256(pos);\n            i < patientData.requestedDoctors.length - 1;\n            i++\n        ) {\n            patientData.requestedDoctors[i] = patientData.requestedDoctors[\n                i + 1\n            ];\n        }\n        patientData.requestedDoctors.pop();\n\n        return true;\n    }\n\n    function revokePermission(address _doctorId)\n        public\n        onlyPatient\n        returns (bool success)\n    {\n        int256 pos = checkItemInsideAddress(\n            patientDataOf[msg.sender].allowedDoctors,\n            _doctorId\n        );\n        require(pos >= 0, \"The permission does not exists\");\n\n        // Deleting this permission from array\n        Patient storage _patientData = patientDataOf[msg.sender];\n        for (\n            uint256 i = uint256(pos);\n            i < _patientData.allowedDoctors.length - 1;\n            i++\n        ) {\n            _patientData.allowedDoctors[i] = _patientData.allowedDoctors[i + 1];\n        }\n        _patientData.allowedDoctors.pop();\n\n        Doctor storage _doctorData = doctorDataOf[_doctorId];\n        for (\n            uint256 i = uint256(pos);\n            i < _doctorData.patients.length - 1;\n            i++\n        ) {\n            _doctorData.patients[i] = _doctorData.patients[i + 1];\n        }\n        _doctorData.patients.pop();\n\n        return true;\n    }\n\n    function getPatientHealth(address _patientId)\n        public\n        view\n        returns (\n            string memory fullName,\n            uint256 age,\n            string memory sex,\n            uint256 createdDate,\n            Prescription[] memory prescriptionNotes\n        )\n    {\n        require(\n            checkItemInsideAddress(\n                patientDataOf[_patientId].allowedDoctors,\n                msg.sender\n            ) >= 0,\n            \"You are not allowed to access\"\n        );\n\n        Patient storage patientData = patientDataOf[_patientId];\n\n        return (\n            patientData.fullName,\n            patientData.age,\n            patientData.sex,\n            patientData.createdDate,\n            patientData.prescriptionNotes\n        );\n    }\n\n    function addPrescription(address _patientId, string memory _note)\n        public\n        returns (bool success)\n    {\n        require(bytes(_note).length > 0, \"Notes Should not empty\");\n        require(\n            checkItemInsideAddress(\n                patientDataOf[_patientId].allowedDoctors,\n                msg.sender\n            ) >= 0,\n            \"You are not allowed to access\"\n        );\n        Prescription memory newPrescription = Prescription(\n            _note,\n            block.timestamp,\n            payable(msg.sender)\n        );\n        Patient storage patientData = patientDataOf[_patientId];\n        patientData.prescriptionNotes.push(newPrescription);\n\n        return true;\n    }\n}\n\nfunction checkItemInsideAddress(address[] memory _addressList, address _element)\n    pure\n    returns (int256 pos)\n{\n    int256 _pos = -1;\n\n    for (uint256 i = 0; i < _addressList.length; i++) {\n        if (_element == _addressList[i]) {\n            _pos = int256(i);\n            break;\n        }\n    }\n\n    return _pos;\n}\n",
  "sourcePath": "/Users/z3r0c00l-2k/Documents/Projects/Hobbies/health-chain/smartcontracts/contracts/HealthChain.sol",
  "compiler": {
    "name": "solc",
    "version": "0.8.9+commit.e5eed63a.Emscripten.clang"
  },
  "schemaVersion": "3.4.3",
  "updatedAt": "2021-11-23T16:23:08.928Z",
  "networkType": "ethereum",
  "devdoc": {
    "kind": "dev",
    "methods": {},
    "version": 1
  },
  "userdoc": {
    "kind": "user",
    "methods": {},
    "version": 1
  }
}