{
  "contractName": "HealthChain",
  "abi": [
    {
      "inputs": [],
      "stateMutability": "nonpayable",
      "type": "constructor"
    },
    {
      "anonymous": false,
      "inputs": [
        {
          "indexed": false,
          "internalType": "string",
          "name": "fullName",
          "type": "string"
        },
        {
          "indexed": false,
          "internalType": "string",
          "name": "hospitalName",
          "type": "string"
        },
        {
          "indexed": false,
          "internalType": "string",
          "name": "specialization",
          "type": "string"
        }
      ],
      "name": "DoctorRegistered",
      "type": "event"
    },
    {
      "anonymous": false,
      "inputs": [
        {
          "indexed": false,
          "internalType": "string",
          "name": "fullName",
          "type": "string"
        },
        {
          "indexed": false,
          "internalType": "uint256",
          "name": "age",
          "type": "uint256"
        },
        {
          "indexed": false,
          "internalType": "string",
          "name": "sex",
          "type": "string"
        }
      ],
      "name": "PatientRegistered",
      "type": "event"
    },
    {
      "inputs": [
        {
          "internalType": "address",
          "name": "",
          "type": "address"
        }
      ],
      "name": "doctorDataOf",
      "outputs": [
        {
          "internalType": "address payable",
          "name": "doctorId",
          "type": "address"
        },
        {
          "internalType": "string",
          "name": "fullName",
          "type": "string"
        },
        {
          "internalType": "string",
          "name": "hospitalName",
          "type": "string"
        },
        {
          "internalType": "string",
          "name": "specialization",
          "type": "string"
        },
        {
          "internalType": "uint256",
          "name": "createdDate",
          "type": "uint256"
        }
      ],
      "stateMutability": "view",
      "type": "function",
      "constant": true
    },
    {
      "inputs": [],
      "name": "name",
      "outputs": [
        {
          "internalType": "string",
          "name": "",
          "type": "string"
        }
      ],
      "stateMutability": "view",
      "type": "function",
      "constant": true
    },
    {
      "inputs": [],
      "name": "version",
      "outputs": [
        {
          "internalType": "string",
          "name": "",
          "type": "string"
        }
      ],
      "stateMutability": "view",
      "type": "function",
      "constant": true
    },
    {
      "inputs": [
        {
          "internalType": "string",
          "name": "_fullName",
          "type": "string"
        },
        {
          "internalType": "uint256",
          "name": "_age",
          "type": "uint256"
        },
        {
          "internalType": "string",
          "name": "_sex",
          "type": "string"
        }
      ],
      "name": "registerPatient",
      "outputs": [
        {
          "internalType": "bool",
          "name": "success",
          "type": "bool"
        }
      ],
      "stateMutability": "nonpayable",
      "type": "function"
    },
    {
      "inputs": [
        {
          "internalType": "address",
          "name": "_patientId",
          "type": "address"
        }
      ],
      "name": "getPatientData",
      "outputs": [
        {
          "internalType": "string",
          "name": "fullName",
          "type": "string"
        },
        {
          "internalType": "uint256",
          "name": "age",
          "type": "uint256"
        },
        {
          "internalType": "string",
          "name": "sex",
          "type": "string"
        }
      ],
      "stateMutability": "view",
      "type": "function",
      "constant": true
    },
    {
      "inputs": [
        {
          "internalType": "string",
          "name": "_fullName",
          "type": "string"
        },
        {
          "internalType": "string",
          "name": "_hospitalName",
          "type": "string"
        },
        {
          "internalType": "string",
          "name": "_specialization",
          "type": "string"
        }
      ],
      "name": "registerDoctor",
      "outputs": [
        {
          "internalType": "bool",
          "name": "success",
          "type": "bool"
        }
      ],
      "stateMutability": "nonpayable",
      "type": "function"
    }
  ],
  "bytecode": "0x60806040526040518060400160405280600b81526020017f4865616c7468436861696e0000000000000000000000000000000000000000008152506000908051906020019062000051929190620000b4565b506040518060400160405280600381526020017f302e310000000000000000000000000000000000000000000000000000000000815250600190805190602001906200009f929190620000b4565b50348015620000ad57600080fd5b50620001c9565b828054620000c29062000193565b90600052602060002090601f016020900481019282620000e6576000855562000132565b82601f106200010157805160ff191683800117855562000132565b8280016001018555821562000132579182015b828111156200013157825182559160200191906001019062000114565b5b50905062000141919062000145565b5090565b5b808211156200016057600081600090555060010162000146565b5090565b7f4e487b7100000000000000000000000000000000000000000000000000000000600052602260045260246000fd5b60006002820490506001821680620001ac57607f821691505b60208210811415620001c357620001c262000164565b5b50919050565b6115ef80620001d96000396000f3fe608060405234801561001057600080fd5b506004361061007f576000357c01000000000000000000000000000000000000000000000000000000009004806306fdde03146100845780631d14c36e146100a257806348e81852146100d257806350c7a9121461010457806354fd4d5014610134578063c10c892514610152575b600080fd5b61008c610186565b6040516100999190610e13565b60405180910390f35b6100bc60048036038101906100b79190610fb4565b610214565b6040516100c9919061105a565b60405180910390f35b6100ec60048036038101906100e791906110d3565b610440565b6040516100fb9392919061110f565b60405180910390f35b61011e60048036038101906101199190611154565b61081e565b60405161012b919061105a565b60405180910390f35b61013c610a5b565b6040516101499190610e13565b60405180910390f35b61016c600480360381019061016791906110d3565b610ae9565b60405161017d95949392919061121c565b60405180910390f35b60008054610193906112b3565b80601f01602080910402602001604051908101604052809291908181526020018280546101bf906112b3565b801561020c5780601f106101e15761010080835404028352916020019161020c565b820191906000526020600020905b8154815290600101906020018083116101ef57829003601f168201915b505050505081565b600080600260003373ffffffffffffffffffffffffffffffffffffffff1673ffffffffffffffffffffffffffffffffffffffff1681526020019081526020016000206001018054610264906112b3565b905011156102a7576040517f08c379a000000000000000000000000000000000000000000000000000000000815260040161029e90611331565b60405180910390fd5b60008451116102eb576040517f08c379a00000000000000000000000000000000000000000000000000000000081526004016102e29061139d565b60405180910390fd5b6000831161032e576040517f08c379a000000000000000000000000000000000000000000000000000000000815260040161032590611409565b60405180910390fd5b6000825111610372576040517f08c379a000000000000000000000000000000000000000000000000000000000815260040161036990611475565b60405180910390fd5b6000600260003373ffffffffffffffffffffffffffffffffffffffff1673ffffffffffffffffffffffffffffffffffffffff1681526020019081526020016000209050848160010190805190602001906103cd929190610cd7565b50838160020181905550828160030190805190602001906103ef929190610cd7565b504281600401819055507fb36df68004bfda39fb94d7b871103e2b4b5797c46e2e023f1e428145414b678185858560405161042c9392919061110f565b60405180910390a160019150509392505050565b6060600060606000600260008673ffffffffffffffffffffffffffffffffffffffff1673ffffffffffffffffffffffffffffffffffffffff1681526020019081526020016000206040518060e00160405290816000820160009054906101000a900473ffffffffffffffffffffffffffffffffffffffff1673ffffffffffffffffffffffffffffffffffffffff1673ffffffffffffffffffffffffffffffffffffffff1681526020016001820180546104f8906112b3565b80601f0160208091040260200160405190810160405280929190818152602001828054610524906112b3565b80156105715780601f1061054657610100808354040283529160200191610571565b820191906000526020600020905b81548152906001019060200180831161055457829003601f168201915b5050505050815260200160028201548152602001600382018054610594906112b3565b80601f01602080910402602001604051908101604052809291908181526020018280546105c0906112b3565b801561060d5780601f106105e25761010080835404028352916020019161060d565b820191906000526020600020905b8154815290600101906020018083116105f057829003601f168201915b5050505050815260200160048201548152602001600582018054806020026020016040519081016040528092919081815260200182805480156106a557602002820191906000526020600020905b8160009054906101000a900473ffffffffffffffffffffffffffffffffffffffff1673ffffffffffffffffffffffffffffffffffffffff168152602001906001019080831161065b575b5050505050815260200160068201805480602002602001604051908101604052809291908181526020016000905b828210156107f75783829060005260206000209060030201604051806060016040529081600082018054610706906112b3565b80601f0160208091040260200160405190810160405280929190818152602001828054610732906112b3565b801561077f5780601f106107545761010080835404028352916020019161077f565b820191906000526020600020905b81548152906001019060200180831161076257829003601f168201915b50505050508152602001600182015481526020016002820160009054906101000a900473ffffffffffffffffffffffffffffffffffffffff1673ffffffffffffffffffffffffffffffffffffffff1673ffffffffffffffffffffffffffffffffffffffff1681525050815260200190600101906106d3565b50505050815250509050806020015181604001518260600151935093509350509193909250565b600080600360003373ffffffffffffffffffffffffffffffffffffffff1673ffffffffffffffffffffffffffffffffffffffff168152602001908152602001600020600101805461086e906112b3565b905011156108b1576040517f08c379a00000000000000000000000000000000000000000000000000000000081526004016108a890611331565b60405180910390fd5b60008451116108f5576040517f08c379a00000000000000000000000000000000000000000000000000000000081526004016108ec9061139d565b60405180910390fd5b6000835111610939576040517f08c379a0000000000000000000000000000000000000000000000000000000008152600401610930906114e1565b60405180910390fd5b600082511161097d576040517f08c379a00000000000000000000000000000000000000000000000000000000081526004016109749061154d565b60405180910390fd5b6000600360003373ffffffffffffffffffffffffffffffffffffffff1673ffffffffffffffffffffffffffffffffffffffff1681526020019081526020016000209050848160010190805190602001906109d8929190610cd7565b50838160020190805190602001906109f1929190610cd7565b5082816003019080519060200190610a0a929190610cd7565b504281600401819055507f1187c17101d2ad9d5a17b4990710f2be353a26783d7627f24824dd75475ddea2858585604051610a479392919061156d565b60405180910390a160019150509392505050565b60018054610a68906112b3565b80601f0160208091040260200160405190810160405280929190818152602001828054610a94906112b3565b8015610ae15780601f10610ab657610100808354040283529160200191610ae1565b820191906000526020600020905b815481529060010190602001808311610ac457829003601f168201915b505050505081565b60036020528060005260406000206000915090508060000160009054906101000a900473ffffffffffffffffffffffffffffffffffffffff1690806001018054610b32906112b3565b80601f0160208091040260200160405190810160405280929190818152602001828054610b5e906112b3565b8015610bab5780601f10610b8057610100808354040283529160200191610bab565b820191906000526020600020905b815481529060010190602001808311610b8e57829003601f168201915b505050505090806002018054610bc0906112b3565b80601f0160208091040260200160405190810160405280929190818152602001828054610bec906112b3565b8015610c395780601f10610c0e57610100808354040283529160200191610c39565b820191906000526020600020905b815481529060010190602001808311610c1c57829003601f168201915b505050505090806003018054610c4e906112b3565b80601f0160208091040260200160405190810160405280929190818152602001828054610c7a906112b3565b8015610cc75780601f10610c9c57610100808354040283529160200191610cc7565b820191906000526020600020905b815481529060010190602001808311610caa57829003601f168201915b5050505050908060040154905085565b828054610ce3906112b3565b90600052602060002090601f016020900481019282610d055760008555610d4c565b82601f10610d1e57805160ff1916838001178555610d4c565b82800160010185558215610d4c579182015b82811115610d4b578251825591602001919060010190610d30565b5b509050610d599190610d5d565b5090565b5b80821115610d76576000816000905550600101610d5e565b5090565b600081519050919050565b600082825260208201905092915050565b60005b83811015610db4578082015181840152602081019050610d99565b83811115610dc3576000848401525b50505050565b6000601f19601f8301169050919050565b6000610de582610d7a565b610def8185610d85565b9350610dff818560208601610d96565b610e0881610dc9565b840191505092915050565b60006020820190508181036000830152610e2d8184610dda565b905092915050565b6000604051905090565b600080fd5b600080fd5b600080fd5b600080fd5b7f4e487b7100000000000000000000000000000000000000000000000000000000600052604160045260246000fd5b610e8b82610dc9565b810181811067ffffffffffffffff82111715610eaa57610ea9610e53565b5b80604052505050565b6000610ebd610e35565b9050610ec98282610e82565b919050565b600067ffffffffffffffff821115610ee957610ee8610e53565b5b610ef282610dc9565b9050602081019050919050565b82818337600083830152505050565b6000610f21610f1c84610ece565b610eb3565b905082815260208101848484011115610f3d57610f3c610e4e565b5b610f48848285610eff565b509392505050565b600082601f830112610f6557610f64610e49565b5b8135610f75848260208601610f0e565b91505092915050565b6000819050919050565b610f9181610f7e565b8114610f9c57600080fd5b50565b600081359050610fae81610f88565b92915050565b600080600060608486031215610fcd57610fcc610e3f565b5b600084013567ffffffffffffffff811115610feb57610fea610e44565b5b610ff786828701610f50565b935050602061100886828701610f9f565b925050604084013567ffffffffffffffff81111561102957611028610e44565b5b61103586828701610f50565b9150509250925092565b60008115159050919050565b6110548161103f565b82525050565b600060208201905061106f600083018461104b565b92915050565b600073ffffffffffffffffffffffffffffffffffffffff82169050919050565b60006110a082611075565b9050919050565b6110b081611095565b81146110bb57600080fd5b50565b6000813590506110cd816110a7565b92915050565b6000602082840312156110e9576110e8610e3f565b5b60006110f7848285016110be565b91505092915050565b61110981610f7e565b82525050565b600060608201905081810360008301526111298186610dda565b90506111386020830185611100565b818103604083015261114a8184610dda565b9050949350505050565b60008060006060848603121561116d5761116c610e3f565b5b600084013567ffffffffffffffff81111561118b5761118a610e44565b5b61119786828701610f50565b935050602084013567ffffffffffffffff8111156111b8576111b7610e44565b5b6111c486828701610f50565b925050604084013567ffffffffffffffff8111156111e5576111e4610e44565b5b6111f186828701610f50565b9150509250925092565b600061120682611075565b9050919050565b611216816111fb565b82525050565b600060a082019050611231600083018861120d565b81810360208301526112438187610dda565b905081810360408301526112578186610dda565b9050818103606083015261126b8185610dda565b905061127a6080830184611100565b9695505050505050565b7f4e487b7100000000000000000000000000000000000000000000000000000000600052602260045260246000fd5b600060028204905060018216806112cb57607f821691505b602082108114156112df576112de611284565b5b50919050565b7f526567697374726174696f6e20616c7265616479206578697374730000000000600082015250565b600061131b601b83610d85565b9150611326826112e5565b602082019050919050565b6000602082019050818103600083015261134a8161130e565b9050919050565b7f4e616d652073686f756c64206e6f7420656d7074790000000000000000000000600082015250565b6000611387601583610d85565b915061139282611351565b602082019050919050565b600060208201905081810360008301526113b68161137a565b9050919050565b7f4167652073686f756c64206e6f7420656d707479000000000000000000000000600082015250565b60006113f3601483610d85565b91506113fe826113bd565b602082019050919050565b60006020820190508181036000830152611422816113e6565b9050919050565b7f5365782073686f756c64206e6f7420656d707479000000000000000000000000600082015250565b600061145f601483610d85565b915061146a82611429565b602082019050919050565b6000602082019050818103600083015261148e81611452565b9050919050565b7f486f73706974616c204e616d652073686f756c64206e6f7420656d7074790000600082015250565b60006114cb601e83610d85565b91506114d682611495565b602082019050919050565b600060208201905081810360008301526114fa816114be565b9050919050565b7f5370656369616c697a6174696f6e2073686f756c64206e6f7420656d70747900600082015250565b6000611537601f83610d85565b915061154282611501565b602082019050919050565b600060208201905081810360008301526115668161152a565b9050919050565b600060608201905081810360008301526115878186610dda565b9050818103602083015261159b8185610dda565b905081810360408301526115af8184610dda565b905094935050505056fea264697066735822122034201a0f64a3870a3d9d93d9e82b026892927ac37c51debc9eed03f329100a6864736f6c63430008090033",
  "immutableReferences": {},
  "source": "// SPDX-License-Identifier: MIT\npragma solidity >=0.4.22 <0.9.0;\n\ncontract HealthChain {\n    string public name = \"HealthChain\";\n    string public version = \"0.1\";\n\n    struct Prescription {\n        string notes;\n        uint256 timestamp;\n        address payable createdBy;\n    }\n\n    struct Patient {\n        address payable patientId;\n        string fullName;\n        uint256 age;\n        string sex;\n        uint256 createdDate;\n        address[] allowedDoctors;\n        Prescription[] prescriptionNotes;\n    }\n\n    struct Doctor {\n        address payable doctorId;\n        string fullName;\n        string hospitalName;\n        string specialization;\n        uint256 createdDate;\n    }\n\n    mapping(address => Patient) private patientDataOf;\n    mapping(address => Doctor) public doctorDataOf;\n\n    event PatientRegistered(string fullName, uint256 age, string sex);\n    event DoctorRegistered(\n        string fullName,\n        string hospitalName,\n        string specialization\n    );\n\n    constructor() {}\n\n    function registerPatient(\n        string memory _fullName,\n        uint256 _age,\n        string memory _sex\n    ) public returns (bool success) {\n        require(\n            bytes(patientDataOf[msg.sender].fullName).length <= 0,\n            \"Registration already exists\"\n        );\n        require(bytes(_fullName).length > 0, \"Name should not empty\");\n        require(_age > 0, \"Age should not empty\");\n        require(bytes(_sex).length > 0, \"Sex should not empty\");\n\n        Patient storage newPatient = patientDataOf[msg.sender];\n        newPatient.fullName = _fullName;\n        newPatient.age = _age;\n        newPatient.sex = _sex;\n        newPatient.createdDate = block.timestamp;\n\n        emit PatientRegistered(_fullName, _age, _sex);\n        return true;\n    }\n\n    function getPatientData(address _patientId)\n        public\n        view\n        returns (\n            string memory fullName,\n            uint256 age,\n            string memory sex\n        )\n    {\n        Patient memory patientData = patientDataOf[_patientId];\n\n        return (patientData.fullName, patientData.age, patientData.sex);\n    }\n\n    function registerDoctor(\n        string memory _fullName,\n        string memory _hospitalName,\n        string memory _specialization\n    ) public returns (bool success) {\n        require(\n            bytes(doctorDataOf[msg.sender].fullName).length <= 0,\n            \"Registration already exists\"\n        );\n        require(bytes(_fullName).length > 0, \"Name should not empty\");\n        require(\n            bytes(_hospitalName).length > 0,\n            \"Hospital Name should not empty\"\n        );\n        require(\n            bytes(_specialization).length > 0,\n            \"Specialization should not empty\"\n        );\n\n        Doctor storage newDoctor = doctorDataOf[msg.sender];\n        newDoctor.fullName = _fullName;\n        newDoctor.hospitalName = _hospitalName;\n        newDoctor.specialization = _specialization;\n        newDoctor.createdDate = block.timestamp;\n\n        emit DoctorRegistered(_fullName, _hospitalName, _specialization);\n\n        return true;\n    }\n}\n",
  "sourcePath": "/Users/z3r0c00l-2k/Documents/Projects/Hobbies/health-chain/smartcontracts/contracts/HealthChain.sol",
  "compiler": {
    "name": "solc",
    "version": "0.8.9+commit.e5eed63a.Emscripten.clang"
  },
  "schemaVersion": "3.4.3",
  "updatedAt": "2021-11-18T19:26:51.919Z",
  "networkType": "ethereum",
  "devdoc": {
    "kind": "dev",
    "methods": {},
    "version": 1
  },
  "userdoc": {
    "kind": "user",
    "methods": {},
    "version": 1
  }
}