{
  "contractName": "HealthChain",
  "abi": [
    {
      "inputs": [],
      "stateMutability": "nonpayable",
      "type": "constructor"
    },
    {
      "anonymous": false,
      "inputs": [
        {
          "indexed": false,
          "internalType": "string",
          "name": "fullName",
          "type": "string"
        },
        {
          "indexed": false,
          "internalType": "string",
          "name": "hospitalName",
          "type": "string"
        },
        {
          "indexed": false,
          "internalType": "string",
          "name": "specialization",
          "type": "string"
        }
      ],
      "name": "DoctorRegistered",
      "type": "event"
    },
    {
      "anonymous": false,
      "inputs": [
        {
          "indexed": false,
          "internalType": "string",
          "name": "fullName",
          "type": "string"
        },
        {
          "indexed": false,
          "internalType": "uint256",
          "name": "age",
          "type": "uint256"
        },
        {
          "indexed": false,
          "internalType": "string",
          "name": "sex",
          "type": "string"
        }
      ],
      "name": "PatientRegistered",
      "type": "event"
    },
    {
      "inputs": [
        {
          "internalType": "address",
          "name": "",
          "type": "address"
        }
      ],
      "name": "doctorDataOf",
      "outputs": [
        {
          "internalType": "address payable",
          "name": "doctorId",
          "type": "address"
        },
        {
          "internalType": "string",
          "name": "fullName",
          "type": "string"
        },
        {
          "internalType": "string",
          "name": "hospitalName",
          "type": "string"
        },
        {
          "internalType": "string",
          "name": "specialization",
          "type": "string"
        },
        {
          "internalType": "uint256",
          "name": "createdDate",
          "type": "uint256"
        }
      ],
      "stateMutability": "view",
      "type": "function",
      "constant": true
    },
    {
      "inputs": [],
      "name": "name",
      "outputs": [
        {
          "internalType": "string",
          "name": "",
          "type": "string"
        }
      ],
      "stateMutability": "view",
      "type": "function",
      "constant": true
    },
    {
      "inputs": [],
      "name": "version",
      "outputs": [
        {
          "internalType": "string",
          "name": "",
          "type": "string"
        }
      ],
      "stateMutability": "view",
      "type": "function",
      "constant": true
    },
    {
      "inputs": [
        {
          "internalType": "string",
          "name": "_fullName",
          "type": "string"
        },
        {
          "internalType": "uint256",
          "name": "_age",
          "type": "uint256"
        },
        {
          "internalType": "string",
          "name": "_sex",
          "type": "string"
        }
      ],
      "name": "registerPatient",
      "outputs": [
        {
          "internalType": "bool",
          "name": "success",
          "type": "bool"
        }
      ],
      "stateMutability": "nonpayable",
      "type": "function"
    },
    {
      "inputs": [
        {
          "internalType": "address",
          "name": "_patientId",
          "type": "address"
        }
      ],
      "name": "getPatientData",
      "outputs": [
        {
          "internalType": "string",
          "name": "fullName",
          "type": "string"
        },
        {
          "internalType": "uint256",
          "name": "age",
          "type": "uint256"
        },
        {
          "internalType": "string",
          "name": "sex",
          "type": "string"
        },
        {
          "internalType": "string",
          "name": "status",
          "type": "string"
        }
      ],
      "stateMutability": "view",
      "type": "function",
      "constant": true
    },
    {
      "inputs": [],
      "name": "getUserData",
      "outputs": [
        {
          "internalType": "string",
          "name": "fullName",
          "type": "string"
        },
        {
          "internalType": "bool",
          "name": "isDoctor",
          "type": "bool"
        },
        {
          "internalType": "string",
          "name": "hospitalName",
          "type": "string"
        },
        {
          "internalType": "string",
          "name": "specialization",
          "type": "string"
        }
      ],
      "stateMutability": "view",
      "type": "function",
      "constant": true
    },
    {
      "inputs": [
        {
          "internalType": "string",
          "name": "_fullName",
          "type": "string"
        },
        {
          "internalType": "string",
          "name": "_hospitalName",
          "type": "string"
        },
        {
          "internalType": "string",
          "name": "_specialization",
          "type": "string"
        }
      ],
      "name": "registerDoctor",
      "outputs": [
        {
          "internalType": "bool",
          "name": "success",
          "type": "bool"
        }
      ],
      "stateMutability": "nonpayable",
      "type": "function"
    },
    {
      "inputs": [
        {
          "internalType": "address",
          "name": "_patientId",
          "type": "address"
        }
      ],
      "name": "requestForPatientAccess",
      "outputs": [
        {
          "internalType": "bool",
          "name": "success",
          "type": "bool"
        }
      ],
      "stateMutability": "nonpayable",
      "type": "function"
    },
    {
      "inputs": [],
      "name": "getDoctorRequests",
      "outputs": [
        {
          "internalType": "address[]",
          "name": "requestedDoctors",
          "type": "address[]"
        }
      ],
      "stateMutability": "view",
      "type": "function",
      "constant": true
    },
    {
      "inputs": [
        {
          "internalType": "address",
          "name": "_doctorId",
          "type": "address"
        },
        {
          "internalType": "bool",
          "name": "_isAllowed",
          "type": "bool"
        }
      ],
      "name": "reviewDoctorRequest",
      "outputs": [
        {
          "internalType": "bool",
          "name": "success",
          "type": "bool"
        }
      ],
      "stateMutability": "nonpayable",
      "type": "function"
    },
    {
      "inputs": [
        {
          "internalType": "address",
          "name": "_doctorId",
          "type": "address"
        }
      ],
      "name": "revokePermission",
      "outputs": [
        {
          "internalType": "bool",
          "name": "success",
          "type": "bool"
        }
      ],
      "stateMutability": "nonpayable",
      "type": "function"
    },
    {
      "inputs": [
        {
          "internalType": "address",
          "name": "_patientId",
          "type": "address"
        }
      ],
      "name": "getPatientHealth",
      "outputs": [
        {
          "internalType": "string",
          "name": "fullName",
          "type": "string"
        },
        {
          "internalType": "uint256",
          "name": "age",
          "type": "uint256"
        },
        {
          "internalType": "string",
          "name": "sex",
          "type": "string"
        },
        {
          "internalType": "uint256",
          "name": "createdDate",
          "type": "uint256"
        },
        {
          "components": [
            {
              "internalType": "string",
              "name": "note",
              "type": "string"
            },
            {
              "internalType": "uint256",
              "name": "timestamp",
              "type": "uint256"
            },
            {
              "internalType": "address payable",
              "name": "createdBy",
              "type": "address"
            }
          ],
          "internalType": "struct HealthChain.Prescription[]",
          "name": "prescriptionNotes",
          "type": "tuple[]"
        }
      ],
      "stateMutability": "view",
      "type": "function",
      "constant": true
    },
    {
      "inputs": [
        {
          "internalType": "address",
          "name": "_patientId",
          "type": "address"
        },
        {
          "internalType": "string",
          "name": "_note",
          "type": "string"
        }
      ],
      "name": "addPrescription",
      "outputs": [
        {
          "internalType": "bool",
          "name": "success",
          "type": "bool"
        }
      ],
      "stateMutability": "nonpayable",
      "type": "function"
    }
  ],
  "bytecode": "0x60806040526040518060400160405280600b81526020017f4865616c7468436861696e0000000000000000000000000000000000000000008152506000908051906020019062000051929190620000b4565b506040518060400160405280600381526020017f302e310000000000000000000000000000000000000000000000000000000000815250600190805190602001906200009f929190620000b4565b50348015620000ad57600080fd5b50620001c9565b828054620000c29062000193565b90600052602060002090601f016020900481019282620000e6576000855562000132565b82601f106200010157805160ff191683800117855562000132565b8280016001018555821562000132579182015b828111156200013157825182559160200191906001019062000114565b5b50905062000141919062000145565b5090565b5b808211156200016057600081600090555060010162000146565b5090565b7f4e487b7100000000000000000000000000000000000000000000000000000000600052602260045260246000fd5b60006002820490506001821680620001ac57607f821691505b60208210811415620001c357620001c262000164565b5b50919050565b613eb180620001d96000396000f3fe608060405234801561001057600080fd5b50600436106100ec576000357c01000000000000000000000000000000000000000000000000000000009004806348e81852116100a9578063a3bf5b9a11610083578063a3bf5b9a14610263578063a3e12bc014610293578063b567754d146102c3578063c10c8925146102f3576100ec565b806348e81852146101e257806350c7a9121461021557806354fd4d5014610245576100ec565b806305b1c356146100f157806306fdde031461010f5780631d14c36e1461012d57806322e8c87d1461015d5780633734416c1461017e57806346deb2fe146101b2575b600080fd5b6100f9610327565b6040516101069190612dc2565b60405180910390f35b61011761048c565b6040516101249190612e7d565b60405180910390f35b6101476004803603810190610142919061301e565b61051a565b60405161015491906130c4565b60405180910390f35b610165610746565b60405161017594939291906130df565b60405180910390f35b61019860048036038101906101939190613165565b610eb1565b6040516101a995949392919061332d565b60405180910390f35b6101cc60048036038101906101c79190613165565b61129e565b6040516101d991906130c4565b60405180910390f35b6101fc60048036038101906101f79190613165565b611691565b60405161020c9493929190613395565b60405180910390f35b61022f600480360381019061022a91906133ef565b611d62565b60405161023c91906130c4565b60405180910390f35b61024d611f9f565b60405161025a9190612e7d565b60405180910390f35b61027d60048036038101906102789190613165565b61202d565b60405161028a91906130c4565b60405180910390f35b6102ad60048036038101906102a89190613496565b61234e565b6040516102ba91906130c4565b60405180910390f35b6102dd60048036038101906102d8919061351e565b6125c8565b6040516102ea91906130c4565b60405180910390f35b61030d60048036038101906103089190613165565b61299b565b60405161031e95949392919061356d565b60405180910390f35b60606000600260003373ffffffffffffffffffffffffffffffffffffffff1673ffffffffffffffffffffffffffffffffffffffff168152602001908152602001600020600101805461037890613604565b9050116103ba576040517f08c379a00000000000000000000000000000000000000000000000000000000081526004016103b190613682565b60405180910390fd5b6000600260003373ffffffffffffffffffffffffffffffffffffffff1673ffffffffffffffffffffffffffffffffffffffff16815260200190815260200160002090508060050180548060200260200160405190810160405280929190818152602001828054801561048157602002820191906000526020600020905b8160009054906101000a900473ffffffffffffffffffffffffffffffffffffffff1673ffffffffffffffffffffffffffffffffffffffff1681526020019060010190808311610437575b505050505091505090565b6000805461049990613604565b80601f01602080910402602001604051908101604052809291908181526020018280546104c590613604565b80156105125780601f106104e757610100808354040283529160200191610512565b820191906000526020600020905b8154815290600101906020018083116104f557829003601f168201915b505050505081565b600080600260003373ffffffffffffffffffffffffffffffffffffffff1673ffffffffffffffffffffffffffffffffffffffff168152602001908152602001600020600101805461056a90613604565b905011156105ad576040517f08c379a00000000000000000000000000000000000000000000000000000000081526004016105a4906136ee565b60405180910390fd5b60008451116105f1576040517f08c379a00000000000000000000000000000000000000000000000000000000081526004016105e89061375a565b60405180910390fd5b60008311610634576040517f08c379a000000000000000000000000000000000000000000000000000000000815260040161062b906137c6565b60405180910390fd5b6000825111610678576040517f08c379a000000000000000000000000000000000000000000000000000000000815260040161066f90613832565b60405180910390fd5b6000600260003373ffffffffffffffffffffffffffffffffffffffff1673ffffffffffffffffffffffffffffffffffffffff1681526020019081526020016000209050848160010190805190602001906106d3929190612c2f565b50838160020181905550828160030190805190602001906106f5929190612c2f565b504281600401819055507fb36df68004bfda39fb94d7b871103e2b4b5797c46e2e023f1e428145414b678185858560405161073293929190613852565b60405180910390a160019150509392505050565b606060006060806000600260003373ffffffffffffffffffffffffffffffffffffffff1673ffffffffffffffffffffffffffffffffffffffff168152602001908152602001600020604051806101000160405290816000820160009054906101000a900473ffffffffffffffffffffffffffffffffffffffff1673ffffffffffffffffffffffffffffffffffffffff1673ffffffffffffffffffffffffffffffffffffffff16815260200160018201805461080090613604565b80601f016020809104026020016040519081016040528092919081815260200182805461082c90613604565b80156108795780601f1061084e57610100808354040283529160200191610879565b820191906000526020600020905b81548152906001019060200180831161085c57829003601f168201915b505050505081526020016002820154815260200160038201805461089c90613604565b80601f01602080910402602001604051908101604052809291908181526020018280546108c890613604565b80156109155780601f106108ea57610100808354040283529160200191610915565b820191906000526020600020905b8154815290600101906020018083116108f857829003601f168201915b5050505050815260200160048201548152602001600582018054806020026020016040519081016040528092919081815260200182805480156109ad57602002820191906000526020600020905b8160009054906101000a900473ffffffffffffffffffffffffffffffffffffffff1673ffffffffffffffffffffffffffffffffffffffff1681526020019060010190808311610963575b5050505050815260200160068201805480602002602001604051908101604052809291908181526020018280548015610a3b57602002820191906000526020600020905b8160009054906101000a900473ffffffffffffffffffffffffffffffffffffffff1673ffffffffffffffffffffffffffffffffffffffff16815260200190600101908083116109f1575b5050505050815260200160078201805480602002602001604051908101604052809291908181526020016000905b82821015610b8d5783829060005260206000209060030201604051806060016040529081600082018054610a9c90613604565b80601f0160208091040260200160405190810160405280929190818152602001828054610ac890613604565b8015610b155780601f10610aea57610100808354040283529160200191610b15565b820191906000526020600020905b815481529060010190602001808311610af857829003601f168201915b50505050508152602001600182015481526020016002820160009054906101000a900473ffffffffffffffffffffffffffffffffffffffff1673ffffffffffffffffffffffffffffffffffffffff1673ffffffffffffffffffffffffffffffffffffffff168152505081526020019060010190610a69565b505050508152505090506000600360003373ffffffffffffffffffffffffffffffffffffffff1673ffffffffffffffffffffffffffffffffffffffff1681526020019081526020016000206040518060a00160405290816000820160009054906101000a900473ffffffffffffffffffffffffffffffffffffffff1673ffffffffffffffffffffffffffffffffffffffff1673ffffffffffffffffffffffffffffffffffffffff168152602001600182018054610c4990613604565b80601f0160208091040260200160405190810160405280929190818152602001828054610c7590613604565b8015610cc25780601f10610c9757610100808354040283529160200191610cc2565b820191906000526020600020905b815481529060010190602001808311610ca557829003601f168201915b50505050508152602001600282018054610cdb90613604565b80601f0160208091040260200160405190810160405280929190818152602001828054610d0790613604565b8015610d545780601f10610d2957610100808354040283529160200191610d54565b820191906000526020600020905b815481529060010190602001808311610d3757829003601f168201915b50505050508152602001600382018054610d6d90613604565b80601f0160208091040260200160405190810160405280929190818152602001828054610d9990613604565b8015610de65780601f10610dbb57610100808354040283529160200191610de6565b820191906000526020600020905b815481529060010190602001808311610dc957829003601f168201915b50505050508152602001600482015481525050905060008260200151511115610e3f5781602001516000604051806020016040528060008152506040518060200160405280600081525095509550955095505050610eab565b60008160200151511115610e6d57806020015160018260400151836060015195509550955095505050610eab565b600060405180602001604052806000815250906040518060200160405280600081525060405180602001604052806000815250955095509550955050505b90919293565b606060006060600060606000610f8d600260008973ffffffffffffffffffffffffffffffffffffffff1673ffffffffffffffffffffffffffffffffffffffff168152602001908152602001600020600601805480602002602001604051908101604052809291908181526020018280548015610f8257602002820191906000526020600020905b8160009054906101000a900473ffffffffffffffffffffffffffffffffffffffff1673ffffffffffffffffffffffffffffffffffffffff1681526020019060010190808311610f38575b505050505033612b89565b1215610fce576040517f08c379a0000000000000000000000000000000000000000000000000000000008152600401610fc5906138e3565b60405180910390fd5b6000600260008873ffffffffffffffffffffffffffffffffffffffff1673ffffffffffffffffffffffffffffffffffffffff16815260200190815260200160002090508060010181600201548260030183600401548460070184805461103390613604565b80601f016020809104026020016040519081016040528092919081815260200182805461105f90613604565b80156110ac5780601f10611081576101008083540402835291602001916110ac565b820191906000526020600020905b81548152906001019060200180831161108f57829003601f168201915b505050505094508280546110bf90613604565b80601f01602080910402602001604051908101604052809291908181526020018280546110eb90613604565b80156111385780601f1061110d57610100808354040283529160200191611138565b820191906000526020600020905b81548152906001019060200180831161111b57829003601f168201915b5050505050925080805480602002602001604051908101604052809291908181526020016000905b82821015611284578382906000526020600020906003020160405180606001604052908160008201805461119390613604565b80601f01602080910402602001604051908101604052809291908181526020018280546111bf90613604565b801561120c5780601f106111e15761010080835404028352916020019161120c565b820191906000526020600020905b8154815290600101906020018083116111ef57829003601f168201915b50505050508152602001600182015481526020016002820160009054906101000a900473ffffffffffffffffffffffffffffffffffffffff1673ffffffffffffffffffffffffffffffffffffffff1673ffffffffffffffffffffffffffffffffffffffff168152505081526020019060010190611160565b505050509050955095509550955095505091939590929450565b600080600360003373ffffffffffffffffffffffffffffffffffffffff1673ffffffffffffffffffffffffffffffffffffffff16815260200190815260200160002060010180546112ee90613604565b905011611330576040517f08c379a00000000000000000000000000000000000000000000000000000000081526004016113279061394f565b60405180910390fd5b6000600260008473ffffffffffffffffffffffffffffffffffffffff1673ffffffffffffffffffffffffffffffffffffffff168152602001908152602001600020600101805461137f90613604565b9050116113c1576040517f08c379a00000000000000000000000000000000000000000000000000000000081526004016113b8906139bb565b60405180910390fd5b6000611493600260008573ffffffffffffffffffffffffffffffffffffffff1673ffffffffffffffffffffffffffffffffffffffff16815260200190815260200160002060060180548060200260200160405190810160405280929190818152602001828054801561148857602002820191906000526020600020905b8160009054906101000a900473ffffffffffffffffffffffffffffffffffffffff1673ffffffffffffffffffffffffffffffffffffffff168152602001906001019080831161143e575b505050505033612b89565b126114d3576040517f08c379a00000000000000000000000000000000000000000000000000000000081526004016114ca90613a27565b60405180910390fd5b60006115a5600260008573ffffffffffffffffffffffffffffffffffffffff1673ffffffffffffffffffffffffffffffffffffffff16815260200190815260200160002060050180548060200260200160405190810160405280929190818152602001828054801561159a57602002820191906000526020600020905b8160009054906101000a900473ffffffffffffffffffffffffffffffffffffffff1673ffffffffffffffffffffffffffffffffffffffff1681526020019060010190808311611550575b505050505033612b89565b126115e5576040517f08c379a00000000000000000000000000000000000000000000000000000000081526004016115dc90613a93565b60405180910390fd5b600260008373ffffffffffffffffffffffffffffffffffffffff1673ffffffffffffffffffffffffffffffffffffffff168152602001908152602001600020600501339080600181540180825580915050600190039060005260206000200160009091909190916101000a81548173ffffffffffffffffffffffffffffffffffffffff021916908373ffffffffffffffffffffffffffffffffffffffff16021790555060019050919050565b606060006060806000600260008773ffffffffffffffffffffffffffffffffffffffff1673ffffffffffffffffffffffffffffffffffffffff168152602001908152602001600020604051806101000160405290816000820160009054906101000a900473ffffffffffffffffffffffffffffffffffffffff1673ffffffffffffffffffffffffffffffffffffffff1673ffffffffffffffffffffffffffffffffffffffff16815260200160018201805461174b90613604565b80601f016020809104026020016040519081016040528092919081815260200182805461177790613604565b80156117c45780601f10611799576101008083540402835291602001916117c4565b820191906000526020600020905b8154815290600101906020018083116117a757829003601f168201915b50505050508152602001600282015481526020016003820180546117e790613604565b80601f016020809104026020016040519081016040528092919081815260200182805461181390613604565b80156118605780601f1061183557610100808354040283529160200191611860565b820191906000526020600020905b81548152906001019060200180831161184357829003601f168201915b5050505050815260200160048201548152602001600582018054806020026020016040519081016040528092919081815260200182805480156118f857602002820191906000526020600020905b8160009054906101000a900473ffffffffffffffffffffffffffffffffffffffff1673ffffffffffffffffffffffffffffffffffffffff16815260200190600101908083116118ae575b505050505081526020016006820180548060200260200160405190810160405280929190818152602001828054801561198657602002820191906000526020600020905b8160009054906101000a900473ffffffffffffffffffffffffffffffffffffffff1673ffffffffffffffffffffffffffffffffffffffff168152602001906001019080831161193c575b5050505050815260200160078201805480602002602001604051908101604052809291908181526020016000905b82821015611ad857838290600052602060002090600302016040518060600160405290816000820180546119e790613604565b80601f0160208091040260200160405190810160405280929190818152602001828054611a1390613604565b8015611a605780601f10611a3557610100808354040283529160200191611a60565b820191906000526020600020905b815481529060010190602001808311611a4357829003601f168201915b50505050508152602001600182015481526020016002820160009054906101000a900473ffffffffffffffffffffffffffffffffffffffff1673ffffffffffffffffffffffffffffffffffffffff1673ffffffffffffffffffffffffffffffffffffffff1681525050815260200190600101906119b4565b5050505081525050905060006040518060400160405280600481526020017f6e6f6e650000000000000000000000000000000000000000000000000000000081525090506000611bee600260008a73ffffffffffffffffffffffffffffffffffffffff1673ffffffffffffffffffffffffffffffffffffffff168152602001908152602001600020600501805480602002602001604051908101604052809291908181526020018280548015611be357602002820191906000526020600020905b8160009054906101000a900473ffffffffffffffffffffffffffffffffffffffff1673ffffffffffffffffffffffffffffffffffffffff1681526020019060010190808311611b99575b505050505033612b89565b12611c30576040518060400160405280600981526020017f72657175657374656400000000000000000000000000000000000000000000008152509050611d41565b6000611d02600260008a73ffffffffffffffffffffffffffffffffffffffff1673ffffffffffffffffffffffffffffffffffffffff168152602001908152602001600020600601805480602002602001604051908101604052809291908181526020018280548015611cf757602002820191906000526020600020905b8160009054906101000a900473ffffffffffffffffffffffffffffffffffffffff1673ffffffffffffffffffffffffffffffffffffffff1681526020019060010190808311611cad575b505050505033612b89565b12611d40576040518060400160405280600881526020017f617070726f76656400000000000000000000000000000000000000000000000081525090505b5b81602001518260400151836060015183955095509550955050509193509193565b600080600360003373ffffffffffffffffffffffffffffffffffffffff1673ffffffffffffffffffffffffffffffffffffffff1681526020019081526020016000206001018054611db290613604565b90501115611df5576040517f08c379a0000000000000000000000000000000000000000000000000000000008152600401611dec906136ee565b60405180910390fd5b6000845111611e39576040517f08c379a0000000000000000000000000000000000000000000000000000000008152600401611e309061375a565b60405180910390fd5b6000835111611e7d576040517f08c379a0000000000000000000000000000000000000000000000000000000008152600401611e7490613aff565b60405180910390fd5b6000825111611ec1576040517f08c379a0000000000000000000000000000000000000000000000000000000008152600401611eb890613b6b565b60405180910390fd5b6000600360003373ffffffffffffffffffffffffffffffffffffffff1673ffffffffffffffffffffffffffffffffffffffff168152602001908152602001600020905084816001019080519060200190611f1c929190612c2f565b5083816002019080519060200190611f35929190612c2f565b5082816003019080519060200190611f4e929190612c2f565b504281600401819055507f1187c17101d2ad9d5a17b4990710f2be353a26783d7627f24824dd75475ddea2858585604051611f8b93929190613b8b565b60405180910390a160019150509392505050565b60018054611fac90613604565b80601f0160208091040260200160405190810160405280929190818152602001828054611fd890613604565b80156120255780601f10611ffa57610100808354040283529160200191612025565b820191906000526020600020905b81548152906001019060200180831161200857829003601f168201915b505050505081565b600080600260003373ffffffffffffffffffffffffffffffffffffffff1673ffffffffffffffffffffffffffffffffffffffff168152602001908152602001600020600101805461207d90613604565b9050116120bf576040517f08c379a00000000000000000000000000000000000000000000000000000000081526004016120b690613682565b60405180910390fd5b6000612191600260003373ffffffffffffffffffffffffffffffffffffffff1673ffffffffffffffffffffffffffffffffffffffff16815260200190815260200160002060060180548060200260200160405190810160405280929190818152602001828054801561218657602002820191906000526020600020905b8160009054906101000a900473ffffffffffffffffffffffffffffffffffffffff1673ffffffffffffffffffffffffffffffffffffffff168152602001906001019080831161213c575b505050505084612b89565b905060008112156121d7576040517f08c379a00000000000000000000000000000000000000000000000000000000081526004016121ce90613c23565b60405180910390fd5b6000600260003373ffffffffffffffffffffffffffffffffffffffff1673ffffffffffffffffffffffffffffffffffffffff168152602001908152602001600020905060008290505b600182600601805490506122349190613c72565b8110156122f9578160060160018261224c9190613ca6565b8154811061225d5761225c613cfc565b5b9060005260206000200160009054906101000a900473ffffffffffffffffffffffffffffffffffffffff1682600601828154811061229e5761229d613cfc565b5b9060005260206000200160006101000a81548173ffffffffffffffffffffffffffffffffffffffff021916908373ffffffffffffffffffffffffffffffffffffffff16021790555080806122f190613d2b565b915050612220565b508060060180548061230e5761230d613d74565b5b6001900381819060005260206000200160006101000a81549073ffffffffffffffffffffffffffffffffffffffff02191690559055600192505050919050565b600080825111612393576040517f08c379a000000000000000000000000000000000000000000000000000000000815260040161238a90613def565b60405180910390fd5b6000612465600260008673ffffffffffffffffffffffffffffffffffffffff1673ffffffffffffffffffffffffffffffffffffffff16815260200190815260200160002060060180548060200260200160405190810160405280929190818152602001828054801561245a57602002820191906000526020600020905b8160009054906101000a900473ffffffffffffffffffffffffffffffffffffffff1673ffffffffffffffffffffffffffffffffffffffff1681526020019060010190808311612410575b505050505033612b89565b12156124a6576040517f08c379a000000000000000000000000000000000000000000000000000000000815260040161249d906138e3565b60405180910390fd5b600060405180606001604052808481526020014281526020013373ffffffffffffffffffffffffffffffffffffffff1681525090506000600260008673ffffffffffffffffffffffffffffffffffffffff1673ffffffffffffffffffffffffffffffffffffffff1681526020019081526020016000209050806007018290806001815401808255809150506001900390600052602060002090600302016000909190919091506000820151816000019080519060200190612568929190612c2f565b506020820151816001015560408201518160020160006101000a81548173ffffffffffffffffffffffffffffffffffffffff021916908373ffffffffffffffffffffffffffffffffffffffff160217905550505060019250505092915050565b600080600260003373ffffffffffffffffffffffffffffffffffffffff1673ffffffffffffffffffffffffffffffffffffffff168152602001908152602001600020600101805461261890613604565b90501161265a576040517f08c379a000000000000000000000000000000000000000000000000000000000815260040161265190613682565b60405180910390fd5b600061272c600260003373ffffffffffffffffffffffffffffffffffffffff1673ffffffffffffffffffffffffffffffffffffffff16815260200190815260200160002060050180548060200260200160405190810160405280929190818152602001828054801561272157602002820191906000526020600020905b8160009054906101000a900473ffffffffffffffffffffffffffffffffffffffff1673ffffffffffffffffffffffffffffffffffffffff16815260200190600101908083116126d7575b505050505085612b89565b90506000811215612772576040517f08c379a000000000000000000000000000000000000000000000000000000000815260040161276990613e5b565b60405180910390fd5b60011515831515141561282357600260003373ffffffffffffffffffffffffffffffffffffffff1673ffffffffffffffffffffffffffffffffffffffff168152602001908152602001600020600601849080600181540180825580915050600190039060005260206000200160009091909190916101000a81548173ffffffffffffffffffffffffffffffffffffffff021916908373ffffffffffffffffffffffffffffffffffffffff1602179055505b6000600260003373ffffffffffffffffffffffffffffffffffffffff1673ffffffffffffffffffffffffffffffffffffffff168152602001908152602001600020905060008290505b600182600501805490506128809190613c72565b81101561294557816005016001826128989190613ca6565b815481106128a9576128a8613cfc565b5b9060005260206000200160009054906101000a900473ffffffffffffffffffffffffffffffffffffffff168260050182815481106128ea576128e9613cfc565b5b9060005260206000200160006101000a81548173ffffffffffffffffffffffffffffffffffffffff021916908373ffffffffffffffffffffffffffffffffffffffff160217905550808061293d90613d2b565b91505061286c565b508060050180548061295a57612959613d74565b5b6001900381819060005260206000200160006101000a81549073ffffffffffffffffffffffffffffffffffffffff0219169055905560019250505092915050565b60036020528060005260406000206000915090508060000160009054906101000a900473ffffffffffffffffffffffffffffffffffffffff16908060010180546129e490613604565b80601f0160208091040260200160405190810160405280929190818152602001828054612a1090613604565b8015612a5d5780601f10612a3257610100808354040283529160200191612a5d565b820191906000526020600020905b815481529060010190602001808311612a4057829003601f168201915b505050505090806002018054612a7290613604565b80601f0160208091040260200160405190810160405280929190818152602001828054612a9e90613604565b8015612aeb5780601f10612ac057610100808354040283529160200191612aeb565b820191906000526020600020905b815481529060010190602001808311612ace57829003601f168201915b505050505090806003018054612b0090613604565b80601f0160208091040260200160405190810160405280929190818152602001828054612b2c90613604565b8015612b795780601f10612b4e57610100808354040283529160200191612b79565b820191906000526020600020905b815481529060010190602001808311612b5c57829003601f168201915b5050505050908060040154905085565b6000807fffffffffffffffffffffffffffffffffffffffffffffffffffffffffffffffff905060005b8451811015612c2457848181518110612bce57612bcd613cfc565b5b602002602001015173ffffffffffffffffffffffffffffffffffffffff168473ffffffffffffffffffffffffffffffffffffffff161415612c1157809150612c24565b8080612c1c90613d2b565b915050612bb2565b508091505092915050565b828054612c3b90613604565b90600052602060002090601f016020900481019282612c5d5760008555612ca4565b82601f10612c7657805160ff1916838001178555612ca4565b82800160010185558215612ca4579182015b82811115612ca3578251825591602001919060010190612c88565b5b509050612cb19190612cb5565b5090565b5b80821115612cce576000816000905550600101612cb6565b5090565b600081519050919050565b600082825260208201905092915050565b6000819050602082019050919050565b600073ffffffffffffffffffffffffffffffffffffffff82169050919050565b6000612d2982612cfe565b9050919050565b612d3981612d1e565b82525050565b6000612d4b8383612d30565b60208301905092915050565b6000602082019050919050565b6000612d6f82612cd2565b612d798185612cdd565b9350612d8483612cee565b8060005b83811015612db5578151612d9c8882612d3f565b9750612da783612d57565b925050600181019050612d88565b5085935050505092915050565b60006020820190508181036000830152612ddc8184612d64565b905092915050565b600081519050919050565b600082825260208201905092915050565b60005b83811015612e1e578082015181840152602081019050612e03565b83811115612e2d576000848401525b50505050565b6000601f19601f8301169050919050565b6000612e4f82612de4565b612e598185612def565b9350612e69818560208601612e00565b612e7281612e33565b840191505092915050565b60006020820190508181036000830152612e978184612e44565b905092915050565b6000604051905090565b600080fd5b600080fd5b600080fd5b600080fd5b7f4e487b7100000000000000000000000000000000000000000000000000000000600052604160045260246000fd5b612ef582612e33565b810181811067ffffffffffffffff82111715612f1457612f13612ebd565b5b80604052505050565b6000612f27612e9f565b9050612f338282612eec565b919050565b600067ffffffffffffffff821115612f5357612f52612ebd565b5b612f5c82612e33565b9050602081019050919050565b82818337600083830152505050565b6000612f8b612f8684612f38565b612f1d565b905082815260208101848484011115612fa757612fa6612eb8565b5b612fb2848285612f69565b509392505050565b600082601f830112612fcf57612fce612eb3565b5b8135612fdf848260208601612f78565b91505092915050565b6000819050919050565b612ffb81612fe8565b811461300657600080fd5b50565b60008135905061301881612ff2565b92915050565b60008060006060848603121561303757613036612ea9565b5b600084013567ffffffffffffffff81111561305557613054612eae565b5b61306186828701612fba565b935050602061307286828701613009565b925050604084013567ffffffffffffffff81111561309357613092612eae565b5b61309f86828701612fba565b9150509250925092565b60008115159050919050565b6130be816130a9565b82525050565b60006020820190506130d960008301846130b5565b92915050565b600060808201905081810360008301526130f98187612e44565b905061310860208301866130b5565b818103604083015261311a8185612e44565b9050818103606083015261312e8184612e44565b905095945050505050565b61314281612d1e565b811461314d57600080fd5b50565b60008135905061315f81613139565b92915050565b60006020828403121561317b5761317a612ea9565b5b600061318984828501613150565b91505092915050565b61319b81612fe8565b82525050565b600081519050919050565b600082825260208201905092915050565b6000819050602082019050919050565b600082825260208201905092915050565b60006131e982612de4565b6131f381856131cd565b9350613203818560208601612e00565b61320c81612e33565b840191505092915050565b61322081612fe8565b82525050565b600061323182612cfe565b9050919050565b61324181613226565b82525050565b6000606083016000830151848203600086015261326482826131de565b91505060208301516132796020860182613217565b50604083015161328c6040860182613238565b508091505092915050565b60006132a38383613247565b905092915050565b6000602082019050919050565b60006132c3826131a1565b6132cd81856131ac565b9350836020820285016132df856131bd565b8060005b8581101561331b57848403895281516132fc8582613297565b9450613307836132ab565b925060208a019950506001810190506132e3565b50829750879550505050505092915050565b600060a08201905081810360008301526133478188612e44565b90506133566020830187613192565b81810360408301526133688186612e44565b90506133776060830185613192565b818103608083015261338981846132b8565b90509695505050505050565b600060808201905081810360008301526133af8187612e44565b90506133be6020830186613192565b81810360408301526133d08185612e44565b905081810360608301526133e48184612e44565b905095945050505050565b60008060006060848603121561340857613407612ea9565b5b600084013567ffffffffffffffff81111561342657613425612eae565b5b61343286828701612fba565b935050602084013567ffffffffffffffff81111561345357613452612eae565b5b61345f86828701612fba565b925050604084013567ffffffffffffffff8111156134805761347f612eae565b5b61348c86828701612fba565b9150509250925092565b600080604083850312156134ad576134ac612ea9565b5b60006134bb85828601613150565b925050602083013567ffffffffffffffff8111156134dc576134db612eae565b5b6134e885828601612fba565b9150509250929050565b6134fb816130a9565b811461350657600080fd5b50565b600081359050613518816134f2565b92915050565b6000806040838503121561353557613534612ea9565b5b600061354385828601613150565b925050602061355485828601613509565b9150509250929050565b61356781613226565b82525050565b600060a082019050613582600083018861355e565b81810360208301526135948187612e44565b905081810360408301526135a88186612e44565b905081810360608301526135bc8185612e44565b90506135cb6080830184613192565b9695505050505050565b7f4e487b7100000000000000000000000000000000000000000000000000000000600052602260045260246000fd5b6000600282049050600182168061361c57607f821691505b602082108114156136305761362f6135d5565b5b50919050565b7f596f7520617265206e6f7420612070617469656e740000000000000000000000600082015250565b600061366c601583612def565b915061367782613636565b602082019050919050565b6000602082019050818103600083015261369b8161365f565b9050919050565b7f526567697374726174696f6e20616c7265616479206578697374730000000000600082015250565b60006136d8601b83612def565b91506136e3826136a2565b602082019050919050565b60006020820190508181036000830152613707816136cb565b9050919050565b7f4e616d652073686f756c64206e6f7420656d7074790000000000000000000000600082015250565b6000613744601583612def565b915061374f8261370e565b602082019050919050565b6000602082019050818103600083015261377381613737565b9050919050565b7f4167652073686f756c64206e6f7420656d707479000000000000000000000000600082015250565b60006137b0601483612def565b91506137bb8261377a565b602082019050919050565b600060208201905081810360008301526137df816137a3565b9050919050565b7f5365782073686f756c64206e6f7420656d707479000000000000000000000000600082015250565b600061381c601483612def565b9150613827826137e6565b602082019050919050565b6000602082019050818103600083015261384b8161380f565b9050919050565b6000606082019050818103600083015261386c8186612e44565b905061387b6020830185613192565b818103604083015261388d8184612e44565b9050949350505050565b7f596f7520617265206e6f7420616c6c6f77656420746f20616363657373000000600082015250565b60006138cd601d83612def565b91506138d882613897565b602082019050919050565b600060208201905081810360008301526138fc816138c0565b9050919050565b7f596f752073686f756c64206265206120646f63746f7200000000000000000000600082015250565b6000613939601683612def565b915061394482613903565b602082019050919050565b600060208201905081810360008301526139688161392c565b9050919050565b7f4e6f2070617469656e7420666f756e6420776974682074686973206964000000600082015250565b60006139a5601d83612def565b91506139b08261396f565b602082019050919050565b600060208201905081810360008301526139d481613998565b9050919050565b7f417070726f76616c20616c726561647920657869737473000000000000000000600082015250565b6000613a11601783612def565b9150613a1c826139db565b602082019050919050565b60006020820190508181036000830152613a4081613a04565b9050919050565b7f5265717565737420616c72656164792065786973747300000000000000000000600082015250565b6000613a7d601683612def565b9150613a8882613a47565b602082019050919050565b60006020820190508181036000830152613aac81613a70565b9050919050565b7f486f73706974616c204e616d652073686f756c64206e6f7420656d7074790000600082015250565b6000613ae9601e83612def565b9150613af482613ab3565b602082019050919050565b60006020820190508181036000830152613b1881613adc565b9050919050565b7f5370656369616c697a6174696f6e2073686f756c64206e6f7420656d70747900600082015250565b6000613b55601f83612def565b9150613b6082613b1f565b602082019050919050565b60006020820190508181036000830152613b8481613b48565b9050919050565b60006060820190508181036000830152613ba58186612e44565b90508181036020830152613bb98185612e44565b90508181036040830152613bcd8184612e44565b9050949350505050565b7f546865207065726d697373696f6e20646f6573206e6f74206578697374730000600082015250565b6000613c0d601e83612def565b9150613c1882613bd7565b602082019050919050565b60006020820190508181036000830152613c3c81613c00565b9050919050565b7f4e487b7100000000000000000000000000000000000000000000000000000000600052601160045260246000fd5b6000613c7d82612fe8565b9150613c8883612fe8565b925082821015613c9b57613c9a613c43565b5b828203905092915050565b6000613cb182612fe8565b9150613cbc83612fe8565b9250827fffffffffffffffffffffffffffffffffffffffffffffffffffffffffffffffff03821115613cf157613cf0613c43565b5b828201905092915050565b7f4e487b7100000000000000000000000000000000000000000000000000000000600052603260045260246000fd5b6000613d3682612fe8565b91507fffffffffffffffffffffffffffffffffffffffffffffffffffffffffffffffff821415613d6957613d68613c43565b5b600182019050919050565b7f4e487b7100000000000000000000000000000000000000000000000000000000600052603160045260246000fd5b7f4e6f7465732053686f756c64206e6f7420656d70747900000000000000000000600082015250565b6000613dd9601683612def565b9150613de482613da3565b602082019050919050565b60006020820190508181036000830152613e0881613dcc565b9050919050565b7f546865207265717565737420646f6573206e6f74206578697374730000000000600082015250565b6000613e45601b83612def565b9150613e5082613e0f565b602082019050919050565b60006020820190508181036000830152613e7481613e38565b905091905056fea264697066735822122016cdcd34570c11bc26607c099c881ca6c2db080bbadbe4383200f5f5c631631364736f6c63430008090033",
  "immutableReferences": {},
  "source": "// SPDX-License-Identifier: MIT\npragma solidity >=0.4.22 <0.9.0;\n\ncontract HealthChain {\n    string public name = \"HealthChain\";\n    string public version = \"0.1\";\n\n    struct Prescription {\n        string note;\n        uint256 timestamp;\n        address payable createdBy;\n    }\n\n    struct Patient {\n        address payable patientId;\n        string fullName;\n        uint256 age;\n        string sex;\n        uint256 createdDate;\n        address[] requestedDoctors;\n        address[] allowedDoctors;\n        Prescription[] prescriptionNotes;\n    }\n\n    struct Doctor {\n        address payable doctorId;\n        string fullName;\n        string hospitalName;\n        string specialization;\n        uint256 createdDate;\n    }\n\n    mapping(address => Patient) private patientDataOf;\n    mapping(address => Doctor) public doctorDataOf;\n\n    event PatientRegistered(string fullName, uint256 age, string sex);\n    event DoctorRegistered(\n        string fullName,\n        string hospitalName,\n        string specialization\n    );\n\n    constructor() {}\n\n    modifier onlyPatient() {\n        require(\n            bytes(patientDataOf[msg.sender].fullName).length > 0,\n            \"You are not a patient\"\n        );\n        _;\n    }\n    modifier onlyDoctor() {\n        require(\n            bytes(doctorDataOf[msg.sender].fullName).length > 0,\n            \"You should be a doctor\"\n        );\n        _;\n    }\n\n    function registerPatient(\n        string memory _fullName,\n        uint256 _age,\n        string memory _sex\n    ) public returns (bool success) {\n        require(\n            bytes(patientDataOf[msg.sender].fullName).length <= 0,\n            \"Registration already exists\"\n        );\n        require(bytes(_fullName).length > 0, \"Name should not empty\");\n        require(_age > 0, \"Age should not empty\");\n        require(bytes(_sex).length > 0, \"Sex should not empty\");\n\n        Patient storage newPatient = patientDataOf[msg.sender];\n        newPatient.fullName = _fullName;\n        newPatient.age = _age;\n        newPatient.sex = _sex;\n        newPatient.createdDate = block.timestamp;\n\n        emit PatientRegistered(_fullName, _age, _sex);\n        return true;\n    }\n\n    function getPatientData(address _patientId)\n        public\n        view\n        returns (\n            string memory fullName,\n            uint256 age,\n            string memory sex,\n            string memory status\n        )\n    {\n        Patient memory patientData = patientDataOf[_patientId];\n        string memory _status = \"none\";\n        if (\n            checkItemInsideAddress(\n                patientDataOf[_patientId].requestedDoctors,\n                msg.sender\n            ) >= 0\n        ) {\n            _status = \"requested\";\n        } else if (\n            checkItemInsideAddress(\n                patientDataOf[_patientId].allowedDoctors,\n                msg.sender\n            ) >= 0\n        ) {\n            _status = \"approved\";\n        }\n\n        return (\n            patientData.fullName,\n            patientData.age,\n            patientData.sex,\n            _status\n        );\n    }\n\n    function getUserData()\n        public\n        view\n        returns (\n            string memory fullName,\n            bool isDoctor,\n            string memory hospitalName,\n            string memory specialization\n        )\n    {\n        Patient memory patientData = patientDataOf[msg.sender];\n        Doctor memory doctorData = doctorDataOf[msg.sender];\n\n        if (bytes(patientData.fullName).length > 0) {\n            return (patientData.fullName, false, \"\", \"\");\n        }\n\n        if (bytes(doctorData.fullName).length > 0) {\n            return (\n                doctorData.fullName,\n                true,\n                doctorData.hospitalName,\n                doctorData.specialization\n            );\n        }\n\n        return (\"\", false, \"\", \"\");\n    }\n\n    function registerDoctor(\n        string memory _fullName,\n        string memory _hospitalName,\n        string memory _specialization\n    ) public returns (bool success) {\n        require(\n            bytes(doctorDataOf[msg.sender].fullName).length <= 0,\n            \"Registration already exists\"\n        );\n        require(bytes(_fullName).length > 0, \"Name should not empty\");\n        require(\n            bytes(_hospitalName).length > 0,\n            \"Hospital Name should not empty\"\n        );\n        require(\n            bytes(_specialization).length > 0,\n            \"Specialization should not empty\"\n        );\n\n        Doctor storage newDoctor = doctorDataOf[msg.sender];\n        newDoctor.fullName = _fullName;\n        newDoctor.hospitalName = _hospitalName;\n        newDoctor.specialization = _specialization;\n        newDoctor.createdDate = block.timestamp;\n\n        emit DoctorRegistered(_fullName, _hospitalName, _specialization);\n\n        return true;\n    }\n\n    function requestForPatientAccess(address _patientId)\n        public\n        onlyDoctor\n        returns (bool success)\n    {\n        require(\n            bytes(patientDataOf[_patientId].fullName).length > 0,\n            \"No patient found with this id\"\n        );\n        require(\n            checkItemInsideAddress(\n                patientDataOf[_patientId].allowedDoctors,\n                msg.sender\n            ) < 0,\n            \"Approval already exists\"\n        );\n        require(\n            checkItemInsideAddress(\n                patientDataOf[_patientId].requestedDoctors,\n                msg.sender\n            ) < 0,\n            \"Request already exists\"\n        );\n\n        patientDataOf[_patientId].requestedDoctors.push(msg.sender);\n\n        return true;\n    }\n\n    function getDoctorRequests()\n        public\n        view\n        onlyPatient\n        returns (address[] memory requestedDoctors)\n    {\n        Patient storage patientData = patientDataOf[msg.sender];\n\n        return patientData.requestedDoctors;\n    }\n\n    // TODO: Accept request from Doctor\n    function reviewDoctorRequest(address _doctorId, bool _isAllowed)\n        public\n        onlyPatient\n        returns (bool success)\n    {\n        int256 pos = checkItemInsideAddress(\n            patientDataOf[msg.sender].requestedDoctors,\n            _doctorId\n        );\n        require(pos >= 0, \"The request does not exists\");\n\n        if (_isAllowed == true) {\n            patientDataOf[msg.sender].allowedDoctors.push(_doctorId);\n        }\n\n        // Deleting this request from array\n        Patient storage patientData = patientDataOf[msg.sender];\n        for (\n            uint256 i = uint256(pos);\n            i < patientData.requestedDoctors.length - 1;\n            i++\n        ) {\n            patientData.requestedDoctors[i] = patientData.requestedDoctors[\n                i + 1\n            ];\n        }\n        patientData.requestedDoctors.pop();\n\n        return true;\n    }\n\n    function revokePermission(address _doctorId)\n        public\n        onlyPatient\n        returns (bool success)\n    {\n        int256 pos = checkItemInsideAddress(\n            patientDataOf[msg.sender].allowedDoctors,\n            _doctorId\n        );\n        require(pos >= 0, \"The permission does not exists\");\n\n        // Deleting this permission from array\n        Patient storage patientData = patientDataOf[msg.sender];\n        for (\n            uint256 i = uint256(pos);\n            i < patientData.allowedDoctors.length - 1;\n            i++\n        ) {\n            patientData.allowedDoctors[i] = patientData.allowedDoctors[i + 1];\n        }\n        patientData.allowedDoctors.pop();\n\n        return true;\n    }\n\n    function getPatientHealth(address _patientId)\n        public\n        view\n        returns (\n            string memory fullName,\n            uint256 age,\n            string memory sex,\n            uint256 createdDate,\n            Prescription[] memory prescriptionNotes\n        )\n    {\n        require(\n            checkItemInsideAddress(\n                patientDataOf[_patientId].allowedDoctors,\n                msg.sender\n            ) >= 0,\n            \"You are not allowed to access\"\n        );\n\n        Patient storage patientData = patientDataOf[_patientId];\n\n        return (\n            patientData.fullName,\n            patientData.age,\n            patientData.sex,\n            patientData.createdDate,\n            patientData.prescriptionNotes\n        );\n    }\n\n    function addPrescription(address _patientId, string memory _note)\n        public\n        returns (bool success)\n    {\n        require(bytes(_note).length > 0, \"Notes Should not empty\");\n        require(\n            checkItemInsideAddress(\n                patientDataOf[_patientId].allowedDoctors,\n                msg.sender\n            ) >= 0,\n            \"You are not allowed to access\"\n        );\n        Prescription memory newPrescription = Prescription(\n            _note,\n            block.timestamp,\n            payable(msg.sender)\n        );\n        Patient storage patientData = patientDataOf[_patientId];\n        patientData.prescriptionNotes.push(newPrescription);\n\n        return true;\n    }\n}\n\nfunction checkItemInsideAddress(address[] memory _addressList, address _element)\n    pure\n    returns (int256 pos)\n{\n    int256 _pos = -1;\n\n    for (uint256 i = 0; i < _addressList.length; i++) {\n        if (_element == _addressList[i]) {\n            _pos = int256(i);\n            break;\n        }\n    }\n\n    return _pos;\n}\n",
  "sourcePath": "/Users/z3r0c00l-2k/Documents/Projects/Hobbies/health-chain/smartcontracts/contracts/HealthChain.sol",
  "compiler": {
    "name": "solc",
    "version": "0.8.9+commit.e5eed63a.Emscripten.clang"
  },
  "schemaVersion": "3.4.3",
  "updatedAt": "2021-11-23T11:20:02.107Z",
  "networkType": "ethereum",
  "devdoc": {
    "kind": "dev",
    "methods": {},
    "version": 1
  },
  "userdoc": {
    "kind": "user",
    "methods": {},
    "version": 1
  }
}